:0300000002129D4C
:03000B000200BA36
:03002B000203E7E6
:03005B0002054655
:0300730002053C47
:1000800002030406080C10182030406080020304AC
:1000900006080C101820304080FF0406080C1018C9
:1000A0002030406080A0C00002010D0D0405060252
:1000B0000D0505050D0604050302C2AFC0D0C0E062
:1000C000205A1030600A205C07302F02E47380FC55
:1000D0000203D3306306C292C296C29585258AC2B6
:1000E0005AE525F4700221C60563306013206A19B1
:1000F000758B00D0E0D0D0C292C296C295D2AF32FA
:10010000C292C296C2950201B6D265C266E5676028
:100110001CC3E5631495674014C265D266C3E563EA
:10012000956650030201B67563000201B6206C1497
:10013000C292C296C2957406D5E0FDD293D297D2F0
:10014000940201B6D266C292C296C295E53E20E202
:100150003420E1127406D5E0FD207502D297307587
:1001600002D2930201B620E0127406D5E0FD20759C
:1001700002D297307502D2930201B67406D5E0FD23
:10018000D2940201B620E11F20E00A7406D5E0FDFA
:10019000D2940201B67406D5E0FD207502D29330E8
:1001A0007502D2970201B67406D5E0FD207502D221
:1001B00093307502D297758B00D0E0D0D0C292C236
:1001C00096C295D2AF32D0E0D0D0D2AF3261D3E573
:1001D00025600A207502D292307502D296C29561CE
:1001E000D3E5256002D295207502C296307502C211
:1001F0009261D3E525600A207502D296307502D24D
:1002000092207502C292307502C29661D3207502A7
:10021000C293307502C297E525600A207502D2921A
:10022000307502D296207502C297307502C293C211
:100230009561D3207502C293307502C29720750272
:10024000C297307502C2937406D5E0FDE525600AB9
:10025000207502D292307502D296C29561D3207574
:1002600002C293307502C297E525600A207502D25A
:1002700092307502D296C294C29561D3207502C2A3
:1002800093307502C297C2947406D5E0FDE52560EF
:100290000A207502D292307502D296C29561D3C2FD
:1002A00094E5256002D295207502C293307502C292
:1002B00097207502C296307502C29261D3C2942013
:1002C0007502C293307502C2977406D5E0FDE5252C
:1002D0006002D295207502C296307502C29261D337
:1002E000C294E5256002D295207502C2973075024E
:1002F000C293207502C296307502C29261D3C29435
:10030000207502C297307502C2937406D5E0FDE5F0
:10031000256002D295207502C296307502C29261A4
:10032000D3207502C297307502C293E525600A207A
:100330007502D296307502D292C294207502C29292
:10034000307502C29661D3207502C297307502C221
:1003500093C2947406D5E0FDE525600A207502D2AB
:1003600096307502D292207502C292307502C29602
:1003700061D3207502C297307502C293E525600AE9
:10038000207502D296307502D292207502C2933047
:100390007502C297207502C292307502C29661D36F
:1003A000207502C297307502C293207502C2933045
:1003B0007502C2977406D5E0FDE525600A20750236
:1003C000D296307502D292207502C292307502C266
:1003D0009661D3E525F4F58A758B00756200D25AD3
:1003E000D0E0D0D0D2AF32C2AFC2AD53E6EFC0D072
:1003F000C0E0D2D3D2AFC2CEE528600A741F552E1A
:1004000060491528814B78007900E580307601F449
:1004100030E50278FF53DACF20760343DA203076D6
:100420000343DA10C2D8C269E580307601F430E5C2
:100430000279FFC3E89970CE305903752818741FEC
:10044000552E60037528188859D268E5296004156F
:1004500029815E741F552E600543DA01C2D82068D9
:100460000281E7E559F8C268741F552E603679821B
:0E047000B70431C3E894F0400374F0F8E8C418
:10047E00540F28F87984B7030281A4C313C31387DA
:10048E0021200802C313200A06C3C898F881A428A5
:10049E00F8500374FFF8E52C5406703D8822306343
:1004AE000AC3E522955E4003855E227882B6042952
:1004BE00C3E5229524401278A196400DE52426F539
:1004CE002450097524FF0204DA852224A824C3E5EA
:1004DE0024955E4002A85E882520CF0CD0E0D0D0B7
:1004EE00C2D343E610D2AD32C2CF7801E528600800
:1004FE00741F552E70021528C3E5599401400575D9
:10050E005C00A123755D00756400E55C2401F55C5B
:10051E005003755CFFE55F240A5005755FFFA1303F
:10052E00F55FD0E0D0D0C2D343E610D2AD32C2AF29
:10053E0053917FC258D2AF32C2AF53E6EFC2ADC0B5
:10054E00D0C0E0C0F0D2D3D2AFA8FBA9FCC2D83045
:10055E006902A1B153DACF20760343DA1030760365
:10056E0043DA20D269E580307601F420E502A185D8
:10057E00882689270207F253DACF20760343DA2042
:10058E0030760343DA10C2D8C269741F552E70023A
:10059E00E1D87800E580307601F430E502E1D888C4
:1005AE0059E18653DACF20760343DA2030760343BF
:1005BE00DA10C269205902C16B53DACF2076034399
:1005CE00DA1030760343DA20C2D8D26988548955BE
:1005DE00C3E89552F8E99553F9E4FB7AFAC3E89427
:1005EE00C8E994005008E4D2E4FB7A0AC13EC3E89D
:1005FE009468E994015008E4D2E3FB7A0FC13EC33C
:10060E00E894D0E994025008E4D2E2FB7A1EC13E8F
:10061E00C3E894A0E994055008E4D2E1FB7A3CC10A
:10062E003EC3E89498E994085006E4D2E0FB7A7849
:10063E00C3E89556FCE99557FD30E708ECF4240124
:10064E00FCEDF4FD7558007008C3EC9A5003755814
:10065E000188568957A854A95588528953C3E895DD
:10066E0026F8E99527F9307402E16A307302E16ADF
:10067E00307202E163E9C313F9E813F8307102E155
:10068E0063E9C313F9E813F8307002E163E9C313A9
:10069E00FDE813FC205918C3EC941CED94024003A2
:1006AE000207D8ED7009C3EC94C850030207D87442
:1006BE000020770B7888E67896B40302789EE624BD
:1006CE00FAFEE43400FFC3EC9EFCED9FFD92087829
:1006DE0088E6B40322A208500920751BC2AFD2755A
:1006EE00C1F7307512C2AFC275C292C296C295C220
:1006FE0093C297C294D2AFA2085017E6B4030DEC82
:10070E00F42401FCEDF43400FD020720780079009A
:10071E00E16A7888E6B40315EC33FCED33FDC3ECE7
:10072E009405FCED9400FD50047C007D00C3EC9418
:10073E00FFED9400400678FF7900E16AEC856EF0DB
:10074E00A4C5F0A2F733F87900400302078678FFBC
:10075E007900020786E9C313F9E813F830740EE93D
:10076E00600278FFC3E81338F8E43400F9C3E89464
:10077E00FFE99400400278FFC3E530600588590216
:10078E0007C5C3E894A05005780002079D7801883C
:10079E0074A877B80F1A787F8859E5EE04C3F5EE82
:1007AE0094324013E4F5EEF502780088770207C51F
:1007BE00780188590207C5E559F573D268205902A8
:1007CE00E1D8741FF4552E4BF52E752818741F554D
:1007DE002E700375280A305902E1F2741F552E60EF
:1007EE000353DAFE752906741F552E700375290AF8
:1007FE00D0F0D0E0D0D0C2D3D2AD43E610327901E2
:10080E0002082A790302082A790A02082A791E02A6
:10081E00082A796402082A79C802082A7817E4D5CA
:10082E00E0FDD8FAD9F6227C051125DCFC227A14DB
:10083E007B780208587A107B8C0208587A0D7BB4AC
:10084E000208587A0B7BC8020858AC257525017929
:10085E0002B275E4C294D5E0FDE5256002D295D5CD
:0E086E00E0FDC295D5E0FDD294D5E0FDE52574
:10087C00600A207502D292307502D296E56FD5E0EF
:10088C00FD207502C292307502C2967496D5E0FDB9
:10089C00D9C1EAF8D5E0FDD8FBDBB1C2948C252296
:1008AC00C37C007D0075F00005F0EA33FAEB33FBF6
:1008BC0050F6EB13FBEA13FAC3E9FFE8FEE89AF8EB
:1008CC00E99BF95004EFF9EEF8B3EC33FCED33FD92
:1008DC00D5F0DFEDF9ECF822E889F08A20D2D4F8D3
:1008EC00A9F07B0030F70B7BFFF42401F8E9F4341A
:1008FC0000F9E88520F0A4ADF0F8E98520F0A4AF6C
:10090C00F0FEED2EF974003FFA7C04C3EA13FAE909
:10091C0013F9E813F8DCF48BF030F70AE8F424014F
:10092C00F8E9F43400F9E889F0C2D4F8A9F0227897
:10093C0082B60403020997C3E559940140030209E6
:10094C0060852224E4F540F541F542F543F544F584
:10095C00490209977882E6FC754901E522F523786E
:10096C003879C7AA3CAB3DC3EB13FBEA13FAEC1482
:10097C006013C3EB13FBEA13FAEC14146007C3EB1C
:10098C0013FBEA13FA11AC8840894122E549603423
:10099C00C3E5409523F8E5419400F9500CC3E89465
:1009AC0080E994FF40160209CCC3E8947FE99400D7
:1009BC0050030209CC787F79000209CC788079FF4A
:1009CC008845894622E5496058E5452542F8E546C3
:1009DC003543F9854620E4300701F43544FA30E715
:1009EC0009C3EA94F04015020A0EC3EA940F5003AF
:1009FC00020A0E78FF79FF7A0F020A0E780079004E
:100A0C007AF0C3E524955E5006E52460094127E59C
:100A1C004620E70D4127E54630E706884289438AA0
:100A2C004422E5497003020A91789FE6FAC3E54532
:100A3C0033F8E54633F911E4E930E70BC3E8948069
:100A4C00E994FF40134168C3E8947FE99400500295
:100A5C004168787F79004168788079FFE820E71554
:100A6C00C3E52398F84009C3E894014003020A8FB8
:100A7C007801020A8FE8F424012523F84003020AC6
:100A8C008F78FF884722E5497003020AF378A0E6C5
:100A9C00FAA843A94411E4E930E70CC3E89401E94E
:100AAC0094FF4016020ACAC3E894FFE9940050036D
:100ABC00020ACA78FF7900020ACA780179FFE92094
:100ACC00E715C3E54798F84009C3E89401400302D1
:100ADC000AF17800020AF1E8F424012547F84003F2
:100AEC00020AF178FF8824227883E6F5201210118F
:100AFC0075E890110C75E890E5E820ECFBA8BDA911
:100B0C00BE1210B7756A55756B00C3740013FD7473
:100B1C005513FC74552CFC74003DFDECFAEDFBC335
:100B2C00E89AE99B4014E56A2455F56AE56B3400B4
:100B3C00F56BEA2CFAEB3DFB80E5AE6AAF6BC3E5D7
:100B4C006B13F9E56A13F8C3E913F9E813F8E56ACE
:100B5C0028F568E56B39F5697A03C3E913F9E813ED
:100B6C00F8DAF7AA201A7009756A00756B00020B87
:100B7C008D1AEA6008EE28FEEF39FFDAF88E6A8FDC
:100B8C006B2275E890227883E6FFE5E820ECF7A865
:100B9C00BDA9BE056CC3E56C9408404B756C00E9AF
:100BAC007007E56D601B020BC1C3E8956D6010E525
:100BBC006D5006600C14020BCD0460F9020BCDE5F0
:100BCC006DF56DC39472401B755EC0C394044013E5
:100BDC00755E80C39404400B755E40C3940440035F
:100BEC00755E0075BB0922EFC39401601BC3E894CA
:100BFC00FFE994035012C3E8956AE9956B5009E537
:100C0C005E600C155E020C1BE55EF46002055EA8CE
:100C1C005EC3E524985002A824C3E8955F400AA857
:100C2C005FE55FF46003855F5E8825C3E56CB40700
:100C3C000375BB102230610278323062027878E59D
:100C4C002C5406601FE879A287F0A4C5F0A2F733F4
:100C5C00F8C3E8955E4002A85E8822882488253077
:0F0C6C006102886022788FE6FFC3EF940550186D
:100C7B00C3EF94045020C3EF94035028C3EF9402A6
:100C8B005030C3EF940150387533A075340F753560
:100C9B003C75360581D77533C07534127535407583
:100CAB00360681D77533707534177535D0753607A1
:100CBB0081D775334C75341D7535C475360981D79D
:100CCB007533287534237535B875360B85335085D8
:100CDB003451753C00753D0822A850A951020CEF08
:100CEB00A84AA94B759100C3E498F594E499F5953E
:100CFB00759104D25875C820A8CCA9CD75C824AA63
:100D0B003AAB3B883A893BC3E89AF8E99BF9AA3C92
:100D1B00AB3DC3EB13FDEA13FCC3ED13FDEC13FC6E
:100D2B00C3EA9CFAEB9DFBEA28FAEB39FB8A3C8B76
:100D3B003D400122753CFF753DFF22759100C3E4D8
:100D4B00954CF594E4954DF595759104D258227F09
:100D5B0001789CE61460027F02305802A164B14610
:100D6B00DFF7227892E6FF7E14A83DC3E894044097
:100D7B00027804C3E833F8C3EE98FE3063047F03B4
:100D8B007E00A93DA83C7A04C3E913F9E813F8DA0D
:100D9B00F7C3E89EF8E99400F94009C3E89402E927
:100DAB00940050047802E4F9E9FBE8FAC3E913FD77
:100DBB00E813FCC3EF9403602EEF20E00DE82CF852
:100DCB00E93DF9ECFAEDFB020DDFE828F8E939F91A
:100DDB007A02E4FBC3EF9403400D8A4E8B4F884A93
:100DEB00894B8C4C8D4D22884E894F8A4A8B4B8C6C
:100DFB004C8D4D22305802A1FF759100C3E4953CF8
:100E0B00F594E4953DF595759104D25822753F0004
:100E1B00752000020E27753F00752040D2AF053FAD
:100E2B0020580122759D00E53DC313C313F80860DC
:100E3B0030306A06C313C313F808C3E8940A4002A0
:100E4B00780A306D08C3E8940440027804C3E53D8A
:100E5B009408400D759D02C3E53D94104003759DAC
:100E6B0003205803D2AF22791E206D02790AD2AF2C
:100E7B000000C2AF205A0A793C206D02791430660B
:100E8B00E03063027978C3E58B9940D5E59BF45448
:100E9B0040B52002C127D8C9D2AF22C25B789CE6ED
:100EAB0014600AE53F147005206302D25B30630BBC
:100EBB000538205810753800020ED02058071581C0
:100ECB00158102177822759100C3E4954EF594E4D1
:100EDB00954FF595759104D258220539205B037512
:100EEB003900305B2378A3E6FFBF0108D25CC292C6
:100EFB00C296C295B146305802E101BF0208D25CDE
:100F0B00C292C296C295D1D1305802E11322C2AF20
:100F1B00C294206A03020F3890034730650F207587
:100F2B0002C297307502C2937406D5E0FD2075029C
:100F3B00D293307502D297759F80753E020210A333
:100F4B00C2AF206A03020F6D9002FE306517C29488
:100F5B00207502C297307502C2937406D5E0FD026C
:100F6B000F709001E1207502C296307502C292306B
:100F7B005A06E5256002D295207503759F89307559
:100F8B0003759F81753E030210A3C2AF207502C289
:100F9B0093307502C297206A03020FB49002BD30E2
:100FAB006507C2947406D5E0FD207502D2973075A3
:100FBB0002D293207503759F81307503759F8975D8
:100FCB003E040210A3C2AF206A03020FF290027C10
:100FDB00306517207502C293307502C297C29474A4
:100FEB0006D5E0FD020FF59001CFC295305A0EE504
:100FFB0025600A207502D292307502D296759F80B9
:10100B00753E050210A3C2AF207502C29730750260
:10101B00C293206A0302103890023330650F20759B
:10102B0002C293307502C2977406D5E0FDD29420AC
:10103B007503759F89307503759F81753E06021088
:10104B00A3C2AF206A030210769003A030651F2065
:10105B007502C293307502C297207502C297307524
:0E106B0002C2937406D5E0FD0210799001F3E5
:10107900207502C292307502C296305A0EE525607B
:101089000A207502D296307502D292207503759F97
:1010990081307503759F89753E01D2AF789CE6C38F
:1010A90094024007C3E53994035002C25C229001BF
:1010B900CDC292C296C295C293C297C294C25A2215
:1010C900C3E5509535E55195365001227890E6FFF4
:1010D900C3EF94055018C3EF9404501BC3EF940356
:1010E900501EC3EF94025021C3EF94015024C3E56D
:1010F90050943CF8021124C3E5509428F8021124B5
:10110900C3E550941AF8021124C3E5509412F80269
:101119001124C3E550940AF8021124E5519400F909
:101129008850895122305802212E22788076090868
:1011390076090876040876010876030876FF0876AA
:1011490009087601087601087601788C7600087618
:10115900FF0876FF0876010876050876FF0876030A
:101169000876060876FF0876020876030876FA08F4
:1011790076500876500876050876010876020876D2
:101189000008767DE4F573F575F576780F88772292
:101199007893E6FF756609756701C3BF0206756630
:1011A90005756701C3BF0306756605756702C3BF89
:1011B9000406756605756703C3BF05067566097577
:1011C9006707C3BF06067566007567007887E6FF7F
:1011D900C26CC3BF0302D26CC26BC3BF0402D26B21
:1011E900C26A7418552D6002D26AC2656002D2655E
:1011F900D2666002C2667888E6C394036008C27545
:10120900E630E102D275C2767889E630E102D2761B
:10121900C3EF94026008758E01D26D02122C758E8F
:1012290000C26D227880E61490008093789FF6784A
:1012390081E6149000809378A0F611B722789BE696
:101249001490008D9378A1F611B7227886E6149050
:10125900009A9378A2F611B722789CE6149000A719
:101269009378A3F611B722227896E6FA7897E6FBE7
:101279003077047A007BFFC3EB9AFCC39482500257
:101289007C82756E00056EEC856EF0A4C3E5F09462
:101299008040F222E5EF20E6037520000520903F0B
:1012A900FFE520146006901FFF146000930460039B
:1012B90075EF12C2D353D9BF7581C043FF8012089D
:1012C9000C75EF0243B203E5B324044002F5B311F0
:1012D900B77580FF75A40075F1F075D4DF759002BC
:1012E90075A5FC75F2FD75D50275A61075A0FF757B
:1012F900F3F175E241E4F8F6D8FD31343199512D15
:10130900514651545162517051717898866F11B795
:1013190075885075890275C82475910475D840C2BD
:10132900AF12082512083C12081B12084312081BA9
:1013390012084A12081B12085112081B75A82275B7
:10134900B80275E690759B80759D0375D10E75BCC5
:101359005875BB0975BA1175E88012080CD2AF121D
:101369000AF443DA01C2D8C269120825753001D2DC
:10137900597A05E55870027A05120811E559C3949E
:101389000240EEE52E541F855B5AF55BB55AE2DA49
:10139900E2C25953DACF20760343DA203076034389
:1013A900DA10C2D8C2691208201208117802741F13
:1013B900552E70027800C3E5599840EDC2AF120866
:1013C9003C12081B12083C12081B12084312081B86
:1013D90012084312081BD2AF120825754800C3E54D
:1013E9005995484003855948120820C3E559940185
:1013F900400280EAC2AF12085112081B12085112AA
:10140900081B12084A12081B12084A12081BD2AFFD
:10141900120825753000E4F531F5320531E531F46E
:1014290070390532789AE6781914601278321460A6
:101439000D787D14600878FA146003753200C3E5ED
:101449003298401715327531B47899866FC2AF1248
:101459000851D2AF7898866F120820120816E5282D
:0F1469007008741F552E70026178C3E559940600
:1014780040AA7888E6C394036003120820E5287020
:1014880003021378C2AF11B7E4F522F523F524F56A
:1014980025D2AF78858661F540F541F542F543F5EB
:1014A80044F56CF549F52BF52CF539120C71756C72
:1014B8000875BB1012080C120B8EE5E820ECFBA88F
:1014C800BDA9BEE97001F8886D120B92756C08759C
:1014D800BB107895E630E0030215237887E6FE76A0
:1014E8000231997887EEF6D261C2AF755EFF120CB1
:1014F8004185225E85225FD2AFC261752501855D77
:1015080064756501D260D2637538001111114C12EF
:101518000CEB120C71120D6E0216487887E6FE76F7
:10152800037893E6FD760531997887EEF67893EDA2
:10153800F6D260D261D2651111114C755EFF120CA2
:101548004112080C120F1912080C12080C120F4B3A
:10155800120811120F95120811120811120FD01249
:101568000816111112081112080CC261D262120B6E
:101578008E120B92120C41756C0875BB10114C122F
:101588000CE4120D6E11C9312E120F19120CE4124F
:101598000D6E11C9312E120F4B120CE4120D6E1183
:1015A800C9312E120F95120CE4120D6E11C9312E8D
:1015B800120FD0120CE4120D6E11C9312E11111236
:1015C8000CE4120D6E11C9C3E5509535E5519536F9
:1015D800400C312EC3E55994015093021778312EEF
:1015E800C2627887E6FE760231997887EEF6852220
:1015F8005E85605F856025855D64756501D263756C
:101608003800C2AF207502C293307502C2972075A8
:1016180002C297307502C293742DD5E0FDD2AF1186
:101628004C120CEB120D5A120D6E120DFF756C0058
:1016380075BB090216483199114C756C0075BB09C8
:10164800120E21120EA6120ED112093B120EE5122D
:101658000F19120CEB120D5A120D6E120DFF120E0D
:1016680018120EA6120ED1120998120EE5120F4B7F
:10167800120CEB120D5A120D6E120DFF120E2112E2
:101688000EA6120ED11209D1120EE5120F95120CE8
:10169800EB120D5A120D6E120DFF120E18120EA635
:1016A800120ED1120A2E120EE5120FD0120CEB12E6
:1016B8000D5A120D6E120DFF120E21120EA6120EE9
:1016C800D1120A92120EE51111120CEB120D5A12D8
:1016D8000D6E120DFF120E18120B8E120EA6120EA0
:1016E800D1120B92120EE5114C120CEB120D5A127C
:1016F8000D6E120DFF30634285605E85605F855D0B
:101708006475650179647A147888E6B40304791EEF
:101718007A05C3E538994015C263D2648A37788858
:10172800E6B40306755EFF755FFF021742C3E5590D
:1017380094014003021648021778306419E53714FB
:101748007005C26402163EF537C3E559940140039B
:10175800021648021778C3E55C94FA5013741F55B3
:101768002E7004E5286009C3E53D94F05002C14895
:10177800C2AF11B77887E6FE760231997887EEF620
:10178800E4F522F523F524F525F561C260D2AF1200
:10179800080C11B7741F552E7006E5287002617881
:0217A800811F9F
:101A00000B02110909040103FF0901010155AA0094
:101A1000FFFF0105FF0306FF0203FA505005010214
:031A2000007DFF47
:101A400023506C6174696E756D50726F3330412331
:101A500023424C48454C492346333930232020202B
:101A60006F72672E736B797075702E6573632E625B
:00000001FF
