:0300000002125396
:03000B000200BA36
:03002B000203E7E6
:03005B0002054655
:0300730002053C47
:1000800002030406080C10182030406080020304AC
:1000900006080C101820304080FF0406080C1018C9
:1000A0002030406080A0C00002010D0D0405060252
:1000B0000D0505050D0604050302C2AFC0D0C0E062
:1000C000205A1030600A205C07302F02E47380FC55
:1000D0000203D3306306C292C296C29585258AC2B6
:1000E0005AE525F4700221C60563306013206A19B1
:1000F000758B00D0E0D0D0C292C296C295D2AF32FA
:10010000C292C296C2950201B6D265C266E5676028
:100110001CC3E5631495674014C265D266C3E563EA
:10012000956650030201B67563000201B6206C1497
:10013000C292C296C2957406D5E0FDD293D297D2F0
:10014000940201B6D266C292C296C295E53E20E202
:100150003420E1127406D5E0FD207502D297307587
:1001600002D2930201B620E0127406D5E0FD20759C
:1001700002D297307502D2930201B67406D5E0FD23
:10018000D2940201B620E11F20E00A7406D5E0FDFA
:10019000D2940201B67406D5E0FD207502D29330E8
:1001A0007502D2970201B67406D5E0FD207502D221
:1001B00093307502D297758B00D0E0D0D0C292C236
:1001C00096C295D2AF32D0E0D0D0D2AF3261D3E573
:1001D00025600A207502D292307502D296C29561CE
:1001E000D3E5256002D295207502C296307502C211
:1001F0009261D3E525600A207502D296307502D24D
:1002000092207502C292307502C29661D3207502A7
:10021000C293307502C297E525600A207502D2921A
:10022000307502D296207502C297307502C293C211
:100230009561D3207502C293307502C29720750272
:10024000C297307502C2937406D5E0FDE525600AB9
:10025000207502D292307502D296C29561D3207574
:1002600002C293307502C297E525600A207502D25A
:1002700092307502D296C294C29561D3207502C2A3
:1002800093307502C297C2947406D5E0FDE52560EF
:100290000A207502D292307502D296C29561D3C2FD
:1002A00094E5256002D295207502C293307502C292
:1002B00097207502C296307502C29261D3C2942013
:1002C0007502C293307502C2977406D5E0FDE5252C
:1002D0006002D295207502C296307502C29261D337
:1002E000C294E5256002D295207502C2973075024E
:1002F000C293207502C296307502C29261D3C29435
:10030000207502C297307502C2937406D5E0FDE5F0
:10031000256002D295207502C296307502C29261A4
:10032000D3207502C297307502C293E525600A207A
:100330007502D296307502D292C294207502C29292
:10034000307502C29661D3207502C297307502C221
:1003500093C2947406D5E0FDE525600A207502D2AB
:1003600096307502D292207502C292307502C29602
:1003700061D3207502C297307502C293E525600AE9
:10038000207502D296307502D292207502C2933047
:100390007502C297207502C292307502C29661D36F
:1003A000207502C297307502C293207502C2933045
:1003B0007502C2977406D5E0FDE525600A20750236
:1003C000D296307502D292207502C292307502C266
:1003D0009661D3E525F4F58A758B00756200D25AD3
:1003E000D0E0D0D0D2AF32C2AFC2AD53E6EFC0D072
:1003F000C0E0D2D3D2AFC2CEE528600A741F552E1A
:1004000060491528814B78007900E580307601F449
:1004100030E50278FF53DACF20760343DA203076D6
:100420000343DA10C2D8C269E580307601F430E5C2
:100430000279FFC3E89970CE305903752818741FEC
:10044000552E60037528188859D268E5296004156F
:1004500029815E741F552E600543DA01C2D82068D9
:100460000281E7E559F8C268741F552E603679821B
:0E047000B70431C3E894F0400374F0F8E8C418
:10047E00540F28F87984B7030281A4C313C31387DA
:10048E0021200802C313200A06C3C898F881A428A5
:10049E00F8500374FFF8E52C5406703D8822306343
:1004AE000AC3E522955E4003855E227882B6042952
:1004BE00C3E52295244012780198400DE52428F5D5
:1004CE002450097524FF0204DA852224A824C3E5EA
:1004DE0024955E4002A85E882520CF0CD0E0D0D0B7
:1004EE00C2D343E610D2AD32C2CF7801E528600800
:1004FE00741F552E70021528C3E5599401400575D9
:10050E005C00A123755D00756400E55C2401F55C5B
:10051E005003755CFFE55F240A5005755FFFA1303F
:10052E00F55FD0E0D0D0C2D343E610D2AD32C2AF29
:10053E0053917FC258D2AF32C2AF53E6EFC2ADC0B5
:10054E00D0C0E0C0F0D2D3D2AFA8FBA9FCC2D83045
:10055E006902A1B153DACF20760343DA1030760365
:10056E0043DA20D269E580307601F420E502A185D8
:10057E00882689270207B953DACF20760343DA207B
:10058E0030760343DA10C2D8C269741F552E70023A
:10059E00E19F7800E580307601F430E502E19F8836
:1005AE0059E18653DACF20760343DA2030760343BF
:1005BE00DA10C269205902C16B53DACF2076034399
:1005CE00DA1030760343DA20C2D8D26988548955BE
:1005DE00C3E89552F8E99553F9E4FB7AFAC3E89427
:1005EE00C8E994005008E4D2E4FB7A0AC13EC3E89D
:1005FE009468E994015008E4D2E3FB7A0FC13EC33C
:10060E00E894D0E994025008E4D2E2FB7A1EC13E8F
:10061E00C3E894A0E994055008E4D2E1FB7A3CC10A
:10062E003EC3E89498E994085006E4D2E0FB7A7849
:10063E00C3E89556FCE99557FD30E708ECF4240124
:10064E00FCEDF4FD7558007008C3EC9A5003755814
:10065E000188568957A854A95588528953C3E895DD
:10066E0026F8E99527F9307402E16A307302E16ADF
:10067E00307202E163E9C313F9E813F8307102E155
:10068E0063E9C313F9E813F8307002E163E9C313A9
:10069E00FDE813FC205918C3EC941CED94024003A2
:1006AE0002079FED7009C3EC94C8500302079F74B4
:1006BE000020770B7888E67896B40302789EE624BD
:1006CE00FAFEE43400FFC3EC9EFCED9FFD92087829
:1006DE0088E6B40322A208500920751BC2AFD2755A
:1006EE00C1F7307512C2AFC275C292C296C295C220
:1006FE0093C297C294D2AFA2085017E6B4030DEC82
:10070E00F42401FCEDF43400FD020720780079009A
:10071E00E16A7888E6B40315EC33FCED33FDC3ECE7
:10072E009405FCED9400FD50047C007D00C3EC9418
:10073E00FFED9400400678FF7900E16AEC856EF0DB
:10074E00A4C5F0A2F733F87900400302078678FFBC
:10075E007900020786E9C313F9E813F830740EE93D
:10076E00600278FFC3E81338F8E43400F9C3E89464
:10077E00FFE99400400278FFC3E8948050027800AD
:10078E008859D268205902E19F741FF4552E4BF5FB
:10079E002E752818741F552E700375280A305902AD
:1007AE00E1B9741F552E600353DAFE752906741FC6
:1007BE00552E700375290AD0F0D0E0D0D0C2D3D216
:1007CE00AD43E6103279010207F179030207F179A0
:1007DE000A0207F1791E0207F179640207F179C85E
:1007EE000207F17817E4D5E0FDD8FAD9F6227A148B
:1007FE007B780208187A107B8C0208187A0D7BB46D
:10080E000208187A0B7BC8020818AC2575250179E9
:10081E0002B275E4C294D5E0FDE5256002D295D50D
:10082E00E0FDC295D5E0FDD294D5E0FDE525600A48
:10083E00207502D292307502D296E56FD5E0FD207A
:10084E007502C292307502C2967496D5E0FDD9C17A
:10085E00EAF8D5E0FDD8FBDBB1C2948C2522C37C2F
:0E086E00007D0075F00005F0EA33FAEB33FB75
:10087C0050F6EB13FBEA13FAC3E9FFE8FEE89AF82B
:10088C00E99BF95004EFF9EEF8B3EC33FCED33FDD2
:10089C00D5F0DFEDF9ECF822E889F08A20D2D4F813
:1008AC00A9F07B0030F70B7BFFF42401F8E9F4345A
:1008BC0000F9E88520F0A4ADF0F8E98520F0A4AFAC
:1008CC00F0FEED2EF974003FFA7C04C3EA13FAE94A
:1008DC0013F9E813F8DCF48BF030F70AE8F4240190
:1008EC00F8E9F43400F9E889F0C2D4F8A9F02278D8
:1008FC0082B60403020957C3E55994014003020967
:10090C0020852224E4F540F541F542F543F544F504
:10091C00490209577882E6FC754901E522F52378EE
:10092C003879C7AA3CAB3DC3EB13FBEA13FAEC14C2
:10093C006013C3EB13FBEA13FAEC14146007C3EB5C
:10094C0013FBEA13FA116C8840894122E5496034A3
:10095C00C3E5409523F8E5419400F9500CC3E894A5
:10096C0080E994FF401602098CC3E8947FE9940057
:10097C00500302098C787F790002098C788079FF0A
:10098C008845894622E5496058E5452542F8E54603
:10099C003543F9854620E4300701F43544FA30E755
:1009AC0009C3EA94F040150209CEC3EA940F500330
:1009BC000209CE78FF79FF7A0F0209CE7800790010
:1009CC007AF0C3E524955E5006E524600921E7E53D
:1009DC004620E70D21E7E54630E706884289438A41
:1009EC004422E5497003020A51789FE6FAC3E545B3
:1009FC0033F8E54633F911A4E930E70BC3E89480EA
:100A0C00E994FF40134128C3E8947FE99400500215
:100A1C004128787F79004128788079FFE820E71514
:100A2C00C3E52398F84009C3E894014003020A4F38
:100A3C007801020A4FE8F424012523F84003020A46
:100A4C004F78FF884722E5497003020AB378A0E685
:100A5C00FAA843A94411A4E930E70CC3E89401E9CE
:100A6C0094FF4016020A8AC3E894FFE994005003ED
:100A7C00020A8A78FF7900020A8A780179FFE92054
:100A8C00E715C3E54798F84009C3E8940140030211
:100A9C000AB17800020AB1E8F424012547F84003B2
:100AAC00020AB178FF8824227883E6F520120FD24F
:100ABC0075E8901207D375E890E5E820ECFBA8BD2B
:100ACC00A9BE121078756A55756B00C3740013FDBE
:100ADC00745513FC74552CFC74003DFDECFAEDFBC5
:100AEC00C3E89AE99B4014E56A2455F56AE56B3432
:100AFC0000F56BEA2CFAEB3DFB80E5AE6AAF6BC3FD
:100B0C00E56B13F9E56A13F8C3E913F9E813F8E593
:100B1C006A28F568E56B39F5697A03C3E913F9E8D6
:100B2C0013F8DAF7AA201A7009756A00756B0002BF
:100B3C000B4E1AEA6008EE28FEEF39FFDAF88E6ADF
:100B4C008F6B2275E890227883E6FFE5E820ECF7BE
:100B5C00A8BDA9BE056CC3E56C9408404B756C0030
:100B6C00E97007E56D601B020B82C3E8956D6010A0
:100B7C00E56D5006600C14020B8E0460F9020B8EAE
:100B8C00E56DF56DC39472401B755EC0C394044053
:100B9C0013755E80C39404400B755E40C39404408F
:100BAC0003755E0075BB0922EFC39401601BC3E89B
:100BBC0094FFE994035012C3E8956AE9956B5009C8
:100BCC00E55E600C155E020BDCE55EF46002055E12
:100BDC00A85EC3E524985002A824C3E8955F400A98
:100BEC00A85FE55FF46003855F5E8825C3E56CB4A0
:100BFC00070375BB102230610278323062027878BC
:100C0C00E52C5406601FE879A287F0A4C5F0A2F782
:100C1C0033F8C3E8955E4002A85E882288248825B4
:100C2C00306102886022788FE6FFC3EF940550187C
:100C3C00C3EF94045020C3EF94035028C3EF9402E5
:100C4C005030C3EF940150387533A075340F75359F
:100C5C003C75360581987533C07534127535407501
:0D0C6C00360681987533707534177535D0D4
:100C7900753607819875334C75341D7535C47536CD
:100C89000981987533287534237535B875360B8500
:100C99003350853451753C00753D0822A850A9513F
:100CA900020CB0A84AA94B759100C3E498F594E4E5
:100CB90099F595759104D25875C820A8CCA9CD7518
:100CC900C824AA3AAB3B883A893BC3E89AF8E99B1E
:100CD900F9AA3CAB3DC3EB13FDEA13FCC3ED13FDCD
:100CE900EC13FCC3EA9CFAEB9DFBEA28FAEB39FB0F
:100CF9008A3C8B3D400122753CFF753DFF22759171
:100D090000C3E4954CF594E4954DF595759104D29D
:100D190058227F01789CE61460027F02305802A1B4
:100D290025B107DFF7227892E6FF7E14A83DC3E8D4
:100D3900940440027804C3E833F8C3EE98FE3063A4
:100D4900047F037E00A93DA83C7A04C3E913F9E8AE
:100D590013F8DAF7C3E89EF8E99400F94009C3E803
:100D69009402E9940050047802E4F9E9FBE8FAC333
:100D7900E913FDE813FCC3EF9403602EEF20E00DA7
:100D8900E82CF8E93DF9ECFAEDFB020DA0E828F8AA
:100D9900E939F97A02E4FBC3EF9403400D8A4E8BDB
:100DA9004F884A894B8C4C8D4D22884E894F8A4AEF
:100DB9008B4B8C4C8D4D22305802A1C0759100C3CC
:100DC900E4953CF594E4953DF595759104D2582246
:100DD900753F00752000020DE8753F00752040D26F
:100DE900AF053F20580122759D00E53DC313C3138C
:100DF900F8086030306A06C313C313F808C3E894CF
:100E09000A4002780A306D08C3E894044002780465
:100E1900C3E53D9408400D759D02C3E53D9410401E
:100E290003759D03205803D2AF22791E206D0279E4
:100E39000AD2AF0000C2AF205A0A793C206D02796C
:100E4900143066E03063027978C3E58B9940D5E5C3
:100E59009BF45440B52002A1E8D8C9D2AF22C25BA5
:100E6900789CE614600AE53F147005206302D25BA2
:100E790030630B0538205810753800020E91205840
:100E890007158115810217F922759100C3E4954E62
:100E9900F594E4954FF595759104D25822053920BA
:100EA9005B03753900305B2378A3E6FFBF0108D2E5
:100EB9005CC292C296C295B107305802C1C2BF0244
:100EC90008D25CC292C296C295D192305802C1D45E
:100ED90022C2AFC294206A03020EF990034730651B
:100EE9000F207502C297307502C2937406D5E0FDD2
:100EF900207502D293307502D297759F80753E0294
:100F0900021064C2AF206A03020F2E9002FE306500
:100F190017C294207502C297307502C2937406D520
:100F2900E0FD020F319001E1207502C29630750291
:100F3900C292305A06E5256002D295207503759F45
:100F490089307503759F81753E03021064C2AF2015
:100F59007502C293307502C297206A03020F759019
:100F690002BD306507C2947406D5E0FD207502D232
:100F790097307502D293207503759F81307503757B
:100F89009F89753E04021064C2AF206A03020FB341
:100F990090027C306517207502C293307502C297A2
:100FA900C2947406D5E0FD020FB69001CFC2953008
:100FB9005A0EE525600A207502D292307502D29642
:100FC900759F80753E05021064C2AF207502C297F5
:100FD900307502C293206A03020FF990023330651B
:100FE9000F207502C293307502C2977406D5E0FDD1
:100FF900D294207503759F89307503759F81753E5D
:1010090006021064C2AF206A030210379003A030B1
:10101900651F207502C293307502C297207502C2FE
:1010290097307502C2937406D5E0FD02103A90011B
:10103900F3207502C292307502C296305A0EE52528
:10104900600A207502D296307502D2922075037516
:101059009F81307503759F89753E01D2AF789CE6F3
:0F106900C394024007C3E53994035002C25C22CE
:101078009001CDC292C296C295C293C297C294C241
:101088005A22C3E5509535E551953650012278909E
:10109800E6FFC3EF94055018C3EF9404501BC3EF49
:1010A8009403501EC3EF94025021C3EF94015024BF
:1010B800C3E550943CF80210E5C3E5509428F802C3
:1010C80010E5C3E550941AF80210E5C3E5509412F0
:1010D800F80210E5C3E550940AF80210E5E55194CA
:1010E80000F9885089512230580201EF2278807621
:1010F800090876090876040876010876030876FF59
:10110800087609087601087601087601788C760059
:101118000876FF0876FF0876010876050876FF0846
:1011280076030876060876FF0876020876030876BE
:10113800FA087628087628087605087601087602DF
:1011480008760008767D227893E6FF75660975674C
:1011580001C3BF0206756605756701C3BF0306753F
:101168006605756702C3BF0406756605756703C320
:10117800BF0506756609756707C3BF06067566006D
:101188007567007887E6FFC26CC3BF0302D26CC2E2
:101198006BC3BF0402D26BC26A7418552D6002D2A9
:1011A8006AC2656002D265D2666002C2667888E665
:1011B800C394036008C275E630E102D275C276783E
:1011C80089E630E102D276C3EF94026008758E0199
:1011D800D26D0211E2758E00C26D227880E61490FD
:1011E800008093789FF67881E6149000809378A029
:1011F800F6117822789BE61490008D9378A1F61169
:1012080078227886E61490009A9378A2F6117822CC
:10121800789CE6149000A79378A3F6117822227898
:1012280096E6FA7897E6FB3077047A007BFFC3EB03
:101238009AFCC3948250027C82756E00056EEC8520
:101248006EF0A4C3E5F0948040F222E5EF20E603B7
:101258007520000520903FFFE520146006901FFFD1
:101268001460009304600375EF12C2D353D9BF759D
:1012780081C043FF801207D375EF0243B203E5B381
:1012880024044002F5B311787580FF75A40075F148
:10129800F075D4DF75900275A5FC75F2FD75D50261
:1012A80075A61075A0FF75F3F175E241E4F8F6D85C
:1012B800FD11F5121871314F31E331FC510A511803
:1012C800512651277898866F11787588507589024C
:1012D80075C82475910475D840C2AF1207EC12077F
:1012E800FC1207E21208031207E212080A1207E2C8
:1012F800121CB81207EC1207EC1207E775A8227542
:10130800B80275E690759B80759D0375D10E75BC06
:101318005875BB0975BA1175E8801207D3D2AF1298
:101328000AB443DA01C2D8C2691207EC753001D297
:10133800597A05E55870027A051207D8E559C39419
:101348000240EEE52E541F855B5AF55BB55AE2DA8A
:10135800E2C25953DACF20760343DA2030760343CA
:10136800DA10C2D8C2691207E71207D87802741FC8
:10137800552E70027800C3E5599840EDC2AF1207A8
:10138800FC1207FC1207FCD2AF1207EC7548007874
:1013980088E6B4030281721207D8788CE6C39401F8
:1013A8005003021472E530C394015003021472749E
:1013B8001F552E6035C3E55994FF5003021472C2BD
:1013C800AF120811D2AF1207E7C3E559940150EFE5
:1013D800C2AF1207FC1207DD1207FCD2AF1207E7F3
:1013E800C3E55994FF40E9021D3D7F05D277512797
:1013F8001207E7C2AFC2775127AE59C3E559947FA8
:10140800D2AF40701207D3C2AF120811D2AFDFDCDF
:10141800C3EE94057897F61207EC121871121CC0E7
:101428007F0AD27751271207E7C2AFC2775127AE9A
:1014380059C3E559947FD2AF50E61207D3C2AF1211
:1014480007FC1207DD1207FCD2AFDFD6EE240578C1
:1014580096F61207EC121871121CEF1207E75127C3
:0F146800C3E55994FF40F4021D3DC3E559954873
:1014770040038559481207E7C3E5599401400261C3
:1014870097C2AF120811120811120811D2AF120732
:10149700EC753000E4F531F5320531E531F470399A
:1014A7000532789AE67819146012783214600D784C
:1014B7007D14600878FA146003753200C3E532982A
:1014C700401715327531B47899866FC2AF1208117B
:1014D700D2AF7898866F1207E71207DDE528700804
:1014E700741F552E70026137C3E559940640AA78D8
:1014F70088E6C3940360031207E7E5287003021325
:1015070037C2AF1178E4F522F523F524F525D2AFDC
:1015170078858661F540F541F542F543F544F56C6C
:10152700F549F52BF52CF539120C32756C0875BB9E
:10153700101207D3120B4FE5E820ECFBA8BDA9BE9C
:10154700E97001F8886D120B53756C0875BB10783C
:1015570095E630E0030215A07887E6FE7602314F64
:101567007887EEF6D261C2AF755EFF120C02852254
:101577005E85225FD2AFC261752501855D647565A1
:1015870001D260D263753800120FD2110D120CAC64
:10159700120C32120D2F0216C87887E6FE760378F2
:1015A70093E6FD7605314F7887EEF67893EDF6D220
:1015B70060D261D265120FD2110D755EFF120C0257
:1015C7001207D3120EDA1207D31207D3120F0C1217
:1015D70007D8120F561207D81207D8120F91120701
:1015E700DD120FD21207D81207D3C261D262120BD3
:1015F7004F120B53120C02756C0875BB10110D12AC
:101607000CA5120D2F118A11EF120EDA120CA5126A
:101617000D2F118A11EF120F0C120CA5120D2F119D
:101627008A11EF120F56120CA5120D2F118A11EF06
:10163700120F91120CA5120D2F118A11EF120FD252
:10164700120CA5120D2F118AC3E5509535E551955A
:1016570036400C11EFC3E559940150920217F91166
:10166700EFC2627887E6FE7602314F7887EEF6851D
:10167700225E85605F856025855D64756501D2633F
:10168700753800C2AF207502C293307502C2972029
:101697007502C297307502C293742DD5E0FDD2AFA3
:1016A700110D120CAC120D1B120D2F120DC0756C03
:1016B7000075BB090216C8314F110D756C0075BB5B
:1016C70009120DE2120E67120E921208FB120EA6F5
:1016D700120EDA120CAC120D1B120D2F120DC012C6
:1016E7000DD9120E67120E92120958120EA6120F7A
:1016F7000C120CAC120D1B120D2F120DC0120DE2A5
:10170700120E67120E92120991120EA6120F56129E
:101717000CAC120D1B120D2F120DC0120DD9120E8B
:1017270067120E921209EE120EA6120F91120CAC4E
:10173700120D1B120D2F120DC0120DE2120E6712A1
:101747000E92120A52120EA6120FD2120CAC120DE2
:101757001B120D2F120DC0120DD9120B4F120E674F
:10176700120E92120B53120EA6110D120CAC120D83
:101777001B120D2F120DC030634285605E85605FBE
:10178700855D6475650179647A147888E6B4030425
:10179700791E7A05C3E538994015C263D2648A3742
:1017A7007888E6B40306755EFF755FFF0217C3C34B
:1017B700E559940140030216C80217F9306419E588
:1017C70037147005C2640216BEF537C3E559940194
:1017D70040030216C80217F9C3E55C94FA50137464
:1017E7001F552E7004E5286009C3E53D94F05002AB
:1017F700C1C8C2AF11787887E6FE760212114F781A
:1018070087EEF6E4F522F523F524F525F561C260A8
:10181700D2AF1207D3121078741F552E7007E52820
:10182700700302133702149B901A0D7820121C00C4
:10183700E520B4550CA3121C00E520B4AA03021836
:10184700511210F5121871021870901A0378807BE4
:101857000A121C00A308DBF9901A0F788C7B13126D
:0F1867001C00A308DBF9901A2222C2AF121C3F0B
:10187600121C19901A00740B121C05A37402121C78
:1018860005A37411121C05901A0378807B0A121C9A
:1018960004A308DBF9901A0F788C7B13121C04A39F
:0D18A60008DBF9121C52121C30901A22228D
:101A00000B02110909040103FF0901010155AA0094
:101A1000FFFF0105FF0306FF0203FA282805010264
:031A2000007DFF47
:101A400023506C6174696E756D50726F3330412331
:101A500023424C48454C492346333930232020202B
:101A60006F72672E736B797075702E6573632E625B
:101C0000E493F622E6438F01538FFD75EF0275B71B
:101C1000A575B7F1F0538FFE22438F02438F0175F4
:101C2000EF0275B7A575B7F1901A0DF0538FFC222E
:101C3000901A0D74559105901A0E74AA9105227A86
:101C40003079D07820901A409100E520F709A3DA86
:101C5000F7227A3079D0901A40E7910509A3DAF992
:101C600022AB70A871BB01027980BB02027981BBF3
:101C700003027982BB04027984BB05027983BB0627
:101C8000027995BB07027986BB0802798FBB0902EE
:101C90007990BB0A027992BB0B02799BBB0C02794B
:101CA00093BB0D027987BB0E02799CBB0F0279882A
:101CB000BB10027989E8F7227C051207ECDCFB22D5
:101CC000C2AF1207FC12080312080A120811120709
:101CD000DD1207FC12080312080A1208111207DDB0
:101CE0001207FC12080312080A120811D2AF22C20E
:101CF000AF12081112080A1208031207FC1207DDBE
:101D000012081112080A1208031207FC1207DD124A
:101D1000081112080A1208031207FCD2AF22AE7093
:101D2000AF71C2AF1207FC1207FC1207FC1207DDED
:101D3000DEF21208111207DDDFF8D2AF2291C09156
:101D4000B891B8757001757101757200B11E7C058E
:101D5000AD591207ECC3ED955970F5C3E5599401DF
:101D60004009C3E55994FF4032A17991611218717D
:101D700091C0C2AF75EF1291B8DCD50572C3E572A0
:101D80009403500280C691B80571E570149000AAC2
:101D900093F808C3E57198500280AE91B891B805E8
:101DA00070C3E57094115002809C1210F5121871E6
:071DB000C2AF75EF1291B8FC
:00000001FF
