:0300000002126B7E
:03000B000200BA36
:03002B000203E7E6
:03005B0002054655
:0300730002053C47
:1000800002030406080C10182030406080020304AC
:1000900006080C101820304080FF0406080C1018C9
:1000A0002030406080A0C00002010D0D0405060252
:1000B0000D0505050D0604050302C2AFC0D0C0E062
:1000C000205A1030600A205C07302F02E47380FC55
:1000D0000203D3306306C292C296C29585258AC2B6
:1000E0005AE525F4700221C60563306013206A19B1
:1000F000758B00D0E0D0D0C292C296C295D2AF32FA
:10010000C292C296C2950201B6D265C266E5676028
:100110001CC3E5631495674014C265D266C3E563EA
:10012000956650030201B67563000201B6206C1497
:10013000C292C296C2957406D5E0FDD293D297D2F0
:10014000940201B6D266C292C296C295E53E20E202
:100150003420E1127406D5E0FD207502D297307587
:1001600002D2930201B620E0127406D5E0FD20759C
:1001700002D297307502D2930201B67406D5E0FD23
:10018000D2940201B620E11F20E00A7406D5E0FDFA
:10019000D2940201B67406D5E0FD207502D29330E8
:1001A0007502D2970201B67406D5E0FD207502D221
:1001B00093307502D297758B00D0E0D0D0C292C236
:1001C00096C295D2AF32D0E0D0D0D2AF3261D3E573
:1001D00025600A207502D292307502D296C29561CE
:1001E000D3E5256002D295207502C296307502C211
:1001F0009261D3E525600A207502D296307502D24D
:1002000092207502C292307502C29661D3207502A7
:10021000C293307502C297E525600A207502D2921A
:10022000307502D296207502C297307502C293C211
:100230009561D3207502C293307502C29720750272
:10024000C297307502C2937406D5E0FDE525600AB9
:10025000207502D292307502D296C29561D3207574
:1002600002C293307502C297E525600A207502D25A
:1002700092307502D296C294C29561D3207502C2A3
:1002800093307502C297C2947406D5E0FDE52560EF
:100290000A207502D292307502D296C29561D3C2FD
:1002A00094E5256002D295207502C293307502C292
:1002B00097207502C296307502C29261D3C2942013
:1002C0007502C293307502C2977406D5E0FDE5252C
:1002D0006002D295207502C296307502C29261D337
:1002E000C294E5256002D295207502C2973075024E
:1002F000C293207502C296307502C29261D3C29435
:10030000207502C297307502C2937406D5E0FDE5F0
:10031000256002D295207502C296307502C29261A4
:10032000D3207502C297307502C293E525600A207A
:100330007502D296307502D292C294207502C29292
:10034000307502C29661D3207502C297307502C221
:1003500093C2947406D5E0FDE525600A207502D2AB
:1003600096307502D292207502C292307502C29602
:1003700061D3207502C297307502C293E525600AE9
:10038000207502D296307502D292207502C2933047
:100390007502C297207502C292307502C29661D36F
:1003A000207502C297307502C293207502C2933045
:1003B0007502C2977406D5E0FDE525600A20750236
:1003C000D296307502D292207502C292307502C266
:1003D0009661D3E525F4F58A758B00756200D25AD3
:1003E000D0E0D0D0D2AF32C2AFC2AD53E6EFC0D072
:1003F000C0E0D2D3D2AFC2CEE528600A741F552E1A
:1004000060491528814B78007900E580307601F449
:1004100030E50278FF53DACF20760343DA203076D6
:100420000343DA10C2D8C269E580307601F430E5C2
:100430000279FFC3E89970CE305903752818741FEC
:10044000552E60037528188859D268E5296004156F
:1004500029815E741F552E600543DA01C2D82068D9
:100460000281E7E559F8C268741F552E603679821B
:0E047000B70431C3E894F0400374F0F8E8C418
:10047E00540F28F87984B7030281A4C313C31387DA
:10048E0021200802C313200A06C3C898F881A428A5
:10049E00F8500374FFF8E52C5406703D8822306343
:1004AE000AC3E522955E4003855E227882B6042952
:1004BE00C3E5229524401278A196400DE52426F539
:1004CE002450097524FF0204DA852224A824C3E5EA
:1004DE0024955E4002A85E882520CF0CD0E0D0D0B7
:1004EE00C2D343E610D2AD32C2CF7801E528600800
:1004FE00741F552E70021528C3E5599401400575D9
:10050E005C00A123755D00756400E55C2401F55C5B
:10051E005003755CFFE55F240A5005755FFFA1303F
:10052E00F55FD0E0D0D0C2D343E610D2AD32C2AF29
:10053E0053917FC258D2AF32C2AF53E6EFC2ADC0B5
:10054E00D0C0E0C0F0D2D3D2AFA8FBA9FCC2D83045
:10055E006902A1B153DACF20760343DA1030760365
:10056E0043DA20D269E580307601F420E502A185D8
:10057E00882689270207D153DACF20760343DA2063
:10058E0030760343DA10C2D8C269741F552E70023A
:10059E00E1B77800E580307601F430E502E1B78806
:1005AE0059E18653DACF20760343DA2030760343BF
:1005BE00DA10C269205902C16B53DACF2076034399
:1005CE00DA1030760343DA20C2D8D26988548955BE
:1005DE00C3E89552F8E99553F9E4FB7AFAC3E89427
:1005EE00C8E994005008E4D2E4FB7A0AC13EC3E89D
:1005FE009468E994015008E4D2E3FB7A0FC13EC33C
:10060E00E894D0E994025008E4D2E2FB7A1EC13E8F
:10061E00C3E894A0E994055008E4D2E1FB7A3CC10A
:10062E003EC3E89498E994085006E4D2E0FB7A7849
:10063E00C3E89556FCE99557FD30E708ECF4240124
:10064E00FCEDF4FD7558007008C3EC9A5003755814
:10065E000188568957A854A95588528953C3E895DD
:10066E0026F8E99527F9307402E16A307302E16ADF
:10067E00307202E163E9C313F9E813F8307102E155
:10068E0063E9C313F9E813F8307002E163E9C313A9
:10069E00FDE813FC205918C3EC941CED94024003A2
:1006AE000207B7ED7009C3EC94C850030207B77484
:1006BE000020770B7888E67896B40302789EE624BD
:1006CE00FAFEE43400FFC3EC9EFCED9FFD92087829
:1006DE0088E6B40322A208500920751BC2AFD2755A
:1006EE00C1F7307512C2AFC275C292C296C295C220
:1006FE0093C297C294D2AFA2085017E6B4030DEC82
:10070E00F42401FCEDF43400FD020720780079009A
:10071E00E16A7888E6B40315EC33FCED33FDC3ECE7
:10072E009405FCED9400FD50047C007D00C3EC9418
:10073E00FFED9400400678FF7900E16AEC856EF0DB
:10074E00A4C5F0A2F733F87900400302078678FFBC
:10075E007900020786E9C313F9E813F830740EE93D
:10076E00600278FFC3E81338F8E43400F9C3E89464
:10077E00FFE99400400278FFC3E894A0500278008D
:10078E00C3E89573400E9402400AC3E5732402F841
:10079E00500278FFE559F5738859D268205902E165
:1007AE00B7741FF4552E4BF52E752818741F552E41
:1007BE00700375280A305902E1D1741F552E60035B
:1007CE0053DAFE752906741F552E700375290AD04B
:1007DE00F0D0E0D0D0C2D3D2AD43E61032790102D0
:1007EE0008097903020809790A020809791E020824
:1007FE0009796402080979C80208097817E4D5E076
:10080E00FDD8FAD9F6227A147B780208307A107B5A
:10081E008C0208307A0D7BB40208307A0B7BC8024A
:10082E000830AC257525017902B275E4C294D5E085
:10083E00FDE5256002D295D5E0FDC295D5E0FDD24D
:10084E0094D5E0FDE525600A207502D2923075023E
:10085E00D296E56FD5E0FD207502C292307502C2C8
:0F086E00967496D5E0FDD9C1EAF8D5E0FDD8FB28
:10087D00DBB1C2948C2522C37C007D0075F0000590
:10088D00F0EA33FAEB33FB50F6EB13FBEA13FAC342
:10089D00E9FFE8FEE89AF8E99BF95004EFF9EEF864
:1008AD00B3EC33FCED33FDD5F0DFEDF9ECF822E8D8
:1008BD0089F08A20D2D4F8A9F07B0030F70B7BFFAA
:1008CD00F42401F8E9F43400F9E88520F0A4ADF042
:1008DD00F8E98520F0A4AFF0FEED2EF974003FFA93
:1008ED007C04C3EA13FAE913F9E813F8DCF48BF08E
:1008FD0030F70AE8F42401F8E9F43400F9E889F056
:10090D00C2D4F8A9F0227882B6040302096FC3E5B8
:10091D005994014003020938852224E4F540F5413C
:10092D00F542F543F544F54902096F7882E6FC7509
:10093D004901E522F523783879C7AA3CAB3DC3EBD5
:10094D0013FBEA13FAEC146013C3EB13FBEA13FA6F
:10095D00EC14146007C3EB13FBEA13FA11848840FF
:10096D00894122E5496034C3E5409523F8E541947A
:10097D0000F9500CC3E89480E994FF40160209A4D5
:10098D00C3E8947FE9940050030209A4787F7900AD
:10099D000209A4788079FF8845894622E549605887
:1009AD00E5452542F8E5463543F9854620E430070F
:1009BD0001F43544FA30E709C3EA94F04015020911
:1009CD00E6C3EA940F50030209E678FF79FF7A0F28
:1009DD000209E6780079007AF0C3E524955E5006A9
:1009ED00E524600921FFE54620E70D21FFE54630AE
:1009FD00E706884289438A4422E5497003020A6961
:100A0D00789FE6FAC3E54533F8E54633F911BCE9BD
:100A1D0030E70BC3E89480E994FF40134140C3E8ED
:100A2D00947FE9940050024140787F7900414078ED
:100A3D008079FFE820E715C3E52398F84009C3E85E
:100A4D0094014003020A677801020A67E8F4240161
:100A5D002523F84003020A6778FF884722E549708D
:100A6D0003020ACB78A0E6FAA843A94411BCE930E9
:100A7D00E70CC3E89401E994FF4016020AA2C3E80B
:100A8D0094FFE994005003020AA278FF7900020A4C
:100A9D00A2780179FFE920E715C3E54798F84009E9
:100AAD00C3E894014003020AC97800020AC9E8F4B8
:100ABD0024012547F84003020AC978FF88242278CB
:100ACD0083E6F520120FEA75E8901207EB75E890B2
:100ADD00E5E820ECFBA8BDA9BE121090756A55750E
:100AED006B00C3740013FD745513FC74552CFC740A
:100AFD00003DFDECFAEDFBC3E89AE99B4014E56A75
:100B0D002455F56AE56B3400F56BEA2CFAEB3DFBE9
:100B1D0080E5AE6AAF6BC3E56B13F9E56A13F8C3F5
:100B2D00E913F9E813F8E56A28F568E56B39F56915
:100B3D007A03C3E913F9E813F8DAF7AA201A700952
:100B4D00756A00756B00020B661AEA6008EE28FEE6
:100B5D00EF39FFDAF88E6A8F6B2275E89022788371
:100B6D00E6FFE5E820ECF7A8BDA9BE056CC3E56C72
:100B7D009408404B756C00E97007E56D601B020B26
:100B8D009AC3E8956D6010E56D5006600C14020B6C
:100B9D00A60460F9020BA6E56DF56DC39472401BBA
:100BAD00755EC0C394044013755E80C39404400BFE
:100BBD00755E40C394044003755E0075BB0922EF5A
:100BCD00C39401601BC3E894FFE994035012C3E87A
:100BDD00956AE9956B5009E55E600C155E020BF4A4
:100BED00E55EF46002055EA85EC3E524985002A898
:100BFD0024C3E8955F400AA85FE55FF46003855F55
:100C0D005E8825C3E56CB4070375BB102230610205
:100C1D0078323062027878E52C5406601FE879A2AC
:100C2D0087F0A4C5F0A2F733F8C3E8955E4002A89B
:100C3D005E882288248825306102886022788FE6BC
:100C4D00FFC3EF94055018C3EF94045020C3EF94E5
:100C5D00035028C3EF94025030C3EF940150387500
:0D0C6D0033A075340F75353C75360581B028
:100C7A007533C075341275354075360681B07533D3
:100C8A00707534177535D075360781B075334C7564
:100C9A00341D7535C475360981B07533287534230A
:100CAA007535B875360B853350853451753C0075EA
:100CBA003D0822A850A951020CC8A84AA94B75910F
:100CCA0000C3E498F594E499F595759104D25875A2
:100CDA00C820A8CCA9CD75C824AA3AAB3B883A89C2
:100CEA003BC3E89AF8E99BF9AA3CAB3DC3EB13FD79
:100CFA00EA13FCC3ED13FDEC13FCC3EA9CFAEB9D6B
:100D0A00FBEA28FAEB39FB8A3C8B3D400122753C11
:100D1A00FF753DFF22759100C3E4954CF594E49567
:100D2A004DF595759104D258227F01789CE614609E
:100D3A00027F02305802A13DB11FDFF7227892E606
:100D4A00FF7E14A83DC3E8940440027804C3E83344
:100D5A00F8C3EE98FE3063047F037E00A93DA83CE9
:100D6A007A04C3E913F9E813F8DAF7C3E89EF8E955
:100D7A009400F94009C3E89402E994005004780207
:100D8A00E4F9E9FBE8FAC3E913FDE813FCC3EF94BD
:100D9A0003602EEF20E00DE82CF8E93DF9ECFAEDBE
:100DAA00FB020DB8E828F8E939F97A02E4FBC3EF47
:100DBA009403400D8A4E8B4F884A894B8C4C8D4D3B
:100DCA0022884E894F8A4A8B4B8C4C8D4D22305843
:100DDA0002A1D8759100C3E4953CF594E4953DF5DC
:100DEA0095759104D25822753F00752000020E00B5
:100DFA00753F00752040D2AF053F20580122759DEE
:100E0A0000E53DC313C313F8086030306A06C31304
:100E1A00C313F808C3E8940A4002780A306D08C37D
:100E2A00E8940440027804C3E53D9408400D759D9A
:100E3A0002C3E53D94104003759D03205803D2AFC9
:100E4A0022791E206D02790AD2AF0000C2AF205A61
:100E5A000A793C206D0279143066E03063027978B1
:100E6A00C3E58B9940D5E59BF45440B52002C100F7
:100E7A00D8C9D2AF22C25B789CE614600AE53F1457
:100E8A007005206302D25B30630B05382058107559
:100E9A003800020EA9205807158115810218302240
:100EAA00759100C3E4954EF594E4954FF5957591C7
:100EBA0004D258220539205B03753900305B237848
:100ECA00A3E6FFBF0108D25CC292C296C295B11FC7
:100EDA00305802C1DABF0208D25CC292C296C295E9
:100EEA00D1AA305802C1EC22C2AFC294206A0302CE
:100EFA000F1190034730650F207502C297307502B3
:100F0A00C2937406D5E0FD207502D293307502D2E1
:100F1A0097759F80753E0202107CC2AF206A030259
:100F2A000F469002FE306517C294207502C29730B0
:100F3A007502C2937406D5E0FD020F499001E120C3
:100F4A007502C296307502C292305A06E5256002D1
:100F5A00D295207503759F89307503759F81753EFB
:100F6A000302107CC2AF207502C293307502C29789
:100F7A00206A03020F8D9002BD306507C294740681
:100F8A00D5E0FD207502D297307502D29320750301
:100F9A00759F81307503759F89753E0402107CC266
:100FAA00AF206A03020FCB90027C306517207502CE
:100FBA00C293307502C297C2947406D5E0FD020F3F
:100FCA00CE9001CFC295305A0EE525600A207502EF
:100FDA00D292307502D296759F80753E0502107CBA
:100FEA00C2AF207502C297307502C293206A03020B
:100FFA00101190023330650F207502C293307502CA
:10100A00C2977406D5E0FDD294207503759F893086
:10101A007503759F81753E0602107CC2AF206A0374
:10102A0002104F9003A030651F207502C2933075DD
:10103A0002C297207502C297307502C2937406D510
:10104A00E0FD0210529001F3207502C2923075023F
:10105A00C296305A0EE525600A207502D29630757E
:0F106A0002D292207503759F81307503759F899F
:10107900753E01D2AF789CE6C394024007C3E539B7
:1010890094035002C25C229001CDC292C296C295CD
:10109900C293C297C294C25A22C3E5509535E5510D
:1010A90095365001227890E6FFC3EF94055018C396
:1010B900EF9404501BC3EF9403501EC3EF940250E6
:1010C90021C3EF94015024C3E550943CF80210FD6C
:1010D900C3E5509428F80210FDC3E550941AF802AC
:1010E90010FDC3E5509412F80210FDC3E550940AAF
:1010F900F80210FDE5519400F988508951223058C1
:10110900022107227880760908760908760408768C
:10111900010876030876FF08760908760108760142
:10112900087601788C76010876FF0876FF08760143
:101139000876050876FF0876030876060876FF081C
:1011490076020876250876D008762808765008763B
:101159000408760D08760208760008767A227893D4
:10116900E6FF756609756701C3BF020675660575F1
:101179006701C3BF0306756605756702C3BF040629
:10118900756605756703C3BF050675660975670743
:10119900C3BF06067566007567007887E6FFC26CEF
:1011A900C3BF0302D26CC26BC3BF0402D26BC26A53
:1011B9007418552D6002D26AC2656002D265D26682
:1011C9006002C2667888E6C394036008C275E63097
:1011D900E102D275C2767889E630E102D276C3EFB0
:1011E90094026008758E01D26D0211FA758E00C2E3
:1011F9006D227880E61490008093789FF67881E6D6
:10120900149000809378A0F6119022789BE61490B0
:10121900008D9378A1F61190227886E61490009AB1
:101229009378A2F6119022789CE6149000A79378FF
:10123900A3F6119022227896E6FA7897E6FB3077A2
:10124900047A007BFFC3EB9AFCC3948250027C8230
:10125900756E00056EEC856EF0A4C3E5F0948040D0
:10126900F222E5EF20E6037520000520903FFFE517
:1012790020146006901FFF1460009304600375EF4B
:1012890012C2D353D9BF7581C043FF801207EB75D2
:10129900EF0243B203E5B324044002F5B31190759C
:1012A90080FF75A40075F1F075D4DF75900275A5FE
:1012B900FC75F2FD75D50275A61075A0FF75F3F1E1
:1012C90075E241E4F8F6D8FD310D1218A9316731FC
:1012D900FB511451225130513E513F7898866F117C
:1012E9009075885075890275C82475910475D84020
:1012F900C2AF1208041208141207FA12081B1207C7
:10130900FA1208221207FA121CB812080412080469
:101319001207FF75A82275B80275E690759B80754E
:101329009D0375D10E75BC5875BB0975BA1175E861
:10133900801207EBD2AF120ACC43DA01C2D8C269D4
:10134900120804753001D2597A05E55870027A05F8
:101359001207F0E559C3940240EEE52E541F855B50
:101369005AF55BB55AE2DAE2C25953DACF2076036D
:1013790043DA2030760343DA10C2D8C2691207FF74
:101389001207F07802741F552E70027800C3E559D0
:101399009840EDC2AF1208141207FA120814120786
:1013A900FA12081B1207FA12081B1207FAD2AF1217
:1013B90008047548007888E6B4030281991207F099
:1013C900788CE6C394015003021499E530C3940163
:1013D9005003021499741F552E6035C3E55994FFC3
:1013E9005003021499C2AF120829D2AF1207FFC3E2
:1013F900E559940150EFC2AF1208141207F512080B
:1014090014D2AF1207FFC3E55994FF40E9021D1F2B
:101419007F05D277513F1207FFC2AFC277513FAE66
:1014290059C3E559947FD2AF40701207EBC2AF128E
:101439000829D2AFDFDCC3EE94057897F6120804C9
:101449001218A9121CC07F0AD277513F1207FFC296
:10145900AFC277513FAE59C3E559947FD2AF50E639
:0E1469001207EBC2AF1208141207F512081496
:10147700D2AFDFD6EE24057896F61208041218A923
:10148700121CE01207FF513FC3E55994FF40F402D5
:101497001D1FC3E559954840038559481207FFC3E7
:1014A700E5599401400261BEC2AF1208291207FA3A
:1014B7001208291207FA1208221207FA1208221232
:1014C70007FAD2AF120804753000E4F531F532059A
:1014D70031E531F470390532789AE67819146012DB
:1014E700783214600D787D14600878FA14600375FB
:1014F7003200C3E53298401715327531B4789986B2
:101507006FC2AF120829D2AF7898866F1207FF1201
:1015170007F5E5287008741F552E7002614FC3E563
:1015270059940640AA7888E6C3940360031207FF1C
:10153700E528700302134FC2AF1190E4F522F5239B
:10154700F524F525D2AF78858661F540F541F5425A
:10155700F543F544F56CF549F52BF52CF539120CE7
:101567004A756C0875BB101207EB120B67E5E8208C
:10157700ECFBA8BDA9BEE97001F8886D120B6B756D
:101587006C0875BB107895E630E0030215D67887AE
:10159700E6FE760231677887EEF6D261C2AF755EF6
:1015A700FF120C1A85225E85225FD2AFC2617525B4
:1015B70001855D64756501D260D263753800120FCD
:1015C700EA1125120CC4120C4A120D470216FE78B6
:1015D70087E6FE76037893E6FD760531677887EE32
:1015E700F67893EDF6D260D261D265120FEA112533
:1015F700755EFF120C1A1207EB120EF21207EB12AE
:1016070007EB120F241207F0120F6E1207F01207E2
:10161700F0120FA91207F5120FEA1207F01207EBE3
:10162700C261D262120B67120B6B120C1A756C082F
:1016370075BB101125120CBD120D4711A2310712EF
:101647000EF2120CBD120D4711A23107120F241210
:101657000CBD120D4711A23107120F6E120CBD12ED
:101667000D4711A23107120FA9120CBD120D471118
:10167700A23107120FEA120CBD120D4711A2C3E5E2
:10168700509535E5519536400C3107C3E55994011E
:1016970050920218303107C2627887E6FE7602312F
:1016A700677887EEF685225E85605F856025855DB4
:1016B70064756501D263753800C2AF207502C293A5
:1016C700307502C297207502C297307502C29374B3
:1016D7002DD5E0FDD2AF1125120CC4120D33120D1A
:1016E70047120DD8756C0075BB090216FE316711DC
:1016F70025756C0075BB09120DFA120E7F120EAA22
:10170700120913120EBE120EF2120CC4120D33126E
:101717000D47120DD8120DF1120E7F120EAA1209E3
:1017270070120EBE120F24120CC4120D33120D4785
:10173700120DD8120DFA120E7F120EAA1209A91253
:101747000EBE120F6E120CC4120D33120D47120D7E
:10175700D8120DF1120E7F120EAA120A06120EBE31
:10176700120FA9120CC4120D33120D47120DD81205
:101777000DFA120E7F120EAA120A6A120EBE120F6D
:10178700EA120CC4120D33120D47120DD8120DF1C7
:10179700120B67120E7F120EAA120B6B120EBE11DE
:1017A70025120CC4120D33120D47120DD8306342A7
:1017B70085605E85605F855D6475650179647A140F
:1017C7007888E6B40304791E7A05C3E5389940158D
:1017D700C263D2648A377888E6B40306755EFF75FC
:1017E7005FFF0217F9C3E559940140030216FE0291
:1017F7001830306419E537147005C2640216F4F521
:1018070037C3E559940140030216FE021830C3E5B9
:101817005C94FA5014741F552E7004E528600AC3AF
:10182700E53D94F050030216FEC2AF121090788780
:10183700E6FE76021211677887EEF6E4F522F523C5
:10184700F524F525F561C260D2AF1207EB121090AF
:10185700741F552E7007E528700302134F0214D129
:0E186700901A0D7820121C00E520B4550CA339
:10187500121C00E520B4AA0302188912110D1218D2
:10188500A90218A8901A0378807B0A121C00A308E5
:10189500DBF9901A0F788C7B13121C00A308DBF977
:1018A500901A2222C2AF121C3F121C19901A007402
:1018B5000B121C05A37402121C05A37411121C053E
:1018C500901A0378807B0A121C04A308DBF9901A8E
:1018D5000F788C7B13121C04A308DBF9121C52121F
:0618E5001C30901A2222C3
:101A00000B02110909040103FF0901010155AA0193
:101A1000FFFF0105FF0306FF0225D02850040D0239
:031A2000007AFF4A
:101A400023506C6174696E756D50726F3330412331
:101A500023424C48454C492346333930232020202B
:101A60006F72672E736B797075702E6573632E625B
:101C0000E493F622E6438F01538FFD75EF0275B71B
:101C1000A575B7F1F0538FFE22438F02438F0175F4
:101C2000EF0275B7A575B7F1901A0DF0538FFC222E
:101C3000901A0D74559105901A0E74AA9105227A86
:101C40003079D07820901A409100E520F709A3DA86
:101C5000F7227A3079D0901A40E7910509A3DAF992
:101C600022AB70A871BB01027980BB02027981BBF3
:101C700003027982BB04027984BB05027983BB0627
:101C8000027995BB07027986BB0802798FBB0902EE
:101C90007990BB0A027992BB0B02799BBB0C02794B
:101CA00093BB0D027987BB0E02799CBB0F0279882A
:101CB000BB10027989E8F7227C05120804DCFB22BC
:101CC000C2AF12081412081B1208221208291207A8
:101CD000F512081412081B120822120829D2AF228A
:101CE000C2AF12082912082212081B120814120788
:101CF000F512082912082212081B120814D2AF226A
:101D0000AE70AF71C2AF1208141208141208141288
:101D100007F5DEF21208291207F5DFF8D2AF22919B
:101D2000C091B891B8757001757101757200B100FC
:101D30007C05AD59120804C3ED955970F5C3E559FA
:101D400094014009C3E55994FF4032A15B916112AF
:101D500018A991C0C2AF75EF1291B8DCD50572C356
:101D6000E5729403500280C691B80571E570149035
:101D700000AA93F808C3E57198500280AE91B8911B
:101D8000B80570C3E57094115002809C12110D12B9
:091D900018A9C2AF75EF1291B859
:00000001FF
