:030000000212A742
:03000B000200BA36
:03002B000203E7E6
:03005B0002054655
:0300730002053C47
:1000800002030406080C10182030406080020304AC
:1000900006080C101820304080FF0406080C1018C9
:1000A0002030406080A0C00002010D0D0405060252
:1000B0000D0505050D0604050302C2AFC0D0C0E062
:1000C000205A1030600A205C07302F02E47380FC55
:1000D0000203D3306306C292C296C29585258AC2B6
:1000E0005AE525F4700221C60563306013206A19B1
:1000F000758B00D0E0D0D0C292C296C295D2AF32FA
:10010000C292C296C2950201B6D265C266E5676028
:100110001CC3E5631495674014C265D266C3E563EA
:10012000956650030201B67563000201B6206C1497
:10013000C292C296C2957406D5E0FDD293D297D2F0
:10014000940201B6D266C292C296C295E53E20E202
:100150003420E1127406D5E0FD207502D297307587
:1001600002D2930201B620E0127406D5E0FD20759C
:1001700002D297307502D2930201B67406D5E0FD23
:10018000D2940201B620E11F20E00A7406D5E0FDFA
:10019000D2940201B67406D5E0FD207502D29330E8
:1001A0007502D2970201B67406D5E0FD207502D221
:1001B00093307502D297758B00D0E0D0D0C292C236
:1001C00096C295D2AF32D0E0D0D0D2AF3261D3E573
:1001D00025600A207502D292307502D296C29561CE
:1001E000D3E5256002D295207502C296307502C211
:1001F0009261D3E525600A207502D296307502D24D
:1002000092207502C292307502C29661D3207502A7
:10021000C293307502C297E525600A207502D2921A
:10022000307502D296207502C297307502C293C211
:100230009561D3207502C293307502C29720750272
:10024000C297307502C2937406D5E0FDE525600AB9
:10025000207502D292307502D296C29561D3207574
:1002600002C293307502C297E525600A207502D25A
:1002700092307502D296C294C29561D3207502C2A3
:1002800093307502C297C2947406D5E0FDE52560EF
:100290000A207502D292307502D296C29561D3C2FD
:1002A00094E5256002D295207502C293307502C292
:1002B00097207502C296307502C29261D3C2942013
:1002C0007502C293307502C2977406D5E0FDE5252C
:1002D0006002D295207502C296307502C29261D337
:1002E000C294E5256002D295207502C2973075024E
:1002F000C293207502C296307502C29261D3C29435
:10030000207502C297307502C2937406D5E0FDE5F0
:10031000256002D295207502C296307502C29261A4
:10032000D3207502C297307502C293E525600A207A
:100330007502D296307502D292C294207502C29292
:10034000307502C29661D3207502C297307502C221
:1003500093C2947406D5E0FDE525600A207502D2AB
:1003600096307502D292207502C292307502C29602
:1003700061D3207502C297307502C293E525600AE9
:10038000207502D296307502D292207502C2933047
:100390007502C297207502C292307502C29661D36F
:1003A000207502C297307502C293207502C2933045
:1003B0007502C2977406D5E0FDE525600A20750236
:1003C000D296307502D292207502C292307502C266
:1003D0009661D3E525F4F58A758B00756200D25AD3
:1003E000D0E0D0D0D2AF32C2AFC2AD53E6EFC0D072
:1003F000C0E0D2D3D2AFC2CEE528600A741F552E1A
:1004000060491528814B78007900E580307601F449
:1004100030E50278FF53DACF20760343DA203076D6
:100420000343DA10C2D8C269E580307601F430E5C2
:100430000279FFC3E89970CE305903752818741FEC
:10044000552E60037528188859D268E5296004156F
:1004500029815E741F552E600543DA01C2D82068D9
:100460000281E7E559F8C268741F552E603679821B
:0E047000B70431C3E894F0400374F0F8E8C418
:10047E00540F28F87984B7030281A4C313C31387DA
:10048E0021200802C313200A06C3C898F881A428A5
:10049E00F8500374FFF8E52C5406703D8822306343
:1004AE000AC3E522955E4003855E227882B6042952
:1004BE00C3E5229524401278A196400DE52426F539
:1004CE002450097524FF0204DA852224A824C3E5EA
:1004DE0024955E4002A85E882520CF0CD0E0D0D0B7
:1004EE00C2D343E610D2AD32C2CF7801E528600800
:1004FE00741F552E70021528C3E5599401400575D9
:10050E005C00A123755D00756400E55C2401F55C5B
:10051E005003755CFFE55F240A5005755FFFA1303F
:10052E00F55FD0E0D0D0C2D343E610D2AD32C2AF29
:10053E0053917FC258D2AF32C2AF53E6EFC2ADC0B5
:10054E00D0C0E0C0F0D2D3D2AFA8FBA9FCC2D83045
:10055E006902A1B153DACF20760343DA1030760365
:10056E0043DA20D269E580307601F420E502A185D8
:10057E00882689270207FB53DACF20760343DA2039
:10058E0030760343DA10C2D8C269741F552E70023A
:10059E00E1E17800E580307601F430E502E1E188B2
:1005AE0059E18653DACF20760343DA2030760343BF
:1005BE00DA10C269205902C16B53DACF2076034399
:1005CE00DA1030760343DA20C2D8D26988548955BE
:1005DE00C3E89552F8E99553F9E4FB7AFAC3E89427
:1005EE00C8E994005008E4D2E4FB7A0AC13EC3E89D
:1005FE009468E994015008E4D2E3FB7A0FC13EC33C
:10060E00E894D0E994025008E4D2E2FB7A1EC13E8F
:10061E00C3E894A0E994055008E4D2E1FB7A3CC10A
:10062E003EC3E89498E994085006E4D2E0FB7A7849
:10063E00C3E89556FCE99557FD30E708ECF4240124
:10064E00FCEDF4FD7558007008C3EC9A5003755814
:10065E000188568957A854A95588528953C3E895DD
:10066E0026F8E99527F9307402E16A307302E16ADF
:10067E00307202E163E9C313F9E813F8307102E155
:10068E0063E9C313F9E813F8307002E163E9C313A9
:10069E00FDE813FC205918C3EC941CED94024003A2
:1006AE000207E1ED7009C3EC94C850030207E17430
:1006BE000020770B7888E67896B40302789EE624BD
:1006CE00FAFEE43400FFC3EC9EFCED9FFD92087829
:1006DE0088E6B40322A208500920751BC2AFD2755A
:1006EE00C1F7307512C2AFC275C292C296C295C220
:1006FE0093C297C294D2AFA2085017E6B4030DEC82
:10070E00F42401FCEDF43400FD020720780079009A
:10071E00E16A7888E6B40315EC33FCED33FDC3ECE7
:10072E009405FCED9400FD50047C007D00C3EC9418
:10073E00FFED9400400678FF7900E16AEC856EF0DB
:10074E00A4C5F0A2F733F87900400302078678FFBC
:10075E007900020786E9C313F9E813F830740EE93D
:10076E00600278FFC3E81338F8E43400F9C3E89464
:10077E00FFE99400400278FFC3E894A0500578008A
:10078E0002079378018875A873B8010778FF885916
:10079E000207CEA878B8100778FF88590207CEA8AE
:1007AE0078B82007787F88590207CE78008859A834
:1007BE0030B8000CA875B80107781088780207CEFB
:1007CE00E559F574D268205902E1E1741FF4552EF3
:1007DE004BF52E752818741F552E700375280A3088
:1007EE005902E1FB741F552E600353DAFE7529067C
:1007FE00741F552E700375290AD0F0D0E0D0D0C2E8
:10080E00D3D2AD43E61032790102083379030208E0
:10081E0033790A020833791E0208337964020833E9
:10082E0079C80208337817E4D5E0FDD8FAD9F62254
:10083E007C05112EDCFC227A147B780208617A107A
:10084E007B8C0208617A0D7BB40208617A0B7BC83F
:10085E00020861AC257525017902B275E4C294D502
:0D086E00E0FDE5256002D295D5E0FDC295C4
:10087B00D5E0FDD294D5E0FDE525600A207502D2C6
:10088B0092307502D296E56FD5E0FD207502C292CB
:10089B00307502C2967496D5E0FDD9C1EAF8D5E061
:1008AB00FDD8FBDBB1C2948C2522C37C007D007587
:1008BB00F00005F0EA33FAEB33FB50F6EB13FBEAEF
:1008CB0013FAC3E9FFE8FEE89AF8E99BF95004EF45
:1008DB00F9EEF8B3EC33FCED33FDD5F0DFEDF9ECCD
:1008EB00F822E889F08A20D2D4F8A9F07B0030F7FF
:1008FB000B7BFFF42401F8E9F43400F9E88520F0D0
:10090B00A4ADF0F8E98520F0A4AFF0FEED2EF9745C
:10091B00003FFA7C04C3EA13FAE913F9E813F8DC95
:10092B00F48BF030F70AE8F42401F8E9F43400F919
:10093B00E889F0C2D4F8A9F0227882B60403020940
:10094B00A0C3E55994014003020969852224E4F50B
:10095B0040F541F542F543F544F5490209A078828B
:10096B00E6FC754901E522F523783879C7AA3CAB3B
:10097B003DC3EB13FBEA13FAEC146013C3EB13FB4D
:10098B00EA13FAEC14146007C3EB13FBEA13FA1126
:10099B00B58840894122E5496034C3E5409523F889
:1009AB00E5419400F9500CC3E89480E994FF40169C
:1009BB000209D5C3E8947FE9940050030209D57866
:1009CB007F79000209D5788079FF8845894622E531
:1009DB00496058E5452542F8E5463543F9854620FB
:1009EB00E4300701F43544FA30E709C3EA94F040E8
:1009FB0015020A17C3EA940F5003020A1778FF79FE
:100A0B00FF7A0F020A17780079007AF0C3E5249574
:100A1B005E5006E52460094130E54620E70D413084
:100A2B00E54630E706884289438A4422E54970034C
:100A3B00020A9A789FE6FAC3E54533F8E54633F99F
:100A4B0011EDE930E70BC3E89480E994FF401341C3
:100A5B0071C3E8947FE9940050024171787F79006B
:100A6B004171788079FFE820E715C3E52398F840BA
:100A7B0009C3E894014003020A987801020A98E836
:100A8B00F424012523F84003020A9878FF884722B3
:100A9B00E5497003020AFC78A0E6FAA843A94411C1
:100AAB00EDE930E70CC3E89401E994FF4016020A24
:100ABB00D3C3E894FFE994005003020AD378FF797B
:100ACB0000020AD3780179FFE920E715C3E54798BF
:100ADB00F84009C3E894014003020AFA7800020ABD
:100AEB00FAE8F424012547F84003020AFA78FF8854
:100AFB0024227883E6F52012101A75E890111575EB
:100B0B00E890E5E820ECFBA8BDA9BE1210C0756A01
:100B1B0055756B00C3740013FD745513FC74552C81
:100B2B00FC74003DFDECFAEDFBC3E89AE99B401425
:100B3B00E56A2455F56AE56B3400F56BEA2CFAEBA4
:100B4B003DFB80E5AE6AAF6BC3E56B13F9E56A134A
:100B5B00F8C3E913F9E813F8E56A28F568E56B398A
:100B6B00F5697A03C3E913F9E813F8DAF7AA201A3F
:100B7B007009756A00756B00020B961AEA6008EE35
:100B8B0028FEEF39FFDAF88E6A8F6B2275E8902218
:100B9B007883E6FFE5E820ECF7A8BDA9BE056CC39A
:100BAB00E56C9408404B756C00E97007E56D601BB4
:100BBB00020BCAC3E8956D6010E56D5006600C140E
:100BCB00020BD60460F9020BD6E56DF56DC394727A
:100BDB00401B755EC0C394044013755E80C39404C0
:100BEB00400B755E40C394044003755E0075BB09F2
:100BFB0022EFC39401601BC3E894FFE994035012E6
:100C0B00C3E8956AE9956B5009E55E600C155E02C9
:100C1B000C24E55EF46002055EA85EC3E5249850E3
:100C2B0002A824C3E8955F400AA85FE55FF4600360
:100C3B00855F5E8825C3E56CB4070375BB10223056
:100C4B00610278323062027878E52C5406601FE836
:100C5B0079A287F0A4C5F0A2F733F8C3E8955E40FC
:0F0C6B0002A85E882288248825306102886022D2
:100C7A00788FE6FFC3EF94055018C3EF9404502011
:100C8A00C3EF94035028C3EF94025030C3EF94018A
:100C9A0050387533A075340F75353C75360581E0CB
:100CAA007533C075341275354075360681E0753373
:100CBA00707534177535D075360781E075334C7504
:100CCA00341D7535C475360981E0753328753423AA
:100CDA007535B875360B853350853451753C0075BA
:100CEA003D0822A850A951020CF8A84AA94B7591AF
:100CFA0000C3E498F594E499F595759104D2587572
:100D0A00C820A8CCA9CD75C824AA3AAB3B883A8991
:100D1A003BC3E89AF8E99BF9AA3CAB3DC3EB13FD48
:100D2A00EA13FCC3ED13FDEC13FCC3EA9CFAEB9D3A
:100D3A00FBEA28FAEB39FB8A3C8B3D400122753CE1
:100D4A00FF753DFF22759100C3E4954CF594E49537
:100D5A004DF595759104D258227F01789CE614606E
:100D6A00027F02305802A16DB14FDFF7227892E676
:100D7A00FF7E14A83DC3E8940440027804C3E83314
:100D8A00F8C3EE98FE3063047F037E00A93DA83CB9
:100D9A007A04C3E913F9E813F8DAF7C3E89EF8E925
:100DAA009400F94009C3E89402E9940050047802D7
:100DBA00E4F9E9FBE8FAC3E913FDE813FCC3EF948D
:100DCA0003602EEF20E00DE82CF8E93DF9ECFAED8E
:100DDA00FB020DE8E828F8E939F97A02E4FBC3EFE7
:100DEA009403400D8A4E8B4F884A894B8C4C8D4D0B
:100DFA0022884E894F8A4A8B4B8C4C8D4D22305813
:100E0A0002C108759100C3E4953CF594E4953DF55B
:100E1A0095759104D25822753F00752000020E3054
:100E2A00753F00752040D2AF053F20580122759DBD
:100E3A0000E53DC313C313F8086030306A06C313D4
:100E4A00C313F808C3E8940A4002780A306D08C34D
:100E5A00E8940440027804C3E53D9408400D759D6A
:100E6A0002C3E53D94104003759D03205803D2AF99
:100E7A0022791E206D02790AD2AF0000C2AF205A31
:100E8A000A793C206D0279143066E0306302797881
:100E9A00C3E58B9940D5E59BF45440B52002C13097
:100EAA00D8C9D2AF22C25B789CE614600AE53F1427
:100EBA007005206302D25B30630B05382058107529
:100ECA003800020ED920580715811581021794227D
:100EDA00759100C3E4954EF594E4954FF595759197
:100EEA0004D258220539205B03753900305B237818
:100EFA00A3E6FFBF0108D25CC292C296C295B14F67
:100F0A00305802E10ABF0208D25CC292C296C29568
:100F1A00D1DA305802E11C22C2AFC294206A03021D
:100F2A000F4190034730650F207502C29730750252
:100F3A00C2937406D5E0FD207502D293307502D2B1
:100F4A0097759F80753E020210ACC2AF206A0302F9
:100F5A000F769002FE306517C294207502C2973050
:100F6A007502C2937406D5E0FD020F799001E12063
:100F7A007502C296307502C292305A06E5256002A1
:100F8A00D295207503759F89307503759F81753ECB
:100F9A00030210ACC2AF207502C293307502C29729
:100FAA00206A03020FBD9002BD306507C294740621
:100FBA00D5E0FD207502D297307502D293207503D1
:100FCA00759F81307503759F89753E040210ACC206
:100FDA00AF206A03020FFB90027C3065172075026E
:100FEA00C293307502C297C2947406D5E0FD020F0F
:100FFA00FE9001CFC295305A0EE525600A2075028F
:10100A00D292307502D296759F80753E050210AC59
:10101A00C2AF207502C297307502C293206A0302DA
:10102A00104190023330650F207502C29330750269
:10103A00C2977406D5E0FDD294207503759F893056
:10104A007503759F81753E060210ACC2AF206A0314
:10105A0002107F9003A030651F207502C29330757D
:0F106A0002C297207502C297307502C2937406B6
:10107900D5E0FD0210829001F3207502C29230750D
:1010890002C296305A0EE525600A207502D29630C2
:101099007502D292207503759F81307503759F89FA
:1010A900753E01D2AF789CE6C394024007C3E53987
:1010B90094035002C25C229001CDC292C296C2959D
:1010C900C293C297C294C25A22C3E5509535E551DD
:1010D90095365001227890E6FFC3EF94055018C366
:1010E900EF9404501BC3EF9403501EC3EF940250B6
:1010F90021C3EF94015024C3E550943CF802112D0B
:10110900C3E5509428F802112DC3E550941AF8024A
:10111900112DC3E5509412F802112DC3E550940A1C
:10112900F802112DE5519400F9885089512230585F
:10113900022137227880760908760908760408762C
:10114900010876030876FF08760908760108760112
:10115900087601788C76000876FF0876FF08760114
:101169000876050876FF0876030876060876FF08EC
:1011790076020876030876FA087614087614087653
:101189000508760108760208760008767D757400F0
:10119900757600757700757800227893E6FF756695
:1011A90009756701C3BF0206756605756701C3BF87
:1011B9000306756605756702C3BF0406756605757E
:1011C9006703C3BF0506756609756707C3BF0606CA
:1011D9007566007567007887E6FFC26CC3BF0302B6
:1011E900D26CC26BC3BF0402D26BC26A7418552D8C
:1011F9006002D26AC2656002D265D2666002C266C6
:101209007888E6C394036008C275E630E102D275B6
:10121900C2767889E630E102D276C3EF940260089B
:10122900758E01D26D021236758E00C26D227880DC
:10123900E61490008093789FF67881E614900080F8
:101249009378A0F611C022789BE61490008D9378CC
:10125900A1F611C0227886E61490009A9378A2F636
:1012690011C022789CE6149000A79378A3F611C0C8
:1012790022227896E6FA7897E6FB3077047A007BA3
:10128900FFC3EB9AFCC3948250027C82756E000501
:101299006EEC856EF0A4C3E5F0948040F222E5EF90
:1012A90020E6037520000520903FFFE52014600625
:1012B900901FFF1460009304600375EF12C2D353AB
:1012C900D9BF7581C043FF8012081575EF0243B27B
:1012D90003E5B324044002F5B311C07580FF75A47A
:1012E9000075F1F075D4DF75900275A5FC75F2FDF6
:1012F90075D50275A61075A0FF75F3F175E241E485
:10130900F8F6D8FD313D31A351375150515E516C3A
:10131900517A517B7898866F11C07588507589020A
:1013290075C82475910475D840C2AF12082E1208E9
:101339004512081F12084C12081F12085312081FE1
:1013490012085A12081F12083E12082E12082E12ED
:10135900082975A82275B80275E690759B80759D58
:101369000375D10E75BC5875BB0975BA1175E8803E
:10137900120815D2AF120AFD43DA01C2D8C26912A6
:10138900082E753001757301D2597A05E558700236
:101399007A0512081AE559C3940240EEE52E541F46
:1013A900855B5AF55BB55AE2DAE2C25953DACF20C6
:1013B900760343DA2030760343DA10C2D8C26912C1
:1013C900082912081A7802741F552E70027800C372
:1013D900E5599840EDC2AF12084512081F12084599
:1013E90012081F12084C12081F12084C12081FD2AB
:1013F900AF12082E757300754800C3E5599548402A
:1014090003855948120829C3E5599401400280EA25
:10141900C2AF12085A12081F12085A12081F1208DE
:101429005312081F12085312081FD2AF12082E7543
:101439003000E4F531F5320531E531F47039053222
:10144900789AE67819146012783214600D787D1450
:10145900600878FA146003753200C3E532984017C2
:0E14690015327531B47899866FC2AF12085AE9
:10147700D2AF7898866F12082912081FE5287008DE
:10148700741F552E70026191C3E559940640AA78DE
:1014970088E6C394036003120829E5287003021342
:1014A70091C2AF11C0E4F522F523F524F525D2AF9B
:1014B70078858661F540F541F542F543F544F56CCD
:1014C700F549F52BF52CF539120C7A756C0875BBB7
:1014D70010120815120B97E5E820ECFBA8BDA9BE72
:1014E700E97001F8886D120B9B756C0875BB107855
:1014F70095E630E00302153F7887E6FE760231A3D2
:101507007887EEF6D261C2AF755EFF120C4A85226C
:101517005E85225FD2AFC261752501855D64756501
:1015270001D260D263753800111A1155120CF412EA
:101537000C7A120D770216647887E6FE76037893A5
:10154700E6FD760531A37887EEF67893EDF6D2605F
:10155700D261D265111A1155755EFF120C4A120835
:1015670015120F22120815120815120F5412081A15
:10157700120F9E12081A12081A120FD912081F11F9
:101587001A12081A120815C261D262120B97120BAF
:101597009B120C4A756C0875BB101155120CED1295
:1015A7000D7711D23137120F22120CED120D771170
:1015B700D23137120F54120CED120D7711D2313789
:1015C700120F9E120CED120D7711D23137120FD96F
:1015D700120CED120D7711D23137111A120CED12D0
:1015E7000D7711D2C3E5509535E5519536400C314D
:1015F70037C3E559940150930217943137C2627883
:1016070087E6FE760231A37887EEF685225E85604F
:101617005F856025855D64756501D263753800C295
:10162700AF207502C293307502C297207502C29728
:10163700307502C293742DD5E0FDD2AF1155120C4F
:10164700F4120D63120D77120E08756C0075BB0945
:1016570002166431A31155756C0075BB09120E2A69
:10166700120EAF120EDA120944120EEE120F2212E8
:101677000CF4120D63120D77120E08120E21120EC2
:10168700AF120EDA1209A1120EEE120F54120CF459
:10169700120D63120D77120E08120E2A120EAF12D8
:1016A7000EDA1209DA120EEE120F9E120CF4120D58
:1016B70063120D77120E08120E21120EAF120EDAF8
:1016C700120A37120EEE120FD9120CF4120D631212
:1016D7000D77120E08120E2A120EAF120EDA120A28
:1016E7009B120EEE111A120CF4120D63120D7712E3
:1016F7000E08120E21120B97120EAF120EDA120BF2
:101707009B120EEE1155120CF4120D63120D771287
:101717000E0830634285605E85605F855D64756530
:101727000179647A147888E6B40304791E7A05C3CC
:10173700E538994015C263D2648A377888E6B403DE
:1017470006755EFF755FFF02175EC3E5599401409A
:1017570003021664021794306419E537147005C242
:101767006402165AF537C3E559940140030216641B
:10177700021794C3E55C94FA5013741F552E700436
:10178700E5286009C3E53D94F05002C164C2AF117A
:10179700C07887E6FE760231A37887EEF6E4F52275
:1017A700F523F524F525F561C260D2AF12081511AE
:0F17B700C0741F552E7006E52870026191813BAA
:101A00000B02110909040103FF0901010155AA0094
:101A1000FFFF0105FF0306FF0203FA14140501028C
:031A2000007DFF47
:101A400023506C6174696E756D50726F3330412331
:101A500023424C48454C492346333930232020202B
:101A60006F72672E736B797075702E6573632E625B
:00000001FF
