:030000000212D019
:03000B000200BA36
:03002B000203E7E6
:03005B0002054655
:0300730002053C47
:1000800002030406080C10182030406080020304AC
:1000900006080C101820304080FF0406080C1018C9
:1000A0002030406080A0C00002010D0D0405060252
:1000B0000D0505050D0604050302C2AFC0D0C0E062
:1000C000205A1030600A205C07302F02E47380FC55
:1000D0000203D3306306C292C296C29585258AC2B6
:1000E0005AE525F4700221C60563306013206A19B1
:1000F000758B00D0E0D0D0C292C296C295D2AF32FA
:10010000C292C296C2950201B6D265C266E5676028
:100110001CC3E5631495674014C265D266C3E563EA
:10012000956650030201B67563000201B6206C1497
:10013000C292C296C2957406D5E0FDD293D297D2F0
:10014000940201B6D266C292C296C295E53E20E202
:100150003420E1127406D5E0FD207502D297307587
:1001600002D2930201B620E0127406D5E0FD20759C
:1001700002D297307502D2930201B67406D5E0FD23
:10018000D2940201B620E11F20E00A7406D5E0FDFA
:10019000D2940201B67406D5E0FD207502D29330E8
:1001A0007502D2970201B67406D5E0FD207502D221
:1001B00093307502D297758B00D0E0D0D0C292C236
:1001C00096C295D2AF32D0E0D0D0D2AF3261D3E573
:1001D00025600A207502D292307502D296C29561CE
:1001E000D3E5256002D295207502C296307502C211
:1001F0009261D3E525600A207502D296307502D24D
:1002000092207502C292307502C29661D3207502A7
:10021000C293307502C297E525600A207502D2921A
:10022000307502D296207502C297307502C293C211
:100230009561D3207502C293307502C29720750272
:10024000C297307502C2937406D5E0FDE525600AB9
:10025000207502D292307502D296C29561D3207574
:1002600002C293307502C297E525600A207502D25A
:1002700092307502D296C294C29561D3207502C2A3
:1002800093307502C297C2947406D5E0FDE52560EF
:100290000A207502D292307502D296C29561D3C2FD
:1002A00094E5256002D295207502C293307502C292
:1002B00097207502C296307502C29261D3C2942013
:1002C0007502C293307502C2977406D5E0FDE5252C
:1002D0006002D295207502C296307502C29261D337
:1002E000C294E5256002D295207502C2973075024E
:1002F000C293207502C296307502C29261D3C29435
:10030000207502C297307502C2937406D5E0FDE5F0
:10031000256002D295207502C296307502C29261A4
:10032000D3207502C297307502C293E525600A207A
:100330007502D296307502D292C294207502C29292
:10034000307502C29661D3207502C297307502C221
:1003500093C2947406D5E0FDE525600A207502D2AB
:1003600096307502D292207502C292307502C29602
:1003700061D3207502C297307502C293E525600AE9
:10038000207502D296307502D292207502C2933047
:100390007502C297207502C292307502C29661D36F
:1003A000207502C297307502C293207502C2933045
:1003B0007502C2977406D5E0FDE525600A20750236
:1003C000D296307502D292207502C292307502C266
:1003D0009661D3E525F4F58A758B00756200D25AD3
:1003E000D0E0D0D0D2AF32C2AFC2AD53E6EFC0D072
:1003F000C0E0D2D3D2AFC2CEE528600A741F552E1A
:1004000060491528814B78007900E580307601F449
:1004100030E50278FF53DACF20760343DA203076D6
:100420000343DA10C2D8C269E580307601F430E5C2
:100430000279FFC3E89970CE305903752818741FEC
:10044000552E60037528188859D268E5296004156F
:1004500029815E741F552E600543DA01C2D82068D9
:100460000281E7E559F8C268741F552E603679821B
:0E047000B70431C3E894F0400374F0F8E8C418
:10047E00540F28F87984B7030281A4C313C31387DA
:10048E0021200802C313200A06C3C898F881A428A5
:10049E00F8500374FFF8E52C5406703D8822306343
:1004AE000AC3E522955E4003855E227882B6042952
:1004BE00C3E5229524401278A196400DE52426F539
:1004CE002450097524FF0204DA852224A824C3E5EA
:1004DE0024955E4002A85E882520CF0CD0E0D0D0B7
:1004EE00C2D343E610D2AD32C2CF7801E528600800
:1004FE00741F552E70021528C3E5599401400575D9
:10050E005C00A123755D00756400E55C2401F55C5B
:10051E005003755CFFE55F240A5005755FFFA1303F
:10052E00F55FD0E0D0D0C2D343E610D2AD32C2AF29
:10053E0053917FC258D2AF32C2AF53E6EFC2ADC0B5
:10054E00D0C0E0C0F0D2D3D2AFA8FBA9FCC2D83045
:10055E006902A1B353DACF20760343DA1030760363
:10056E0043DA20D269E580307601F420E502A185D8
:10057E008826892702082453DACF20760343DA200F
:10058E0030760343DA10C2D8C269741F552E700339
:10059E0002080A7800E580307601F430E50302089F
:1005AE000A8859E18853DACF20760343DA20307671
:1005BE000343DA10C269205902C16D53DACF207697
:1005CE000343DA1030760343DA20C2D8D269885456
:1005DE008955C3E89552F8E99553F9E4FB7AFAC3C5
:1005EE00E894C8E994005008E4D2E4FB7A0AC140CA
:1005FE00C3E89468E994015008E4D2E3FB7A0FC192
:10060E0040C3E894D0E994025008E4D2E2FB7A1E8B
:10061E00C140C3E894A0E994055008E4D2E1FB7A06
:10062E003CC140C3E89498E994085006E4D2E0FB3C
:10063E007A78C3E89556FCE99557FD30E708ECF457
:10064E002401FCEDF4FD7558007008C3EC9A5003BC
:10065E0075580188568957A854A95588528953C38D
:10066E00E89526F8E99527F9307402E16C307302AB
:10067E00E16C307202E165E9C313F9E813F83071E9
:10068E0002E165E9C313F9E813F8307002E165E998
:10069E00C313FDE813FC205918C3EC941CED94020F
:1006AE00400302080AED7009C3EC94C85003020817
:1006BE000A740020770B7888E67896B40302789E49
:1006CE00E624FAFEE43400FFC3EC9EFCED9FFD929F
:1006DE00087888E6B40322A208500920751BC2AF21
:1006EE00D275C1F9307512C2AFC275C292C296C22E
:1006FE0095C293C297C294D2AFA2085017E6B40324
:10070E000DECF42401FCEDF43400FD020722780018
:10071E007900E16C7888E6B40315EC33FCED33FD1B
:10072E00C3EC9405FCED9400FD50047C007D00C3E9
:10073E00EC94FFED9400400678FF7900E16CEC85B7
:10074E006EF0A4C5F0A2F733F879004003020788D3
:10075E0078FF7900020788E9C313F9E813F83074BB
:10076E000EE9600278FFC3E81338F8E43400F9C3E9
:10077E00E894FFE99400400278FFC3E894A0500586
:10078E00780002079578018875A873B8010778FF7D
:10079E0088590207F7A878B8102978FF8859057686
:1007AE00E57670020577C3E57794044013C3E576CA
:1007BE009433400C78208878E4F576F5770207F7C5
:1007CE000207F7A878B82007787F88590207F778CC
:1007DE00008859A830B80011A875B8010C78108897
:1007EE0078E4F576F5770207F7E559F574D26820C7
:1007FE005902010A741FF4552E4BF52E75281874E4
:10080E001F552E700375280A3059020124741F5586
:10081E002E600353DAFE752906741F552E7003756C
:10082E00290AD0F0D0E0D0D0C2D3D2AD43E61032F8
:10083E00790102085C790302085C790A02085C7986
:10084E001E02085C796402085C79C802085C78179D
:10085E00E4D5E0FDD8FAD9F6227C051157DCFC224E
:0E086E007A147B7802088A7A107B8C02088A42
:10087C007A0D7BB402088A7A0B7BC802088AAC25F5
:10088C007525017902B275E4C294D5E0FDE52560C9
:10089C0002D295D5E0FDC295D5E0FDD294D5E0FD10
:1008AC00E525600A207502D292307502D296E56F6A
:1008BC00D5E0FD207502C292307502C2967496D5B1
:1008CC00E0FDD9C1EAF8D5E0FDD8FBDBB1C2948CD0
:1008DC002522C37C007D0075F00005F0EA33FAEBAD
:1008EC0033FB50F6EB13FBEA13FAC3E9FFE8FEE81F
:1008FC009AF8E99BF95004EFF9EEF8B3EC33FCED00
:10090C0033FDD5F0DFEDF9ECF822E889F08A20D23E
:10091C00D4F8A9F07B0030F70B7BFFF42401F8E945
:10092C00F43400F9E88520F0A4ADF0F8E98520F066
:10093C00A4AFF0FEED2EF974003FFA7C04C3EA1369
:10094C00FAE913F9E813F8DCF48BF030F70AE8F461
:10095C002401F8E9F43400F9E889F0C2D4F8A9F0DC
:10096C00227882B604030209C9C3E55994014003F5
:10097C00020992852224E4F540F541F542F543F550
:10098C0044F5490209C97882E6FC754901E522F56E
:10099C0023783879C7AA3CAB3DC3EB13FBEA13FAB7
:1009AC00EC146013C3EB13FBEA13FAEC141460079A
:1009BC00C3EB13FBEA13FA11DE8840894122E549A7
:1009CC006034C3E5409523F8E5419400F9500CC31D
:1009DC00E89480E994FF40160209FEC3E8947FE98D
:1009EC00940050030209FE787F79000209FE78809A
:1009FC0079FF8845894622E5496058E5452542F846
:100A0C00E5463543F9854620E4300701F43544FAD0
:100A1C0030E709C3EA94F04015020A40C3EA940F88
:100A2C005003020A4078FF79FF7A0F020A407800DF
:100A3C0079007AF0C3E524955E5006E524600941FF
:100A4C0059E54620E70D4159E54630E706884289CD
:100A5C00438A4422E5497003020AC3789FE6FAC32D
:100A6C00E54533F8E54633F93116E930E70BC3E8D1
:100A7C009480E994FF4013419AC3E8947FE9940071
:100A8C005002419A787F7900419A788079FFE8206A
:100A9C00E715C3E52398F84009C3E8940140030225
:100AAC000AC17801020AC1E8F424012523F84003A5
:100ABC00020AC178FF884722E5497003020B2578AA
:100ACC00A0E6FAA843A9443116E930E70CC3E89430
:100ADC0001E994FF4016020AFCC3E894FFE9940074
:100AEC005003020AFC78FF7900020AFC780179FFB6
:100AFC00E920E715C3E54798F84009C3E89401409D
:100B0C0003020B237800020B23E8F424012547F899
:100B1C004003020B2378FF8824227883E6F5201209
:100B2C00104375E890113E75E890E5E820ECFBA8C1
:100B3C00BDA9BE1210E9756A55756B00C37400131C
:100B4C00FD745513FC74552CFC74003DFDECFAED52
:100B5C00FBC3E89AE99B4014E56A2455F56AE56BFA
:100B6C003400F56BEA2CFAEB3DFB80E5AE6AAF6B1B
:100B7C00C3E56B13F9E56A13F8C3E913F9E813F845
:100B8C00E56A28F568E56B39F5697A03C3E913F969
:100B9C00E813F8DAF7AA201A7009756A00756B0069
:100BAC00020BBF1AEA6008EE28FEEF39FFDAF88E66
:100BBC006A8F6B2275E890227883E6FFE5E820ECDB
:100BCC00F7A8BDA9BE056CC3E56C9408404B756CC9
:100BDC0000E97007E56D601B020BF3C3E8956D60CF
:100BEC0010E56D5006600C14020BFF0460F9020B4B
:100BFC00FFE56DF56DC39472401B755EC0C3940424
:100C0C004013755E80C39404400B755E40C394041E
:100C1C004003755E0075BB0922EFC39401601BC3D2
:100C2C00E894FFE994035012C3E8956AE9956B5078
:100C3C0009E55E600C155E020C4DE55EF460020584
:100C4C005EA85EC3E524985002A824C3E8955F40D3
:100C5C000AA85FE55FF46003855F5E8825C3E56CD9
:0F0C6C00B4070375BB1022306102783230620288
:100C7B007878E52C5406601FE879A287F0A4C5F0BC
:100C8B00A2F733F8C3E8955E4002A85E8822882459
:100C9B008825306102886022788FE6FFC3EF9405C8
:100CAB005018C3EF94045020C3EF94035028C3EFA4
:100CBB0094025030C3EF940150387533A075340F44
:100CCB0075353C753605A1097533C075341275350C
:100CDB0040753606A1097533707534177535D075A7
:100CEB003607A10975334C75341D7535C475360936
:100CFB00A1097533287534237535B875360B8533D3
:100D0B0050853451753C00753D0822A850A95102FD
:100D1B000D21A84AA94B759100C3E498F594E49969
:100D2B00F595759104D25875C820A8CCA9CD75C876
:100D3B0024AA3AAB3B883A893BC3E89AF8E99BF97A
:100D4B00AA3CAB3DC3EB13FDEA13FCC3ED13FDEC67
:100D5B0013FCC3EA9CFAEB9DFBEA28FAEB39FB8AFE
:100D6B003C8B3D400122753CFF753DFF2275910088
:100D7B00C3E4954CF594E4954DF595759104D258D3
:100D8B00227F01789CE61460027F02305802A19604
:100D9B00B178DFF7227892E6FF7E14A83DC3E89482
:100DAB000440027804C3E833F8C3EE98FE306304C2
:100DBB007F037E00A93DA83C7A04C3E913F9E8132D
:100DCB00F8DAF7C3E89EF8E99400F94009C3E89410
:100DDB0002E9940050047802E4F9E9FBE8FAC3E96C
:100DEB0013FDE813FCC3EF9403602EEF20E00DE836
:100DFB002CF8E93DF9ECFAEDFB020E11E828F8E9C5
:100E0B0039F97A02E4FBC3EF9403400D8A4E8B4F02
:100E1B00884A894B8C4C8D4D22884E894F8A4A8B40
:100E2B004B8C4C8D4D22305802C131759100C3E46F
:100E3B00953CF594E4953DF595759104D258227542
:100E4B003F00752000020E59753F00752040D2AF50
:100E5B00053F20580122759D00E53DC313C313F8D0
:100E6B00086030306A06C313C313F808C3E8940A4A
:100E7B004002780A306D08C3E8940440027804C33A
:100E8B00E53D9408400D759D02C3E53D941040036C
:100E9B00759D03205803D2AF22791E206D02790A6B
:100EAB00D2AF0000C2AF205A0A793C206D027914F0
:100EBB003066E03063027978C3E58B9940D5E59BCA
:100ECB00F45440B52002C159D8C9D2AF22C25B78C5
:100EDB009CE614600AE53F147005206302D25B3078
:100EEB00630B0538205810753800020F0220580785
:100EFB00158115810217BA22759100C3E4954EF541
:100F0B0094E4954FF595759104D258220539205BE1
:100F1B0003753900305B2378A3E6FFBF0108D25C71
:100F2B00C292C296C295B178305802E133BF020823
:100F3B00D25CC292C296C295F103305802E14522AF
:100F4B00C2AFC294206A03020F6A90034730650F49
:100F5B00207502C297307502C2937406D5E0FD204E
:100F6B007502D293307502D297759F80753E02023F
:100F7B0010D5C2AF206A03020F9F9002FE30651797
:100F8B00C294207502C297307502C2937406D5E0E5
:100F9B00FD020FA29001E1207502C296307502C2CC
:100FAB0092305A06E5256002D295207503759F890C
:100FBB00307503759F81753E030210D5C2AF207546
:100FCB0002C293307502C297206A03020FE69002A9
:100FDB00BD306507C2947406D5E0FD207502D2972B
:100FEB00307502D293207503759F81307503759F01
:100FFB0089753E040210D5C2AF206A0302102490FB
:10100B00027C306517207502C293307502C297C2FD
:10101B00947406D5E0FD0210279001CFC295305A8B
:10102B000EE525600A207502D292307502D29675B4
:10103B009F80753E050210D5C2AF207502C2973056
:10104B007502C293206A0302106A90023330650F57
:10105B00207502C293307502C2977406D5E0FDD29B
:0D106B0094207503759F89307503759F8172
:10107800753E060210D5C2AF206A030210A890037D
:10108800A030651F207502C293307502C297207583
:1010980002C297307502C2937406D5E0FD0210AB08
:1010A8009001F3207502C292307502C296305A0E32
:1010B800E525600A207502D296307502D292207515
:1010C80003759F81307503759F89753E01D2AF788E
:1010D8009CE6C394024007C3E53994035002C25CFE
:1010E800229001CDC292C296C295C293C297C29471
:1010F800C25A22C3E5509535E551953650012278FC
:1011080090E6FFC3EF94055018C3EF9404501BC337
:10111800EF9403501EC3EF94025021C3EF94015083
:1011280024C3E550943CF8021156C3E5509428F8BE
:10113800021156C3E550941AF8021156C3E55094AB
:1011480012F8021156C3E550940AF8021156E551F7
:101158009400F98850895122305802216022788001
:101168007609087609087604087601087603087671
:10117800FF087609087601087601087601788C76EA
:10118800000876FF0876FF0876010876050876FFDE
:101198000876030876060876FF08760208760308BC
:1011A80076FA087614087614087605087601087623
:1011B8000208760008767D757400757600757700EC
:1011C800757800227893E6FF756609756701C3BFD5
:1011D8000206756605756701C3BF03067566057562
:1011E8006702C3BF0406756605756703C3BF0506B6
:1011F800756609756707C3BF0606756600756700DB
:101208007887E6FFC26CC3BF0302D26CC26BC3BF50
:101218000402D26BC26A7418552D6002D26AC26584
:101228006002D265D2666002C2667888E6C394031B
:101238006008C275E630E102D275C2767889E63078
:10124800E102D276C3EF94026008758E01D26D0276
:10125800125F758E00C26D227880E614900080932C
:10126800789FF67881E6149000809378A0F611E9CB
:1012780022789BE61490008D9378A1F611E92278E4
:1012880086E61490009A9378A2F611E922789CE6F3
:10129800149000A79378A3F611E922227896E6FA2B
:1012A8007897E6FB3077047A007BFFC3EB9AFCC3A0
:1012B800948250027C82756E00056EEC856EF0A4F7
:1012C800C3E5F0948040F222E5EF20E603752000A4
:1012D8000520903FFFE520146006901FFF14600072
:1012E8009304600375EF12C2D353D9BF7581C0430D
:1012F800FF8012083E75EF0243B203E5B3240440B1
:1013080002F5B311E97580FF75A40075F1F075D485
:10131800DF75900275A5FC75F2FD75D50275A610EE
:1013280075A0FF75F3F175E241E4F8F6D8FD316672
:1013380031CC516051795187519551A351A4789876
:10134800866F11E975885075890275C824759104EE
:1013580075D840C2AF12085712086E120848120812
:101368007512084812087C120848120883120848A7
:1013780012086712085712085712085275A82275E2
:10138800B80275E690759B80759D0375D10E75BC86
:101398005875BB0975BA1175E88012083ED2AF12AC
:1013A8000B2643DA01C2D8C2691208577530017595
:1013B8007301D2597A05E55870027A05120843E597
:1013C80059C3940240EEE52E541F855B5AF55BB570
:1013D8005AE2DAE2C25953DACF20760343DA2030F0
:1013E800760343DA10C2D8C2691208521208437849
:1013F80002741F552E70027800C3E5599840EDC25B
:10140800AF12086E12084812086E120848120875C2
:10141800120848120875120848D2AF120857757397
:1014280000754800C3E55995484003855948120896
:1014380052C3E5599401400280EAC2AF12088312F0
:10144800084812088312084812087C120848120833
:101458007C120848D2AF120857753000E4F531F510
:0F146800320531E531F470390532789AE678199A
:10147700146012783214600D787D14600878FA14BD
:101487006003753200C3E53298401715327531B4E1
:101497007899866FC2AF120883D2AF7898866F1299
:1014A7000852120848E5287008741F552E7002610B
:1014B700BAC3E559940640AA7888E6C39403600343
:1014C700120852E52870030213BAC2AF11E9E4F516
:1014D70022F523F524F525D2AF78858661F540F509
:1014E70041F542F543F544F56CF549F52BF52CF537
:1014F70039120CA3756C0875BB1012083E120BC08D
:10150700E5E820ECFBA8BDA9BEE97001F8886D12DB
:101517000BC4756C0875BB107895E630E0030215AF
:10152700687887E6FE760231CC7887EEF6D261C21C
:10153700AF755EFF120C7385225E85225FD2AFC244
:1015470061752501855D64756501D260D263753863
:10155700001143117E120D1D120CA3120DA00216CD
:101567008B7887E6FE76037893E6FD760531CC78AF
:1015770087EEF67893EDF6D260D261D2651143110A
:101587007E755EFF120C7312083E120F4B12083E57
:1015970012083E120F7D120843120FC7120843129A
:1015A70008431102120848114312084312083EC2A9
:1015B70061D262120BC0120BC4120C73756C0875E2
:1015C700BB10117E120D16120DA011FB3160120F08
:1015D7004B120D16120DA011FB3160120F7D120D6B
:1015E70016120DA011FB3160120FC7120D16120D46
:1015F700A011FB31601102120D16120DA011FB3163
:10160700601143120D16120DA011FBC3E55095355D
:10161700E5519536400C3160C3E559940150940269
:1016270017BA3160C2627887E6FE760231CC7887D6
:10163700EEF685225E85605F856025855D6475654C
:1016470001D263753800C2AF207502C293307502AC
:10165700C297207502C297307502C293742DD5E0E8
:10166700FDD2AF117E120D1D120D8C120DA0120EA0
:1016770031756C0075BB0902168B31CC117E756C08
:101687000075BB09120E53120ED8120F0312096D03
:10169700120F17120F4B120D1D120D8C120DA012E7
:1016A7000E31120E4A120ED8120F031209CA120F68
:1016B70017120F7D120D1D120D8C120DA0120E3177
:1016C700120E53120ED8120F03120A03120F17121B
:1016D7000FC7120D1D120D8C120DA0120E31120E16
:1016E7004A120ED8120F03120A60120F17110212B4
:1016F7000D1D120D8C120DA0120E31120E53120E6B
:10170700D8120F03120AC4120F171143120D1D121C
:101717000D8C120DA0120E31120E4A120BC0120EB2
:10172700D8120F03120BC4120F17117E120D1D12C0
:101737000D8C120DA0120E3130634285605E8560FC
:101747005F855D6475650179647A147888E6B4030A
:1017570004791E7A05C3E538994015C263D2648AB5
:10176700377888E6B40306755EFF755FFF02178456
:10177700C3E5599401400302168B0217BA30641966
:10178700E537147005C264021681F537C3E559942D
:1017970001400302168B0217BAC3E55C94FA501393
:1017A700741F552E7004E5286009C3E53D94F05079
:1017B70002C18BC2AF11E97887E6FE760231CC7899
:1017C70087EEF6E4F522F523F524F525F561C260E9
:1017D700D2AF12083E11E9741F552E7006E5287026
:0517E7000261BA8164FB
:101A00000B02110909040103FF0901010155AA0094
:101A1000FFFF0105FF0306FF0203FA14140501028C
:031A2000007DFF47
:101A400023506C6174696E756D50726F3330412331
:101A500023424C48454C492346333930232020202B
:101A60006F72672E736B797075702E6573632E625B
:00000001FF
