:0300000002127277
:03000B000200BA36
:03002B000203E7E6
:03005B0002054655
:0300730002053C47
:1000800002030406080C10182030406080020304AC
:1000900006080C101820304080FF0406080C1018C9
:1000A0002030406080A0C00002010D0D0405060252
:1000B0000D0505050D0604050302C2AFC0D0C0E062
:1000C000205A1030600A205C07302F02E47380FC55
:1000D0000203D3306306C292C296C29585258AC2B6
:1000E0005AE525F4700221C60563306013206A19B1
:1000F000758B00D0E0D0D0C292C296C295D2AF32FA
:10010000C292C296C2950201B6D265C266E5676028
:100110001CC3E5631495674014C265D266C3E563EA
:10012000956650030201B67563000201B6206C1497
:10013000C292C296C2957406D5E0FDD293D297D2F0
:10014000940201B6D266C292C296C295E53E20E202
:100150003420E1127406D5E0FD207502D297307587
:1001600002D2930201B620E0127406D5E0FD20759C
:1001700002D297307502D2930201B67406D5E0FD23
:10018000D2940201B620E11F20E00A7406D5E0FDFA
:10019000D2940201B67406D5E0FD207502D29330E8
:1001A0007502D2970201B67406D5E0FD207502D221
:1001B00093307502D297758B00D0E0D0D0C292C236
:1001C00096C295D2AF32D0E0D0D0D2AF3261D3E573
:1001D00025600A207502D292307502D296C29561CE
:1001E000D3E5256002D295207502C296307502C211
:1001F0009261D3E525600A207502D296307502D24D
:1002000092207502C292307502C29661D3207502A7
:10021000C293307502C297E525600A207502D2921A
:10022000307502D296207502C297307502C293C211
:100230009561D3207502C293307502C29720750272
:10024000C297307502C2937406D5E0FDE525600AB9
:10025000207502D292307502D296C29561D3207574
:1002600002C293307502C297E525600A207502D25A
:1002700092307502D296C294C29561D3207502C2A3
:1002800093307502C297C2947406D5E0FDE52560EF
:100290000A207502D292307502D296C29561D3C2FD
:1002A00094E5256002D295207502C293307502C292
:1002B00097207502C296307502C29261D3C2942013
:1002C0007502C293307502C2977406D5E0FDE5252C
:1002D0006002D295207502C296307502C29261D337
:1002E000C294E5256002D295207502C2973075024E
:1002F000C293207502C296307502C29261D3C29435
:10030000207502C297307502C2937406D5E0FDE5F0
:10031000256002D295207502C296307502C29261A4
:10032000D3207502C297307502C293E525600A207A
:100330007502D296307502D292C294207502C29292
:10034000307502C29661D3207502C297307502C221
:1003500093C2947406D5E0FDE525600A207502D2AB
:1003600096307502D292207502C292307502C29602
:1003700061D3207502C297307502C293E525600AE9
:10038000207502D296307502D292207502C2933047
:100390007502C297207502C292307502C29661D36F
:1003A000207502C297307502C293207502C2933045
:1003B0007502C2977406D5E0FDE525600A20750236
:1003C000D296307502D292207502C292307502C266
:1003D0009661D3E525F4F58A758B00756200D25AD3
:1003E000D0E0D0D0D2AF32C2AFC2AD53E6EFC0D072
:1003F000C0E0D2D3D2AFC2CEE528600A741F552E1A
:1004000060491528814B78007900E580307601F449
:1004100030E50278FF53DACF20760343DA203076D6
:100420000343DA10C2D8C269E580307601F430E5C2
:100430000279FFC3E89970CE305903752818741FEC
:10044000552E60037528188859D268E5296004156F
:1004500029815E741F552E600543DA01C2D82068D9
:100460000281E7E559F8C268741F552E603679821B
:0E047000B70431C3E894F0400374F0F8E8C418
:10047E00540F28F87984B7030281A4C313C31387DA
:10048E0021200802C313200A06C3C898F881A428A5
:10049E00F8500374FFF8E52C5406703D8822306343
:1004AE000AC3E522955E4003855E227882B6042952
:1004BE00C3E5229524401278A196400DE52426F539
:1004CE002450097524FF0204DA852224A824C3E5EA
:1004DE0024955E4002A85E882520CF0CD0E0D0D0B7
:1004EE00C2D343E610D2AD32C2CF7801E528600800
:1004FE00741F552E70021528C3E5599401400575D9
:10050E005C00A123755D00756400E55C2401F55C5B
:10051E005003755CFFE55F240A5005755FFFA1303F
:10052E00F55FD0E0D0D0C2D343E610D2AD32C2AF29
:10053E0053917FC258D2AF32C2AF53E6EFC2ADC0B5
:10054E00D0C0E0C0F0D2D3D2AFA8FBA9FCC2D83045
:10055E006902A1B153DACF20760343DA1030760365
:10056E0043DA20D269E580307601F420E502A185D8
:10057E00882689270207D153DACF20760343DA2063
:10058E0030760343DA10C2D8C269741F552E70023A
:10059E00E1B77800E580307601F430E502E1B78806
:1005AE0059E18653DACF20760343DA2030760343BF
:1005BE00DA10C269205902C16B53DACF2076034399
:1005CE00DA1030760343DA20C2D8D26988548955BE
:1005DE00C3E89552F8E99553F9E4FB7AFAC3E89427
:1005EE00C8E994005008E4D2E4FB7A0AC13EC3E89D
:1005FE009468E994015008E4D2E3FB7A0FC13EC33C
:10060E00E894D0E994025008E4D2E2FB7A1EC13E8F
:10061E00C3E894A0E994055008E4D2E1FB7A3CC10A
:10062E003EC3E89498E994085006E4D2E0FB7A7849
:10063E00C3E89556FCE99557FD30E708ECF4240124
:10064E00FCEDF4FD7558007008C3EC9A5003755814
:10065E000188568957A854A95588528953C3E895DD
:10066E0026F8E99527F9307402E16A307302E16ADF
:10067E00307202E163E9C313F9E813F8307102E155
:10068E0063E9C313F9E813F8307002E163E9C313A9
:10069E00FDE813FC205918C3EC941CED94024003A2
:1006AE000207B7ED7009C3EC94C850030207B77484
:1006BE000020770B7888E67896B40302789EE624BD
:1006CE00FAFEE43400FFC3EC9EFCED9FFD92087829
:1006DE0088E6B40322A208500920751BC2AFD2755A
:1006EE00C1F7307512C2AFC275C292C296C295C220
:1006FE0093C297C294D2AFA2085017E6B4030DEC82
:10070E00F42401FCEDF43400FD020720780079009A
:10071E00E16A7888E6B40315EC33FCED33FDC3ECE7
:10072E009405FCED9400FD50047C007D00C3EC9418
:10073E00FFED9400400678FF7900E16AEC856EF0DB
:10074E00A4C5F0A2F733F87900400302078678FFBC
:10075E007900020786E9C313F9E813F830740EE93D
:10076E00600278FFC3E81338F8E43400F9C3E89464
:10077E00FFE99400400278FFC3E894A0500278008D
:10078E00C3E89573400E9402400AC3E5732402F841
:10079E00500278FFE559F5738859D268205902E165
:1007AE00B7741FF4552E4BF52E752818741F552E41
:1007BE00700375280A305902E1D1741F552E60035B
:1007CE0053DAFE752906741F552E700375290AD04B
:1007DE00F0D0E0D0D0C2D3D2AD43E61032790102D0
:1007EE0008097903020809790A020809791E020824
:1007FE0009796402080979C80208097817E4D5E076
:10080E00FDD8FAD9F6227C051104DCFC227A147B81
:10081E00780208377A107B8C0208377A0D7BB40287
:10082E0008377A0B7BC8020837AC2575250179028B
:10083E00B275E4C294D5E0FDE5256002D295D5E00F
:10084E00FDC295D5E0FDD294D5E0FDE525600A20E8
:10085E007502D292307502D296E56FD5E0FD207505
:0F086E0002C292307502C2967496D5E0FDD9C1D0
:10087D00EAF8D5E0FDD8FBDBB1C2948C2522C37C10
:10088D00007D0075F00005F0EA33FAEB33FB50F60E
:10089D00EB13FBEA13FAC3E9FFE8FEE89AF8E99BCC
:1008AD00F95004EFF9EEF8B3EC33FCED33FDD5F070
:1008BD00DFEDF9ECF822E889F08A20D2D4F8A9F01E
:1008CD007B0030F70B7BFFF42401F8E9F43400F9D9
:1008DD00E88520F0A4ADF0F8E98520F0A4AFF0FE96
:1008ED00ED2EF974003FFA7C04C3EA13FAE913F90B
:1008FD00E813F8DCF48BF030F70AE8F42401F8E99A
:10090D00F43400F9E889F0C2D4F8A9F0227882B65F
:10091D000403020976C3E5599401400302093F859A
:10092D002224E4F540F541F542F543F544F549023D
:10093D0009767882E6FC754901E522F52378387948
:10094D00C7AA3CAB3DC3EB13FBEA13FAEC146013DF
:10095D00C3EB13FBEA13FAEC14146007C3EB13FBA0
:10096D00EA13FA118B8840894122E5496034C3E5C9
:10097D00409523F8E5419400F9500CC3E89480E9C3
:10098D0094FF40160209ABC3E8947FE9940050032D
:10099D000209AB787F79000209AB788079FF884531
:1009AD00894622E5496058E5452542F8E546354337
:1009BD00F9854620E4300701F43544FA30E709C3E0
:1009CD00EA94F040150209EDC3EA940F50030209B1
:1009DD00ED78FF79FF7A0F0209ED780079007AF052
:1009ED00C3E524955E5006E52460094106E54620E1
:1009FD00E70D4106E54630E706884289438A4422E1
:100A0D00E5497003020A70789FE6FAC3E54533F8AD
:100A1D00E54633F911C3E930E70BC3E89480E99457
:100A2D00FF40134147C3E8947FE9940050024147CA
:100A3D00787F79004147788079FFE820E715C3E595
:100A4D002398F84009C3E894014003020A6E780127
:100A5D00020A6EE8F424012523F84003020A6E7899
:100A6D00FF884722E5497003020AD278A0E6FAA86A
:100A7D0043A94411C3E930E70CC3E89401E994FF9D
:100A8D004016020AA9C3E894FFE994005003020A34
:100A9D00A978FF7900020AA9780179FFE920E71505
:100AAD00C3E54798F84009C3E894014003020AD012
:100ABD007800020AD0E8F424012547F84003020A21
:100ACD00D078FF8824227883E6F520120FF175E89F
:100ADD00901207EB75E890E5E820ECFBA8BDA9BEE8
:100AED00121097756A55756B00C3740013FD74551C
:100AFD0013FC74552CFC74003DFDECFAEDFBC3E8C2
:100B0D009AE99B4014E56A2455F56AE56B3400F5C6
:100B1D006BEA2CFAEB3DFB80E5AE6AAF6BC3E56B80
:100B2D0013F9E56A13F8C3E913F9E813F8E56A2830
:100B3D00F568E56B39F5697A03C3E913F9E813F83C
:100B4D00DAF7AA201A7009756A00756B00020B6D31
:100B5D001AEA6008EE28FEEF39FFDAF88E6A8F6B1D
:100B6D002275E890227883E6FFE5E820ECF7A8BD32
:100B7D00A9BE056CC3E56C9408404B756C00E9701B
:100B8D0007E56D601B020BA1C3E8956D6010E56D67
:100B9D005006600C14020BAD0460F9020BADE56D4F
:100BAD00F56DC39472401B755EC0C39404401375FC
:100BBD005E80C39404400B755E40C394044003757E
:100BCD005E0075BB0922EFC39401601BC3E894FF5F
:100BDD00E994035012C3E8956AE9956B5009E55EF7
:100BED00600C155E020BFBE55EF46002055EA85E0F
:100BFD00C3E524985002A824C3E8955F400AA85F76
:100C0D00E55FF46003855F5E8825C3E56CB407037B
:100C1D0075BB102230610278323062027878E52C93
:100C2D005406601FE879A287F0A4C5F0A2F733F847
:100C3D00C3E8955E4002A85E88228824882530612D
:100C4D0002886022788FE6FFC3EF94055018C3EF3A
:100C5D0094045020C3EF94035028C3EF94025030F6
:0F0C6D00C3EF940150387533A075340F75353CC3
:100C7C0075360581B77533C07534127535407536C8
:100C8C000681B77533707534177535D07536078195
:100C9C00B775334C75341D7535C475360981B77508
:100CAC0033287534237535B875360B853350853438
:100CBC0051753C00753D0822A850A951020CCFA8D3
:100CCC004AA94B759100C3E498F594E499F5957590
:100CDC009104D25875C820A8CCA9CD75C824AA3ABD
:100CEC00AB3B883A893BC3E89AF8E99BF9AA3CAB41
:100CFC003DC3EB13FDEA13FCC3ED13FDEC13FCC376
:100D0C00EA9CFAEB9DFBEA28FAEB39FB8A3C8B3D1B
:100D1C00400122753CFF753DFF22759100C3E4959F
:100D2C004CF594E4954DF595759104D258227F01BC
:100D3C00789CE61460027F02305802A144B126DF91
:100D4C00F7227892E6FF7E14A83DC3E89404400293
:100D5C007804C3E833F8C3EE98FE3063047F037E57
:100D6C0000A93DA83C7A04C3E913F9E813F8DAF7B3
:100D7C00C3E89EF8E99400F94009C3E89402E994A9
:100D8C000050047802E4F9E9FBE8FAC3E913FDE842
:100D9C0013FCC3EF9403602EEF20E00DE82CF8E970
:100DAC003DF9ECFAEDFB020DBFE828F8E939F97AC8
:100DBC0002E4FBC3EF9403400D8A4E8B4F884A89A3
:100DCC004B8C4C8D4D22884E894F8A4A8B4B8C4CC8
:100DDC008D4D22305802A1DF759100C3E4953CF58E
:100DEC0094E4953DF595759104D25822753F0075A4
:100DFC002000020E07753F00752040D2AF053F2042
:100E0C00580122759D00E53DC313C313F8086030EB
:100E1C00306A06C313C313F808C3E8940A40027877
:100E2C000A306D08C3E8940440027804C3E53D948D
:100E3C0008400D759D02C3E53D94104003759D035C
:100E4C00205803D2AF22791E206D02790AD2AF004E
:100E5C0000C2AF205A0A793C206D0279143066E04A
:100E6C003063027978C3E58B9940D5E59BF4544007
:100E7C00B52002C107D8C9D2AF22C25B789CE61458
:100E8C00600AE53F147005206302D25B30630B05EA
:100E9C0038205810753800020EB0205807158115EF
:100EAC008102175E22759100C3E4954EF594E4958A
:100EBC004FF595759104D258220539205B0375398D
:100ECC0000305B2378A3E6FFBF0108D25CC292C25C
:100EDC0096C295B126305802C1E1BF0208D25CC25D
:100EEC0092C296C295D1B1305802C1F322C2AFC2A0
:100EFC0094206A03020F1890034730650F20750287
:100F0C00C297307502C2937406D5E0FD207502D2EB
:100F1C0093307502D297759F80753E02021083C282
:100F2C00AF206A03020F4D9002FE306517C2942069
:100F3C007502C297307502C2937406D5E0FD020F9C
:100F4C00509001E1207502C296307502C292305A5F
:100F5C0006E5256002D295207503759F89307503CF
:100F6C00759F81753E03021083C2AF207502C29338
:100F7C00307502C297206A03020F949002BD30654F
:100F8C0007C2947406D5E0FD207502D29730750225
:100F9C00D293207503759F81307503759F89753EBB
:100FAC0004021083C2AF206A03020FD290027C307D
:100FBC006517207502C293307502C297C2947406ED
:100FCC00D5E0FD020FD59001CFC295305A0EE52524
:100FDC00600A207502D292307502D296759F807588
:100FEC003E05021083C2AF207502C297307502C253
:100FFC0093206A0302101890023330650F2075029B
:10100C00C293307502C2977406D5E0FDD294207558
:10101C0003759F89307503759F81753E0602108399
:10102C00C2AF206A030210569003A030651F2075D2
:10103C0002C293307502C297207502C297307502B6
:10104C00C2937406D5E0FD0210599001F32075028D
:10105C00C292307502C296305A0EE525600A207590
:0E106C0002D296307502D292207503759F81D4
:10107A00307503759F89753E01D2AF789CE6C3949B
:10108A00024007C3E53994035002C25C229001CDA5
:10109A00C292C296C295C293C297C294C25A22C33E
:1010AA00E5509535E55195365001227890E6FFC313
:1010BA00EF94055018C3EF9404501BC3EF940350E8
:1010CA001EC3EF94025021C3EF94015024C3E5508C
:1010DA00943CF8021104C3E5509428F8021104C3A1
:1010EA00E550941AF8021104C3E5509412F802115B
:1010FA0004C3E550940AF8021104E5519400F988F2
:10110A0050895122305802210E22788076090876B9
:10111A00090876040876010876030876FF08760936
:10112A00087601087601087601788C76000876FF41
:10113A000876FF0876010876050876FF0876030820
:10114A0076060876FF0876020876030876FA0876A5
:10115A005008765008760508760D0876020876005B
:10116A0008767D227893E6FF756609756701C3BF25
:10117A000206756605756701C3BF030675660575C0
:10118A006702C3BF0406756605756703C3BF050614
:10119A00756609756707C3BF060675660075670039
:1011AA007887E6FFC26CC3BF0302D26CC26BC3BFAF
:1011BA000402D26BC26A7418552D6002D26AC265E3
:1011CA006002D265D2666002C2667888E6C394037A
:1011DA006008C275E630E102D275C2767889E630D7
:1011EA00E102D276C3EF94026008758E01D26D02D5
:1011FA001201758E00C26D227880E61490008093E9
:10120A00789FF67881E6149000809378A0F611977B
:10121A0022789BE61490008D9378A1F61197227894
:10122A0086E61490009A9378A2F6119722789CE6A3
:10123A00149000A79378A3F6119722227896E6FADB
:10124A007897E6FB3077047A007BFFC3EB9AFCC3FE
:10125A00948250027C82756E00056EEC856EF0A455
:10126A00C3E5F0948040F222E5EF20E60375200002
:10127A000520903FFFE520146006901FFF146000D0
:10128A009304600375EF12C2D353D9BF7581C0436B
:10129A00FF801207EB75EF0243B203E5B324044063
:1012AA0002F5B311977580FF75A40075F1F075D436
:1012BA00DF75900275A5FC75F2FD75D50275A6104D
:1012CA0075A0FF75F3F175E241E4F8F6D8FD311423
:1012DA00316E5102511B5129513751455146789867
:1012EA00866F119775885075890275C8247591049F
:1012FA0075D840C2AF12080412081B1207FA120866
:10130A00221207FA1208291207FA1208301207FAEB
:10131A001208141208041208041207FF75A822758D
:10132A00B80275E690759B80759D0375D10E75BCE4
:10133A005875BB0975BA1175E8801207EBD2AF125E
:10134A000AD343DA01C2D8C269120804753001D23D
:10135A00597A05E55870027A051207F0E559C394DF
:10136A000240EEE52E541F855B5AF55BB55AE2DA68
:10137A00E2C25953DACF20760343DA2030760343A8
:10138A00DA10C2D8C2691207FF1207F07802741F76
:10139A00552E70027800C3E5599840EDC2AF120885
:1013AA001B1207FA12081B1207FA1208221207FA6E
:1013BA001208221207FAD2AF120804754800C3E5D0
:1013CA0059954840038559481207FFC3E5599401C6
:1013DA00400280EAC2AF1208301207FA120830122D
:1013EA0007FA1208291207FA1208291207FAD2AFC5
:1013FA00120804753000E4F531F5320531E531F4AF
:10140A0070390532789AE6781914601278321460C5
:10141A000D787D14600878FA146003753200C3E50C
:10142A003298401715327531B47899866FC2AF1267
:10143A000830D2AF7898866F1207FF1207F5E528B1
:10144A007008741F552E70026159C3E559940640FD
:10145A00AA7888E6C3940360031207FFE52870039D
:0E146A00021359C2AF1197E4F522F523F524C1
:10147800F525D2AF78858661F540F541F542F5430B
:10148800F544F56CF549F52BF52CF539120C517529
:101498006C0875BB101207EB120B6EE5E820ECFB2D
:1014A800A8BDA9BEE97001F8886D120B72756C08A9
:1014B80075BB107895E630E0030215057887E6FEDF
:1014C8007602316E7887EEF6D261C2AF755EFF1292
:1014D8000C2185225E85225FD2AFC2617525018508
:1014E8005D64756501D260D263753800120FF11121
:1014F8002C120CCB120C51120D4E02162D7887E6C9
:10150800FE76037893E6FD7605316E7887EEF678F9
:1015180093EDF6D260D261D265120FF1112C755E8F
:10152800FF120C211207EB120EF91207EB1207EB50
:10153800120F2B1207F0120F751207F01207F01294
:101548000FB01207F5120FF11207F01207EBC26184
:10155800D262120B6E120B72120C21756C0875BBDD
:1015680010112C120CC4120D4E11A9310E120EF9C5
:10157800120CC4120D4E11A9310E120F2B120CC4ED
:10158800120D4E11A9310E120F75120CC4120D4E08
:1015980011A9310E120FB0120CC4120D4E11A9313F
:1015A8000E120FF1120CC4120D4E11A9C3E550957D
:1015B80035E5519536400C310EC3E55994015092EA
:1015C80002175E310EC2627887E6FE7602316E78C7
:1015D80087EEF685225E85605F856025855D64758A
:1015E8006501D263753800C2AF207502C2933075A9
:1015F80002C297207502C297307502C293742DD526
:10160800E0FDD2AF112C120CCB120D3A120D4E1276
:101618000DDF756C0075BB0902162D316E112C7526
:101628006C0075BB09120E01120E86120EB112095A
:101638001A120EC5120EF9120CCB120D3A120D4EDB
:10164800120DDF120DF8120E86120EB11209771262
:101658000EC5120F2B120CCB120D3A120D4E120D95
:10166800DF120E01120E86120EB11209B0120EC54B
:10167800120F75120CCB120D3A120D4E120DDF120D
:101688000DF8120E86120EB1120A0D120EC5120FA7
:10169800B0120CCB120D3A120D4E120DDF120E01C4
:1016A800120E86120EB1120A71120EC5120FF11225
:1016B8000CCB120D3A120D4E120DDF120DF8120B53
:1016C8006E120E86120EB1120B72120EC5112C126A
:1016D8000CCB120D3A120D4E120DDF3063428560AD
:1016E8005E85605F855D6475650179647A147888C4
:1016F800E6B40304791E7A05C3E538994015C26338
:10170800D2648A377888E6B40306755EFF755FFF92
:10171800021728C3E5599401400302162D02175EEB
:10172800306419E537147005C264021623F537C30F
:10173800E5599401400302162D02175EC3E55C9437
:10174800FA5013741F552E7004E5286009C3E53D4F
:1017580094F05002C12DC2AF11977887E6FE760249
:10176800316E7887EEF6E4F522F523F524F525F5B4
:1017780061C260D2AF1207EB1197741F552E700625
:08178800E5287002615981009F
:101A00000B02110909040103FF0901010155AA0094
:101A1000FFFF0105FF0306FF0203FA5050050D0208
:031A2000007DFF47
:101A400023506C6174696E756D50726F3330412331
:101A500023424C48454C492346333930232020202B
:101A60006F72672E736B797075702E6573632E625B
:00000001FF
