:030000000212D811
:03000B000200BA36
:03002B000203E7E6
:03005B0002054655
:0300730002053C47
:1000800002030406080C10182030406080020304AC
:1000900006080C101820304080FF0406080C1018C9
:1000A0002030406080A0C00002010D0D0405060252
:1000B0000D0505050D0604050302C2AFC0D0C0E062
:1000C000205A1030600A205C07302F02E47380FC55
:1000D0000203D3306306D297D295D29385258AC284
:1000E0005AE525F4700221C60563306013206A19B1
:1000F000758B00D0E0D0D0D297D295D293D2AF32C8
:10010000D297D295D2930201B6D265C266E56760F6
:100110001CC3E5631495674014C265D266C3E563EA
:10012000956650030201B67563000201B6206C1497
:10013000D297D295D2937406D5E0FDD296D294D2BE
:10014000920201B6D266D297D295D293E53E20E2D2
:100150003420E1127406D5E0FD207502D29230758C
:1001600002D2960201B620E0127406D5E0FD207599
:1001700002D292307502D2960201B67406D5E0FD25
:10018000D2940201B620E11F20E00A7406D5E0FDFA
:10019000D2940201B67406D5E0FD207502D29630E5
:1001A0007502D2920201B67406D5E0FD207502D226
:1001B00096307502D292758B00D0E0D0D0D297D213
:1001C00095D293D2AF32D0E0D0D0D2AF3261D3E566
:1001D00025600A207502C297307502C293D29561DC
:1001E000D3E5256002C295207502D293307502D204
:1001F0009761D3E525600A207502C293307502C26B
:1002000097207502D297307502D29361D320750280
:10021000C296307502C292E525600A207502C29727
:10022000307502C293207502C292307502C296D216
:100230009561D3207502C296307502C29220750274
:10024000C292307502C2967406D5E0FDE525600ABB
:10025000207502C297307502C293D29561D3207582
:1002600002C296307502C292E525600A207502C26C
:1002700097307502C293C294D29561D3207502C2A1
:1002800096307502C292C2947406D5E0FDE52560F1
:100290000A207502C297307502C293D29561D3C20B
:1002A00094E5256002C295207502C296307502C29F
:1002B00092207502D293307502D29761D3C29420F6
:1002C0007502C296307502C2927406D5E0FDE5252E
:1002D0006002C295207502D293307502D29761D325
:1002E000C294E5256002C295207502C29230750263
:1002F000C296207502D293307502D29761D3C29410
:10030000207502C292307502C2967406D5E0FDE5F2
:10031000256002C295207502D293307502D2976192
:10032000D3207502C292307502C296E525600A207C
:100330007502C293307502C297C294207502D2979B
:10034000307502D29361D3207502C292307502C219
:1003500096C2947406D5E0FDE525600A207502C2B8
:1003600093307502C297207502D297307502D293EE
:1003700061D3207502C292307502C296E525600AEB
:10038000207502C293307502C297207502C2963062
:100390007502C292207502D297307502D29361D352
:1003A000207502C292307502C296207502C2963044
:1003B0007502C2927406D5E0FDE525600A2075023B
:1003C000C293307502C297207502D297307502D25F
:1003D0009361D3E525F4F58A758B00756200D25AD6
:1003E000D0E0D0D0D2AF32C2AFC2AD53E6EFC0D072
:1003F000C0E0D2D3D2AFC2CEE528600A741F552E1A
:1004000060491528814B78007900E580307601F449
:1004100030E50278FF53DACF20760343DA203076D6
:100420000343DA10C2D8C269E580307601F430E5C2
:100430000279FFC3E89970CE305903752818741FEC
:10044000552E60037528188859D268E5296004156F
:1004500029815E741F552E600543DA01C2D82068D9
:100460000281E7E559F8C268741F552E603679821B
:0E047000B70431C3E894F0400374F0F8E8C418
:10047E00540F28F87984B7030281A4C313C31387DA
:10048E0021200802C313200A06C3C898F881A428A5
:10049E00F8500374FFF8E52C5406703D8822306343
:1004AE000AC3E522955E4003855E227882B6042952
:1004BE00C3E5229524401278A196400DE52426F539
:1004CE002450097524FF0204DA852224A824C3E5EA
:1004DE0024955E4002A85E882520CF0CD0E0D0D0B7
:1004EE00C2D343E610D2AD32C2CF7801E528600800
:1004FE00741F552E70021528C3E5599401400575D9
:10050E005C00A123755D00756400E55C2401F55C5B
:10051E005003755CFFE55F240A5005755FFFA1303F
:10052E00F55FD0E0D0D0C2D343E610D2AD32C2AF29
:10053E0053917FC258D2AF32C2AF53E6EFC2ADC0B5
:10054E00D0C0E0C0F0D2D3D2AFA8FBA9FCC2D83045
:10055E006902A1B153DACF20760343DA1030760365
:10056E0043DA20D269E580307601F420E502A185D8
:10057E00882689270207D553DACF20760343DA205F
:10058E0030760343DA10C2D8C269741F552E70023A
:10059E00E1BB7800E580307601F430E502E1BB88FE
:1005AE0059E18653DACF20760343DA2030760343BF
:1005BE00DA10C269205902C16B53DACF2076034399
:1005CE00DA1030760343DA20C2D8D26988548955BE
:1005DE00C3E89552F8E99553F9E4FB7AFAC3E89427
:1005EE00C8E994005008E4D2E4FB7A0AC13EC3E89D
:1005FE009468E994015008E4D2E3FB7A0FC13EC33C
:10060E00E894D0E994025008E4D2E2FB7A1EC13E8F
:10061E00C3E894A0E994055008E4D2E1FB7A3CC10A
:10062E003EC3E89498E994085006E4D2E0FB7A7849
:10063E00C3E89556FCE99557FD30E708ECF4240124
:10064E00FCEDF4FD7558007008C3EC9A5003755814
:10065E000188568957A854A95588528953C3E895DD
:10066E0026F8E99527F9307402E16A307302E16ADF
:10067E00307202E163E9C313F9E813F8307102E155
:10068E0063E9C313F9E813F8307002E163E9C313A9
:10069E00FDE813FC205918C3EC941CED94024003A2
:1006AE000207BBED7009C3EC94C850030207BB747C
:1006BE000020770B7888E67896B40302789EE624BD
:1006CE00FAFEE43400FFC3EC9EFCED9FFD92087829
:1006DE0088E6B40322A208500920751BC2AFD2755A
:1006EE00C1F7307512C2AFC275D297D295D293C2EE
:1006FE0096C294C292D2AFA2085017E6B4030DEC84
:10070E00F42401FCEDF43400FD020720780079009A
:10071E00E16A7888E6B40315EC33FCED33FDC3ECE7
:10072E009405FCED9400FD50047C007D00C3EC9418
:10073E00FFED9400400678FF7900E16AEC856EF0DB
:10074E00A4C5F0A2F733F87900400302078678FFBC
:10075E007900020786E9C313F9E813F830740EE93D
:10076E00600278FFC3E81338F8E43400F9C3E89464
:10077E00FFE99400400278FFC3E894A0500578008A
:10078E0002079378018874A874B80107787F885996
:10079E000207A8780088590207A8E559F573D268B0
:1007AE00205902E1BB741FF4552E4BF52E752818F7
:1007BE00741F552E700375280A305902E1D5741F27
:1007CE00552E600353DAFE752906741F552E7003DD
:1007DE0075290AD0F0D0E0D0D0C2D3D2AD43E61006
:1007EE0032790102080D790302080D790A02080D0B
:1007FE00791E02080D796402080D79C802080D7879
:10080E0017E4D5E0FDD8FAD9F6227C051108DCFCF8
:10081E00227A147B7802083B7A107B8C02083B7A92
:10082E000D7BB402083B7A0B7BC802083BAC2575E6
:10083E0025017902B275E4C294D5E0FDE52560028A
:10084E00C295D5E0FDD295D5E0FDD294D5E0FDE57B
:10085E0025600A207502C297307502C293E56FD5E6
:0E086E00E0FD207502D297307502D293749689
:10087C00D5E0FDD9C1EAF8D5E0FDD8FBDBB1C294D7
:10088C008C2522C37C007D0075F00005F0EA33FA5C
:10089C00EB33FB50F6EB13FBEA13FAC3E9FFE8FE6C
:1008AC00E89AF8E99BF95004EFF9EEF8B3EC33FC55
:1008BC00ED33FDD5F0DFEDF9ECF822E889F08A2074
:1008CC00D2D4F8A9F07B0030F70B7BFFF42401F8AD
:1008DC00E9F43400F9E88520F0A4ADF0F8E98520BE
:1008EC00F0A4AFF0FEED2EF974003FFA7C04C3EADD
:1008FC0013FAE913F9E813F8DCF48BF030F70AE893
:10090C00F42401F8E9F43400F9E889F0C2D4F8A928
:10091C00F0227882B6040302097AC3E559940140A7
:10092C0003020943852224E4F540F541F542F543E1
:10093C00F544F54902097A7882E6FC754901E5220D
:10094C00F523783879C7AA3CAB3DC3EB13FBEA130C
:10095C00FAEC146013C3EB13FBEA13FAEC141460F7
:10096C0007C3EB13FBEA13FA118F8840894122E588
:10097C00496034C3E5409523F8E5419400F9500CE7
:10098C00C3E89480E994FF40160209AFC3E8947F52
:10099C00E9940050030209AF787F79000209AF781F
:1009AC008079FF8845894622E5496058E54525420E
:1009BC00F8E5463543F9854620E4300701F4354423
:1009CC00FA30E709C3EA94F040150209F1C3EA943E
:1009DC000F50030209F178FF79FF7A0F0209F178C1
:1009EC000079007AF0C3E524955E5006E524600991
:1009FC00410AE54620E70D410AE54630E706884204
:100A0C0089438A4422E5497003020A74789FE6FA06
:100A1C00C3E54533F8E54633F911C7E930E70BC3B5
:100A2C00E89480E994FF4013414BC3E8947FE99428
:100A3C00005002414B787F7900414B788079FFE878
:100A4C0020E715C3E52398F84009C3E89401400357
:100A5C00020A727801020A72E8F424012523F84094
:100A6C0003020A7278FF884722E5497003020AD60E
:100A7C0078A0E6FAA843A94411C7E930E70CC3E80B
:100A8C009401E994FF4016020AADC3E894FFE9947F
:100A9C00005003020AAD78FF7900020AAD780179A3
:100AAC00FFE920E715C3E54798F84009C3E894012E
:100ABC004003020AD47800020AD4E8F42401254742
:100ACC00F84003020AD478FF8824227883E6F520C4
:100ADC0012103975E8901207EF75E890E5E820ECF4
:100AEC00FBA8BDA9BE1210F1756A55756B00C374D5
:100AFC000013FD745513FC74552CFC74003DFDEC77
:100B0C00FAEDFBC3E89AE99B4014E56A2455F56AB3
:100B1C00E56B3400F56BEA2CFAEB3DFB80E5AE6A35
:100B2C00AF6BC3E56B13F9E56A13F8C3E913F9E886
:100B3C0013F8E56A28F568E56B39F5697A03C3E9BA
:100B4C0013F9E813F8DAF7AA201A7009756A007518
:100B5C006B00020B711AEA6008EE28FEEF39FFDA1F
:100B6C00F88E6A8F6B2275E890227883E6FFE5E8B1
:100B7C0020ECF7A8BDA9BE056CC3E56C9408404BEE
:100B8C00756C00E97007E56D601B020BA5C3E89559
:100B9C006D6010E56D5006600C14020BB10460F929
:100BAC00020BB1E56DF56DC3946D401B755EC0C352
:100BBC0094044013755E80C39404400B755E40C36F
:100BCC0094044003755E0075BB0822EFC39401606A
:100BDC001BC3E894FFE994035012C3E8956AE995A6
:100BEC006B5009E55E600C155E020BFFE55EF46070
:100BFC0002055EA85EC3E524985002A824C3E895BC
:100C0C005F400AA85FE55FF46003855F5E8825C3DB
:100C1C00E56CB4070375BB10223061027832306288
:100C2C00027878E52C5406601FE879A287F0A4C5F9
:100C3C00F0A2F733F8C3E8955E4002A85E882288DC
:100C4C00248825306102886022788FE6FFC3EF94F8
:100C5C00055018C3EF94045020C3EF94035028C3DD
:0E0C6C00EF94025030C3EF940150387533A05E
:100C7A0075340F75353C75360581BB7533C07534CF
:100C8A001275354075360681BB7533707534177524
:100C9A0035D075360781BB75334C75341D7535C42F
:100CAA0075360981BB7533287534237535B87536A1
:100CBA000B853350853451753C00753D0822A85088
:100CCA00A951020CD3A84AA94B759100C3E498F51F
:100CDA0094E499F595759104D25875C820A8CCA9C1
:100CEA00CD75C824AA3AAB3B883A893BC3E89AF83F
:100CFA00E99BF9AA3CAB3DC3EB13FDEA13FCC3ED38
:100D0A0013FDEC13FCC3EA9CFAEB9DFBEA28FAEB11
:100D1A0039FB8A3C8B3D400122753CFF753DFF2221
:100D2A00759100C3E4954CF594E4954DF59575914C
:100D3A0004D258227F01789CE61460027F02305860
:100D4A0002A148B12ADFF7227892E6FF7E14A83D75
:100D5A00C3E8940440027804C3E833F8C3EE98FE6B
:100D6A003063047F037E00A93DA83C7A04C3E913DB
:100D7A00F9E813F8DAF7C3E89EF8E99400F94009AC
:100D8A00C3E89402E9940050047802E4F9E9FBE824
:100D9A00FAC3E913FDE813FCC3EF9403602EEF20B6
:100DAA00E00DE82CF8E93DF9ECFAEDFB020DC3E899
:100DBA0028F8E939F97A02E4FBC3EF9403400D8A73
:100DCA004E8B4F884A894B8C4C8D4D22884E894FC9
:100DDA008A4A8B4B8C4C8D4D22305802A1E3759177
:100DEA0000C3E4953CF594E4953DF595759104D2DC
:100DFA005822753F00752000020E0B753F007520C2
:100E0A0040D2AF053F20580122759D00E53DC3132E
:100E1A00C313F8086030306A06C313C313F808C353
:100E2A00E8940A4002780A306D08C3E89404400244
:100E3A007804C3E53D9408400D759D02C3E53D94D1
:100E4A00104003759D03205803D2AF227918206DF4
:100E5A00027908D2AF0000C2AF205A0A7914206D75
:100E6A000279073066E03063027978C3E58B9940EE
:100E7A00D5E59BF45440B52002C10BD8C9D2AF22A4
:100E8A00C25B789CE614600AE53F14700520630291
:100E9A00D25B30630B0538205810753800020EB447
:100EAA00205807158115810217B922759100C3E4EC
:100EBA00954EF594E4954FF595759104D25822050F
:100ECA0039205B03753900305B2378A3E6FFBF0145
:100EDA0008D25CD297D295D293B12A305802C1E592
:100EEA00BF0208D25CD297D295D293D1B5305802BC
:100EFA00C1F722C2AFC294206A03020F1C900347B3
:100F0A0030650F207502C292307502C2967406D5FA
:100F1A00E0FDE525600A207502C297307502C2938A
:100F2A00740FD5E0FD207502D297307502D2937402
:100F3A0006D5E0FD207502D296307502D292759FD1
:100F4A0010753E020210DDC2AF206A03020F7390D1
:100F5A0002FE306517C294207502C292307502C231
:100F6A00967406D5E0FD020F769001E1207502D253
:100F7A0093307502D297305A06E5256002C2952051
:100F8A007503759F13307503759F11753E03021023
:100F9A00DDC2AF207502C296307502C292206A0382
:100FAA00020FBA9002BD306507C2947406D5E0FDFF
:100FBA00E525600A207502C293307502C297740F44
:100FCA00D5E0FD207502D293307502D2977406D50A
:100FDA00E0FD207502D292307502D2962075037513
:100FEA009F11307503759F13753E040210DDC2AF61
:100FFA00206A0302101A90027C306517207502C21B
:10100A0096307502C292C2947406D5E0FD02101D94
:10101A009001CFD295305A0EE525600A207502C29A
:10102A0097307502C293759F10753E050210DDC296
:10103A00AF207502C292307502C296206A0302106E
:10104A006090023330650F207502C296307502C275
:10105A00927406D5E0FDE5256002C295740FD5E0CD
:0D106A00FDD2957406D5E0FDD294207503EB
:10107700759F13307503759F11753E060210DDC20B
:10108700AF206A030210B09003A030651F207502DD
:10109700C296307502C292207502C292307502C2A2
:1010A700967406D5E0FD0210B39001F3207502D2C5
:1010B70097307502D293305A0EE525600A207502E3
:1010C700C293307502C297207503759F113075035F
:1010D700759F13753E01D2AF789CE6C39402400713
:1010E700C3E53994035002C25C229001CDD297D256
:1010F70095D293C296C294C292C25A22C3E5509522
:1011070035E55195365001227890E6FFC3EF9405F7
:101117005018C3EF9404501BC3EF9403501EC3EF42
:1011270094025021C3EF94015024C3E550943CF836
:1011370002115EC3E5509428F802115EC3E550948E
:101147001AF802115EC3E5509412F802115EC3E566
:1011570050940AF802115EE5519400F988508951BC
:1011670022305802216822788076090876090876A5
:10117700040876010876030876FF08760A087601E0
:10118700087601087601788C76000876FF0876FFE6
:101197000876010876050876FF08760308760608BC
:1011A70076FF0876020876030876FA0876500876FE
:1011B7005008760508760108760208760008767DDD
:1011C700757300757500757600757700227893E65C
:1011D700FF756609756701C3BF0206756605756702
:1011E70001C3BF0306756605756702C3BF040675AD
:1011F7006605756703C3BF0506756609756707C387
:10120700BF06067566007567007887E6FFC26CC380
:10121700BF0302D26CC26BC3BF0402D26BC26A7433
:1012270018552D6002D26AC2656002D265D2666027
:1012370002C2667888E6C394036008C275E630E1A7
:1012470002D275C2767889E630E102D276C3EF948E
:10125700026008758E01D26D021267758E00C26D2D
:10126700227880E61490008093789FF67881E614C0
:101277009000809378A0F611F122789BE6149000F5
:101287008D9378A1F611F1227886E61490009A934F
:1012970078A2F611F122789CE6149000A79378A320
:1012A700F611F122227896E6FA7897E6FB30770472
:1012B7007A007BFFC3EB9AFCC3948250027C827551
:1012C7006E00056EEC856EF0A4C3E5F0948040F2E5
:1012D70022E5EF20E6037520000520903FFFE5207B
:1012E700146006901DFF1460009304600375EF12ED
:1012F700C2D353D9BF7581C043FF801207EF75EF83
:101307000243B203E5B324044002F5B311F175803B
:10131700FF75A40075F1B275D4DF7590A975A5FCAA
:1013270075F2FC75D50175A60175E241E4F8F6D8AA
:10133700FD316E31D451685181518F519D51AB515F
:10134700AC7898866F11F175885075890275C82435
:1013570075910475D840C2AF12080812081F12070A
:10136700FE1208261207FE12082D1207FE12083475
:101377001207FE1208181208081208081208037547
:10138700A82275B80275E690759B80759D0375D187
:101397000E75BC5875BB0875BA1175E8801207EF52
:1013A700D2AF120AD743DA01C2D8C2691208087548
:1013B7003001D2597A05E55870027A051207F4E52B
:1013C70059C3940240EEE52E541F855B5AF55BB571
:1013D7005AE2DAE2C25953DACF20760343DA2030F1
:1013E700760343DA10C2D8C2691208031207F478E9
:1013F70002741F552E70027800C3E5599840EDC25C
:10140700AF12081F1207FE12081F1207FE12082646
:101417001207FE1208261207FED2AF1208087548F7
:1014270000C3E55995484003855948120803C3E5A9
:10143700599401400280EAC2AF1208341207FE1223
:1014470008341207FE12082D1207FE12082D120784
:10145700FED2AF120808753000E4F531F5320531D8
:0F146700E531F470390532789AE678191460127D
:10147600783214600D787D14600878FA146003756C
:101486003200C3E53298401715327531B478998623
:101496006FC2AF120834D2AF7898866F1208031263
:1014A60007F9E5287008741F552E700261B9C3E567
:1014B60059940640AA7888E6C39403600312080389
:1014C600E52870030213B9C2AF11F1E4F522F52342
:1014D600F524F525D2AF78858661F540F541F542CC
:1014E600F543F544F56CF549F52BF52CF539120C59
:1014F60055756C0875BB101207EF120B72E5E820E4
:10150600ECFBA8BDA9BEE97001F8886D120B7675D3
:101516006C0875BB107895E630E003021564788791
:10152600E6FE760231D47887EEF6D261C2AF755EFA
:10153600FF120C2585225E85225FD2AFC26175251A
:1015460001855D64756501D260D263753800113915
:101556001186120CCF120C55120D5202168978877D
:10156600E6FE76037893E6FD760531D47887EEF6C7
:101576007893EDF6D260D261D26511391186755E27
:10158600FF120C251207EF120EFD1207EF1207EFDE
:10159600120F511207F4120F9B1207F41207F412DE
:1015A6000FF81207F911391207F41207EFC261D2C8
:1015B60062120B72120B76120C25756C0875BB1035
:1015C6001186120CC8120D5231033168120EFD122B
:1015D6000CC8120D5231033168120F51120CC81289
:1015E6000D5231033168120F9B120CC8120D523185
:1015F600033168120FF8120CC8120D52310331680C
:101606001139120CC8120D523103C3E5509535E558
:10161600519536400C3168C3E55994015093021731
:10162600B93168C2627887E6FE760231D47887EEF1
:10163600F685225E85605F856025855D647565013A
:10164600D263753800C2AF207502C296307502C2E9
:1016560092207502C292307502C296742DD5E0FDB5
:10166600D2AF1186120CCF120D3E120D52120DE39F
:10167600756C0075BB0802168931D41186756C002D
:1016860075BB08120E05120E8A120EB512091E122D
:101696000EC9120EFD120CCF120D3E120D52120D76
:1016A600E3120DFC120E8A120EB512097B120EC938
:1016B600120F51120CCF120D3E120D52120DE312E3
:1016C6000E05120E8A120EB51209B4120EC9120FA9
:1016D6009B120CCF120D3E120D52120DE3120DFC91
:1016E600120E8A120EB5120A11120EC9120FF81234
:1016F6000CCF120D3E120D52120DE3120E05120EF4
:101706008A120EB5120A75120EC91139120CCF12B1
:101716000D3E120D52120DE3120DFC120B72120E3B
:101726008A120EB5120B76120EC91186120CCF1242
:101736000D3E120D52120DE330634285605E8560E8
:101746005F855D6475650179647A147888E6B4030B
:1017560004791E7A05C3E538994015C263D2648AB6
:10176600377888E6B40306755EFF755FFF02178358
:10177600C3E559940140030216890217B93064196A
:10178600E537147005C26402167FF537C3E5599430
:101796000140030216890217B9C3E55C94FA501397
:1017A600741F552E7004E5286009C3E53D94F0507A
:1017B60002C189C2AF11F17887E6FE760231D4788C
:1017C60087EEF6E4F522F523F524F525F561C260EA
:1017D600D2AF1207EF11F1741F552E7006E528706F
:0517E6000261B9816001
:101A00000B02110909040103FF0A01010155AA0093
:101A1000FFFF0105FF0306FF0203FA505005010214
:031A2000007DFF47
:101A400023536B7977616C6B6572323041232020B0
:101A500023424C48454C4923463333302320202031
:101A60006F72672E736B797075702E6573632E625B
:00000001FF
