:030000000212C128
:03000B000200BA36
:03002B000203E7E6
:03005B0002054655
:0300730002053C47
:1000800002030406080C10182030406080020304AC
:1000900006080C101820304080FF0406080C1018C9
:1000A0002030406080A0C00002010D0D0405060252
:1000B0000D0505050D0604050302C2AFC0D0C0E062
:1000C000205A1030600A205C07302F02E47380FC55
:1000D0000203D3306306D297D295D29385258AC284
:1000E0005AE525F4700221C60563306013206A19B1
:1000F000758B00D0E0D0D0D297D295D293D2AF32C8
:10010000D297D295D2930201B6D265C266E56760F6
:100110001CC3E5631495674014C265D266C3E563EA
:10012000956650030201B67563000201B6206C1497
:10013000D297D295D2937406D5E0FDD296D294D2BE
:10014000920201B6D266D297D295D293E53E20E2D2
:100150003420E1127406D5E0FD207502D29230758C
:1001600002D2960201B620E0127406D5E0FD207599
:1001700002D292307502D2960201B67406D5E0FD25
:10018000D2940201B620E11F20E00A7406D5E0FDFA
:10019000D2940201B67406D5E0FD207502D29630E5
:1001A0007502D2920201B67406D5E0FD207502D226
:1001B00096307502D292758B00D0E0D0D0D297D213
:1001C00095D293D2AF32D0E0D0D0D2AF3261D3E566
:1001D00025600A207502C297307502C293D29561DC
:1001E000D3E5256002C295207502D293307502D204
:1001F0009761D3E525600A207502C293307502C26B
:1002000097207502D297307502D29361D320750280
:10021000C296307502C292E525600A207502C29727
:10022000307502C293207502C292307502C296D216
:100230009561D3207502C296307502C29220750274
:10024000C292307502C2967406D5E0FDE525600ABB
:10025000207502C297307502C293D29561D3207582
:1002600002C296307502C292E525600A207502C26C
:1002700097307502C293C294D29561D3207502C2A1
:1002800096307502C292C2947406D5E0FDE52560F1
:100290000A207502C297307502C293D29561D3C20B
:1002A00094E5256002C295207502C296307502C29F
:1002B00092207502D293307502D29761D3C29420F6
:1002C0007502C296307502C2927406D5E0FDE5252E
:1002D0006002C295207502D293307502D29761D325
:1002E000C294E5256002C295207502C29230750263
:1002F000C296207502D293307502D29761D3C29410
:10030000207502C292307502C2967406D5E0FDE5F2
:10031000256002C295207502D293307502D2976192
:10032000D3207502C292307502C296E525600A207C
:100330007502C293307502C297C294207502D2979B
:10034000307502D29361D3207502C292307502C219
:1003500096C2947406D5E0FDE525600A207502C2B8
:1003600093307502C297207502D297307502D293EE
:1003700061D3207502C292307502C296E525600AEB
:10038000207502C293307502C297207502C2963062
:100390007502C292207502D297307502D29361D352
:1003A000207502C292307502C296207502C2963044
:1003B0007502C2927406D5E0FDE525600A2075023B
:1003C000C293307502C297207502D297307502D25F
:1003D0009361D3E525F4F58A758B00756200D25AD6
:1003E000D0E0D0D0D2AF32C2AFC2AD53E6EFC0D072
:1003F000C0E0D2D3D2AFC2CEE528600A741F552E1A
:1004000060491528814B78007900E580307601F449
:1004100030E50278FF53DACF20760343DA203076D6
:100420000343DA10C2D8C269E580307601F430E5C2
:100430000279FFC3E89970CE305903752818741FEC
:10044000552E60037528188859D268E5296004156F
:1004500029815E741F552E600543DA01C2D82068D9
:100460000281E7E559F8C268741F552E603679821B
:0E047000B70431C3E894F0400374F0F8E8C418
:10047E00540F28F87984B7030281A4C313C31387DA
:10048E0021200802C313200A06C3C898F881A428A5
:10049E00F8500374FFF8E52C5406703D8822306343
:1004AE000AC3E522955E4003855E227882B6042952
:1004BE00C3E5229524401278A196400DE52426F539
:1004CE002450097524FF0204DA852224A824C3E5EA
:1004DE0024955E4002A85E882520CF0CD0E0D0D0B7
:1004EE00C2D343E610D2AD32C2CF7801E528600800
:1004FE00741F552E70021528C3E5599401400575D9
:10050E005C00A123755D00756400E55C2401F55C5B
:10051E005003755CFFE55F240A5005755FFFA1303F
:10052E00F55FD0E0D0D0C2D343E610D2AD32C2AF29
:10053E0053917FC258D2AF32C2AF53E6EFC2ADC0B5
:10054E00D0C0E0C0F0D2D3D2AFA8FBA9FCC2D83045
:10055E006902A1B153DACF20760343DA1030760365
:10056E0043DA20D269E580307601F420E502A185D8
:10057E00882689270207D153DACF20760343DA2063
:10058E0030760343DA10C2D8C269741F552E70023A
:10059E00E1B77800E580307601F430E502E1B78806
:1005AE0059E18653DACF20760343DA2030760343BF
:1005BE00DA10C269205902C16B53DACF2076034399
:1005CE00DA1030760343DA20C2D8D26988548955BE
:1005DE00C3E89552F8E99553F9E4FB7AFAC3E89427
:1005EE00C8E994005008E4D2E4FB7A0AC13EC3E89D
:1005FE009468E994015008E4D2E3FB7A0FC13EC33C
:10060E00E894D0E994025008E4D2E2FB7A1EC13E8F
:10061E00C3E894A0E994055008E4D2E1FB7A3CC10A
:10062E003EC3E89498E994085006E4D2E0FB7A7849
:10063E00C3E89556FCE99557FD30E708ECF4240124
:10064E00FCEDF4FD7558007008C3EC9A5003755814
:10065E000188568957A854A95588528953C3E895DD
:10066E0026F8E99527F9307402E16A307302E16ADF
:10067E00307202E163E9C313F9E813F8307102E155
:10068E0063E9C313F9E813F8307002E163E9C313A9
:10069E00FDE813FC205918C3EC941CED94024003A2
:1006AE000207B7ED7009C3EC94C850030207B77484
:1006BE000020770B7888E67896B40302789EE624BD
:1006CE00FAFEE43400FFC3EC9EFCED9FFD92087829
:1006DE0088E6B40322A208500920751BC2AFD2755A
:1006EE00C1F7307512C2AFC275D297D295D293C2EE
:1006FE0096C294C292D2AFA2085017E6B4030DEC84
:10070E00F42401FCEDF43400FD020720780079009A
:10071E00E16A7888E6B40315EC33FCED33FDC3ECE7
:10072E009405FCED9400FD50047C007D00C3EC9418
:10073E00FFED9400400678FF7900E16AEC856EF0DB
:10074E00A4C5F0A2F733F87900400302078678FFBC
:10075E007900020786E9C313F9E813F830740EE93D
:10076E00600278FFC3E81338F8E43400F9C3E89464
:10077E00FFE99400400278FFC3E894A0500278008D
:10078E00C3E89573400E9402400AC3E5732402F841
:10079E00500278FFE559F5738859D268205902E165
:1007AE00B7741FF4552E4BF52E752818741F552E41
:1007BE00700375280A305902E1D1741F552E60035B
:1007CE0053DAFE752906741F552E700375290AD04B
:1007DE00F0D0E0D0D0C2D3D2AD43E61032790102D0
:1007EE0008097903020809790A020809791E020824
:1007FE0009796402080979C80208097817E4D5E076
:10080E00FDD8FAD9F6227A147B780208307A107B5A
:10081E008C0208307A0D7BB40208307A0B7BC8024A
:10082E000830AC257525017902B275E4C294D5E085
:10083E00FDE5256002C295D5E0FDD295D5E0FDD24D
:10084E0094D5E0FDE525600A207502C29730750249
:10085E00C293E56FD5E0FD207502D297307502D2B6
:0F086E00937496D5E0FDD9C1EAF8D5E0FDD8FB2B
:10087D00DBB1C2948C2522C37C007D0075F0000590
:10088D00F0EA33FAEB33FB50F6EB13FBEA13FAC342
:10089D00E9FFE8FEE89AF8E99BF95004EFF9EEF864
:1008AD00B3EC33FCED33FDD5F0DFEDF9ECF822E8D8
:1008BD0089F08A20D2D4F8A9F07B0030F70B7BFFAA
:1008CD00F42401F8E9F43400F9E88520F0A4ADF042
:1008DD00F8E98520F0A4AFF0FEED2EF974003FFA93
:1008ED007C04C3EA13FAE913F9E813F8DCF48BF08E
:1008FD0030F70AE8F42401F8E9F43400F9E889F056
:10090D00C2D4F8A9F0227882B6040302096FC3E5B8
:10091D005994014003020938852224E4F540F5413C
:10092D00F542F543F544F54902096F7882E6FC7509
:10093D004901E522F523783879C7AA3CAB3DC3EBD5
:10094D0013FBEA13FAEC146013C3EB13FBEA13FA6F
:10095D00EC14146007C3EB13FBEA13FA11848840FF
:10096D00894122E5496034C3E5409523F8E541947A
:10097D0000F9500CC3E89480E994FF40160209A4D5
:10098D00C3E8947FE9940050030209A4787F7900AD
:10099D000209A4788079FF8845894622E549605887
:1009AD00E5452542F8E5463543F9854620E430070F
:1009BD0001F43544FA30E709C3EA94F04015020911
:1009CD00E6C3EA940F50030209E678FF79FF7A0F28
:1009DD000209E6780079007AF0C3E524955E5006A9
:1009ED00E524600921FFE54620E70D21FFE54630AE
:1009FD00E706884289438A4422E5497003020A6961
:100A0D00789FE6FAC3E54533F8E54633F911BCE9BD
:100A1D0030E70BC3E89480E994FF40134140C3E8ED
:100A2D00947FE9940050024140787F7900414078ED
:100A3D008079FFE820E715C3E52398F84009C3E85E
:100A4D0094014003020A677801020A67E8F4240161
:100A5D002523F84003020A6778FF884722E549708D
:100A6D0003020ACB78A0E6FAA843A94411BCE930E9
:100A7D00E70CC3E89401E994FF4016020AA2C3E80B
:100A8D0094FFE994005003020AA278FF7900020A4C
:100A9D00A2780179FFE920E715C3E54798F84009E9
:100AAD00C3E894014003020AC97800020AC9E8F4B8
:100ABD0024012547F84003020AC978FF88242278CB
:100ACD0083E6F52012102E75E8901207EB75E8906D
:100ADD00E5E820ECFBA8BDA9BE1210E6756A5575B8
:100AED006B00C3740013FD745513FC74552CFC740A
:100AFD00003DFDECFAEDFBC3E89AE99B4014E56A75
:100B0D002455F56AE56B3400F56BEA2CFAEB3DFBE9
:100B1D0080E5AE6AAF6BC3E56B13F9E56A13F8C3F5
:100B2D00E913F9E813F8E56A28F568E56B39F56915
:100B3D007A03C3E913F9E813F8DAF7AA201A700952
:100B4D00756A00756B00020B661AEA6008EE28FEE6
:100B5D00EF39FFDAF88E6A8F6B2275E89022788371
:100B6D00E6FFE5E820ECF7A8BDA9BE056CC3E56C72
:100B7D009408404B756C00E97007E56D601B020B26
:100B8D009AC3E8956D6010E56D5006600C14020B6C
:100B9D00A60460F9020BA6E56DF56DC3946D401BBF
:100BAD00755EC0C394044013755E80C39404400BFE
:100BBD00755E40C394044003755E0075BB0822EF5B
:100BCD00C39401601BC3E894FFE994035012C3E87A
:100BDD00956AE9956B5009E55E600C155E020BF4A4
:100BED00E55EF46002055EA85EC3E524985002A898
:100BFD0024C3E8955F400AA85FE55FF46003855F55
:100C0D005E8825C3E56CB4070375BB102230610205
:100C1D0078323062027878E52C5406601FE879A2AC
:100C2D0087F0A4C5F0A2F733F8C3E8955E4002A89B
:100C3D005E882288248825306102886022788FE6BC
:100C4D00FFC3EF94055018C3EF94045020C3EF94E5
:100C5D00035028C3EF94025030C3EF940150387500
:0D0C6D0033A075340F75353C75360581B028
:100C7A007533C075341275354075360681B07533D3
:100C8A00707534177535D075360781B075334C7564
:100C9A00341D7535C475360981B07533287534230A
:100CAA007535B875360B853350853451753C0075EA
:100CBA003D0822A850A951020CC8A84AA94B75910F
:100CCA0000C3E498F594E499F595759104D25875A2
:100CDA00C820A8CCA9CD75C824AA3AAB3B883A89C2
:100CEA003BC3E89AF8E99BF9AA3CAB3DC3EB13FD79
:100CFA00EA13FCC3ED13FDEC13FCC3EA9CFAEB9D6B
:100D0A00FBEA28FAEB39FB8A3C8B3D400122753C11
:100D1A00FF753DFF22759100C3E4954CF594E49567
:100D2A004DF595759104D258227F01789CE614609E
:100D3A00027F02305802A13DB11FDFF7227892E606
:100D4A00FF7E14A83DC3E8940440027804C3E83344
:100D5A00F8C3EE98FE3063047F037E00A93DA83CE9
:100D6A007A04C3E913F9E813F8DAF7C3E89EF8E955
:100D7A009400F94009C3E89402E994005004780207
:100D8A00E4F9E9FBE8FAC3E913FDE813FCC3EF94BD
:100D9A0003602EEF20E00DE82CF8E93DF9ECFAEDBE
:100DAA00FB020DB8E828F8E939F97A02E4FBC3EF47
:100DBA009403400D8A4E8B4F884A894B8C4C8D4D3B
:100DCA0022884E894F8A4A8B4B8C4C8D4D22305843
:100DDA0002A1D8759100C3E4953CF594E4953DF5DC
:100DEA0095759104D25822753F00752000020E00B5
:100DFA00753F00752040D2AF053F20580122759DEE
:100E0A0000E53DC313C313F8086030306A06C31304
:100E1A00C313F808C3E8940A4002780A306D08C37D
:100E2A00E8940440027804C3E53D9408400D759D9A
:100E3A0002C3E53D94104003759D03205803D2AFC9
:100E4A00227918206D027908D2AF0000C2AF205A69
:100E5A000A7914206D0279073066E03063027978E6
:100E6A00C3E58B9940D5E59BF45440B52002C100F7
:100E7A00D8C9D2AF22C25B789CE614600AE53F1457
:100E8A007005206302D25B30630B05382058107559
:100E9A003800020EA92058071581158102187B22F5
:100EAA00759100C3E4954EF594E4954FF5957591C7
:100EBA0004D258220539205B03753900305B237848
:100ECA00A3E6FFBF0108D25CD297D295D293B11F95
:100EDA00305802C1DABF0208D25CD297D295D293B7
:100EEA00D1AA305802C1EC22C2AFC294206A0302CE
:100EFA000F1190034730650F207502C292307502B8
:100F0A00C2967406D5E0FDE525600A207502C297EF
:100F1A00307502C293740FD5E0FD207502D2973066
:100F2A007502D2937406D5E0FD207502D29630750B
:100F3A0002D292759F10753E020210D2C2AF206A89
:100F4A0003020F689002FE306517C294207502C230
:100F5A0092307502C2967406D5E0FD020F6B9001BD
:100F6A00E1207502D293307502D297305A06E525F0
:100F7A006002C295207503759F13307503759F1122
:100F8A00753E030210D2C2AF207502C296307502B6
:100F9A00C292206A03020FAF9002BD306507C29465
:100FAA007406D5E0FDE525600A207502C293307506
:100FBA0002C297740FD5E0FD207502D293307502F4
:100FCA00D2977406D5E0FD207502D292307502D20E
:100FDA0096207503759F11307503759F13753E042E
:100FEA000210D2C2AF206A0302100F90027C306551
:100FFA0017207502C296307502C292C2947406D541
:10100A00E0FD0210129001CFD295305A0EE525600C
:10101A000A207502C297307502C293759F10753EF9
:10102A00050210D2C2AF207502C292307502C29672
:10103A00206A0302105590023330650F207502C2F0
:10104A0096307502C2927406D5E0FDE5256002C2AB
:10105A0095740FD5E0FDD2957406D5E0FDD29420A3
:0E106A007503759F13307503759F11753E0653
:101078000210D2C2AF206A030210A59003A0306507
:101088001F207502C296307502C292207502C29264
:10109800307502C2967406D5E0FD0210A89001F3DF
:1010A800207502D297307502D293305A0EE525602A
:1010B8000A207502C293307502C297207503759F86
:1010C80011307503759F13753E01D2AF789CE6C346
:1010D80094024007C3E53994035002C25C22900190
:1010E800CDD297D295D293C296C294C292C25A22B6
:1010F800C3E5509535E55195365001227890E6FFC5
:10110800C3EF94055018C3EF9404501BC3EF940326
:10111800501EC3EF94025021C3EF94015024C3E53D
:1011280050943CF8021153C3E5509428F802115327
:10113800C3E550941AF8021153C3E5509412F8020B
:101148001153C3E550940AF8021153E5519400F97C
:101158008850895122305802215D2278807609080A
:1011680076090876040876010876030876FF08767B
:1011780009087601087601087601788C76000876E9
:10118800FF0876FF0876010876050876FF087603DB
:101198000876060876FF0876020876030876FA08C5
:1011A800762808762808760508760D0876020876E7
:1011B8000008767D227893E6FF756609756701C396
:1011C800BF0206756605756701C3BF030675660528
:1011D800756702C3BF0406756605756703C3BF0557
:1011E80006756609756707C3BF06067566007567E5
:1011F800007887E6FFC26CC3BF0302D26CC26BC320
:10120800BF0402D26BC26A7418552D6002D26AC23A
:10121800656002D265D2666002C2667888E6C394C9
:10122800036008C275E630E102D275C2767889E6B5
:1012380030E102D276C3EF94026008758E01D26D58
:10124800021250758E00C26D227880E614900080DC
:1012580093789FF67881E6149000809378A0F61131
:10126800E622789BE61490008D9378A1F611E62289
:101278007886E61490009A9378A2F611E622789C74
:10128800E6149000A79378A3F611E622227896E652
:10129800FA7897E6FB3077047A007BFFC3EB9AFC79
:1012A800C3948250027C82756E00056EEC856EF0E8
:1012B800A4C3E5F0948040F222E5EF20E603752010
:1012C800000520903FFFE520146006901DFF146084
:1012D800009304600375EF12C2D353D9BF7581C060
:1012E80043FF801207EB75EF0243B203E5B3240412
:1012F8004002F5B311E67580FF75A40075F1B2756B
:10130800D4DF7590A975A5FC75F2FC75D50175A695
:101318000175E241E4F8F6D8FD31631218F431BDE5
:101328005151516A51785186519451957898866FE8
:1013380011E675885075890275C82475910475D8A9
:1013480040C2AF1208041208141207FA12081B123E
:1013580007FA1208221207FA121CB8120804120817
:10136800041207FF75A82275B80275E690759B8070
:10137800759D0375D10E75BC5875BB0875BA117586
:10138800E8801207EBD2AF120ACC43DA01C2D8C206
:1013980069120804753001D2597A05E55870027A45
:1013A800051207F0E559C3940240EEE52E541F8557
:1013B8005B5AF55BB55AE2DAE2C25953DACF2076C6
:1013C8000343DA2030760343DA10C2D8C269120721
:1013D800FF1207F07802741F552E70027800C3E5DB
:1013E800599840EDC2AF1208141207FA12081412E5
:1013F80007FA12081B1207FA12081B1207FAD2AFD3
:101408001208047548007888E6B4030281E91207D7
:10141800F0788CE6C3940150030214E9E530C394D4
:101428000150030214E9741F552E6035C3E5599421
:10143800FF50030214E9C2AF120829D2AF1207FF06
:10144800C3E559940150EFC2AF1208141207F51200
:101458000814D2AF1207FFC3E55994FF40E9021DF3
:0E1468003D7F05D27751951207FFC2AFC277C4
:101476005195AE59C3E559947FD2AF40701207EB30
:10148600C2AF120829D2AFDFDCC3EE94057897F617
:101496001208041218F4121CC07F0AD27751951252
:1014A60007FFC2AFC2775195AE59C3E559947FD2B3
:1014B600AF50E61207EBC2AF1208141207F5120876
:1014C60014D2AFDFD6EE24057896F6120804121869
:1014D600F4121CEF1207FF5195C3E55994FF40F42F
:1014E600021D3DC3E559954840038559481207FF3B
:1014F600C3E55994014002810EC2AF1208291207B2
:10150600FA1208291207FA1208221207FA120822FA
:101516001207FAD2AF120804753000E4F531F5323D
:101526000531E531F470390532789AE67819146098
:1015360012783214600D787D14600878FA1460030E
:10154600753200C3E53298401715327531B4789973
:10155600866FC2AF120829D2AF7898866F1207FF3E
:101566001207F5E5287008741F552E7002619FC397
:10157600E559940640AA7888E6C3940360031207E7
:10158600FFE528700302139FC2AF11E6E4F522F5CA
:1015960023F524F525D2AF78858661F540F541F52A
:1015A60042F543F544F56CF549F52BF52CF5391262
:1015B6000C4A756C0875BB101207EB120B67E5E851
:1015C60020ECFBA8BDA9BEE97001F8886D120B6B73
:1015D600756C0875BB107895E630E0030216257821
:1015E60087E6FE760231BD7887EEF6D261C2AF7528
:1015F6005EFF120C1A85225E85225FD2AFC261752C
:101606002501855D64756501D260D2637538001168
:101616002E117B120CC4120C4A120D4702174A787F
:1016260087E6FE76037893E6FD760531BD7887EE8C
:10163600F67893EDF6D260D261D265112E117B75E4
:101646005EFF120C1A1207EB120EF21207EB1207CC
:10165600EB120F461207F0120F901207F01207F066
:10166600120FED1207F5112E1207F01207EBC261E9
:10167600D262120B67120B6B120C1A756C0875BBD3
:1016860010117B120CBD120D4711F8315D120EF2CE
:10169600120CBD120D4711F8315D120F46120CBD2A
:1016A600120D4711F8315D120F90120CBD120D4745
:1016B60011F8315D120FED120CBD120D4711F83104
:1016C6005D112E120CBD120D4711F8C3E55095356C
:1016D600E5519536400C315DC3E5599401509302AE
:1016E600187B315DC2627887E6FE760231BD788767
:1016F600EEF685225E85605F856025855D6475658D
:1017060001D263753800C2AF207502C296307502E9
:10171600C292207502C292307502C296742DD5E02F
:10172600FDD2AF117B120CC4120D33120D47120DF0
:10173600D8756C0075BB0802174A31BD117B756CF4
:101746000075BB08120DFA120E7F120EAA120913AB
:10175600120EBE120EF2120CC4120D33120D4712E7
:101766000DD8120DF1120E7F120EAA120970120E6A
:10177600BE120F46120CC4120D33120D47120DD8AD
:10178600120DFA120E7F120EAA1209A9120EBE121D
:101796000F90120CC4120D33120D47120DD8120DF4
:1017A600F1120E7F120EAA120A06120EBE120FEDCB
:1017B600120CC4120D33120D47120DD8120DFA1267
:1017C6000E7F120EAA120A6A120EBE112E120CC437
:1017D600120D33120D47120DD8120DF1120B6712AE
:1017E6000E7F120EAA120B6B120EBE117B120CC4C8
:1017F600120D33120D47120DD830634285605E8597
:10180600605F855D6475650179647A147888E6B4ED
:101816000304791E7A05C3E538994015C263D2647C
:101826008A377888E6B40306755EFF755FFF02188F
:1018360044C3E5599401400302174A02187B3064F9
:1018460019E537147005C264021740F537C3E55928
:101856009401400302174A02187BC3E55C94FA50D0
:0E18660014741F552E7004E528600AC3E53D7A
:1018740094F0500302174AC2AF1210E67887E6FECE
:1018840076021211BD7887EEF6E4F522F523F524ED
:10189400F525F561C260D2AF1207EB1210E6741F92
:1018A400552E7007E528700302139F021521901A24
:1018B4000D7820121C00E520B4550CA3121C00E581
:1018C40020B4AA030218D41211631218F40218F3F4
:1018D400901A0378807B0A121C00A308DBF9901A83
:1018E4000F788C7B13121C00A308DBF9901A2222B8
:1018F400C2AF121C3F121C19901A00740B121C0563
:10190400A37402121C05A37411121C05901A037807
:10191400807B0A121C04A308DBF9901A0F788C7BD5
:1019240013121C04A308DBF9121C52121C30901A67
:0219340022226D
:101A00000B02110909040103FF0901010155AA0094
:101A1000FFFF0105FF0306FF0203FA2828050D0258
:031A2000007DFF47
:101A400023536B7977616C6B6572343041232020AE
:101A500023424C48454C4923463333302320202031
:101A60006F72672E736B797075702E6573632E625B
:101C0000E493F622E6438F01538FFD75EF0275B71B
:101C1000A575B7F1F0538FFE22438F02438F0175F4
:101C2000EF0275B7A575B7F1901A0DF0538FFC222E
:101C3000901A0D74559105901A0E74AA9105227A86
:101C40003079D07820901A409100E520F709A3DA86
:101C5000F7227A3079D0901A40E7910509A3DAF992
:101C600022AB70A871BB01027980BB02027981BBF3
:101C700003027982BB04027984BB05027983BB0627
:101C8000027995BB07027986BB0802798FBB0902EE
:101C90007990BB0A027992BB0B02799BBB0C02794B
:101CA00093BB0D027987BB0E02799CBB0F0279882A
:101CB000BB10027989E8F7227C05120804DCFB22BC
:101CC000C2AF12081412081B1208221208291207A8
:101CD000F512081412081B1208221208291207F51F
:101CE00012081412081B120822120829D2AF22C2AD
:101CF000AF12082912082212081B1208141207F545
:101D000012082912082212081B1208141207F512D1
:101D1000082912082212081B120814D2AF22AE7032
:101D2000AF71C2AF1208141208141208141207F58A
:101D3000DEF21208291207F5DFF8D2AF2291C09126
:101D4000B891B8757001757101757200B11E7C058E
:101D5000AD59120804C3ED955970F5C3E5599401C6
:101D60004009C3E55994FF4032A17991611218F4FA
:101D700091C0C2AF75EF1291B8DCD50572C3E572A0
:101D80009403500280C691B80571E570149000AAC2
:101D900093F808C3E57198500280AE91B891B805E8
:101DA00070C3E57094115002809C1211631218F4F4
:071DB000C2AF75EF1291B8FC
:00000001FF
