:030000000212FDEC
:03000B000200BA36
:03002B000203E7E6
:03005B0002054655
:0300730002053C47
:1000800002030406080C10182030406080020304AC
:1000900006080C101820304080FF0406080C1018C9
:1000A0002030406080A0C00002010D0D0405060252
:1000B0000D0505050D0604050302C2AFC0D0C0E062
:1000C000205A1030600A205C07302F02E47380FC55
:1000D0000203D3306306D297D295D29385258AC284
:1000E0005AE525F4700221C60563306013206A19B1
:1000F000758B00D0E0D0D0D297D295D293D2AF32C8
:10010000D297D295D2930201B6D265C266E56760F6
:100110001CC3E5631495674014C265D266C3E563EA
:10012000956650030201B67563000201B6206C1497
:10013000D297D295D2937406D5E0FDD296D294D2BE
:10014000920201B6D266D297D295D293E53E20E2D2
:100150003420E1127406D5E0FD207502D29230758C
:1001600002D2960201B620E0127406D5E0FD207599
:1001700002D292307502D2960201B67406D5E0FD25
:10018000D2940201B620E11F20E00A7406D5E0FDFA
:10019000D2940201B67406D5E0FD207502D29630E5
:1001A0007502D2920201B67406D5E0FD207502D226
:1001B00096307502D292758B00D0E0D0D0D297D213
:1001C00095D293D2AF32D0E0D0D0D2AF3261D3E566
:1001D00025600A207502C297307502C293D29561DC
:1001E000D3E5256002C295207502D293307502D204
:1001F0009761D3E525600A207502C293307502C26B
:1002000097207502D297307502D29361D320750280
:10021000C296307502C292E525600A207502C29727
:10022000307502C293207502C292307502C296D216
:100230009561D3207502C296307502C29220750274
:10024000C292307502C2967406D5E0FDE525600ABB
:10025000207502C297307502C293D29561D3207582
:1002600002C296307502C292E525600A207502C26C
:1002700097307502C293C294D29561D3207502C2A1
:1002800096307502C292C2947406D5E0FDE52560F1
:100290000A207502C297307502C293D29561D3C20B
:1002A00094E5256002C295207502C296307502C29F
:1002B00092207502D293307502D29761D3C29420F6
:1002C0007502C296307502C2927406D5E0FDE5252E
:1002D0006002C295207502D293307502D29761D325
:1002E000C294E5256002C295207502C29230750263
:1002F000C296207502D293307502D29761D3C29410
:10030000207502C292307502C2967406D5E0FDE5F2
:10031000256002C295207502D293307502D2976192
:10032000D3207502C292307502C296E525600A207C
:100330007502C293307502C297C294207502D2979B
:10034000307502D29361D3207502C292307502C219
:1003500096C2947406D5E0FDE525600A207502C2B8
:1003600093307502C297207502D297307502D293EE
:1003700061D3207502C292307502C296E525600AEB
:10038000207502C293307502C297207502C2963062
:100390007502C292207502D297307502D29361D352
:1003A000207502C292307502C296207502C2963044
:1003B0007502C2927406D5E0FDE525600A2075023B
:1003C000C293307502C297207502D297307502D25F
:1003D0009361D3E525F4F58A758B00756200D25AD6
:1003E000D0E0D0D0D2AF32C2AFC2AD53E6EFC0D072
:1003F000C0E0D2D3D2AFC2CEE528600A741F552E1A
:1004000060491528814B78007900E580307601F449
:1004100030E50278FF53DACF20760343DA203076D6
:100420000343DA10C2D8C269E580307601F430E5C2
:100430000279FFC3E89970CE305903752818741FEC
:10044000552E60037528188859D268E5296004156F
:1004500029815E741F552E600543DA01C2D82068D9
:100460000281E7E559F8C268741F552E603679821B
:0E047000B70431C3E894F0400374F0F8E8C418
:10047E00540F28F87984B7030281A4C313C31387DA
:10048E0021200802C313200A06C3C898F881A428A5
:10049E00F8500374FFF8E52C5406703D8822306343
:1004AE000AC3E522955E4003855E227882B6042952
:1004BE00C3E5229524401278A196400DE52426F539
:1004CE002450097524FF0204DA852224A824C3E5EA
:1004DE0024955E4002A85E882520CF0CD0E0D0D0B7
:1004EE00C2D343E610D2AD32C2CF7801E528600800
:1004FE00741F552E70021528C3E5599401400575D9
:10050E005C00A123755D00756400E55C2401F55C5B
:10051E005003755CFFE55F240A5005755FFFA1303F
:10052E00F55FD0E0D0D0C2D343E610D2AD32C2AF29
:10053E0053917FC258D2AF32C2AF53E6EFC2ADC0B5
:10054E00D0C0E0C0F0D2D3D2AFA8FBA9FCC2D83045
:10055E006902A1B153DACF20760343DA1030760365
:10056E0043DA20D269E580307601F420E502A185D8
:10057E00882689270207FB53DACF20760343DA2039
:10058E0030760343DA10C2D8C269741F552E70023A
:10059E00E1E17800E580307601F430E502E1E188B2
:1005AE0059E18653DACF20760343DA2030760343BF
:1005BE00DA10C269205902C16B53DACF2076034399
:1005CE00DA1030760343DA20C2D8D26988548955BE
:1005DE00C3E89552F8E99553F9E4FB7AFAC3E89427
:1005EE00C8E994005008E4D2E4FB7A0AC13EC3E89D
:1005FE009468E994015008E4D2E3FB7A0FC13EC33C
:10060E00E894D0E994025008E4D2E2FB7A1EC13E8F
:10061E00C3E894A0E994055008E4D2E1FB7A3CC10A
:10062E003EC3E89498E994085006E4D2E0FB7A7849
:10063E00C3E89556FCE99557FD30E708ECF4240124
:10064E00FCEDF4FD7558007008C3EC9A5003755814
:10065E000188568957A854A95588528953C3E895DD
:10066E0026F8E99527F9307402E16A307302E16ADF
:10067E00307202E163E9C313F9E813F8307102E155
:10068E0063E9C313F9E813F8307002E163E9C313A9
:10069E00FDE813FC205918C3EC941CED94024003A2
:1006AE000207E1ED7009C3EC94C850030207E17430
:1006BE000020770B7888E67896B40302789EE624BD
:1006CE00FAFEE43400FFC3EC9EFCED9FFD92087829
:1006DE0088E6B40322A208500920751BC2AFD2755A
:1006EE00C1F7307512C2AFC275D297D295D293C2EE
:1006FE0096C294C292D2AFA2085017E6B4030DEC84
:10070E00F42401FCEDF43400FD020720780079009A
:10071E00E16A7888E6B40315EC33FCED33FDC3ECE7
:10072E009405FCED9400FD50047C007D00C3EC9418
:10073E00FFED9400400678FF7900E16AEC856EF0DB
:10074E00A4C5F0A2F733F87900400302078678FFBC
:10075E007900020786E9C313F9E813F830740EE93D
:10076E00600278FFC3E81338F8E43400F9C3E89464
:10077E00FFE99400400278FFC3E894A0500578008A
:10078E0002079378018875A873B8010778FF885916
:10079E000207CEA878B8100778FF88590207CEA8AE
:1007AE0078B82007787F88590207CE78008859A834
:1007BE0030B8000CA875B80107781088780207CEFB
:1007CE00E559F574D268205902E1E1741FF4552EF3
:1007DE004BF52E752818741F552E700375280A3088
:1007EE005902E1FB741F552E600353DAFE7529067C
:1007FE00741F552E700375290AD0F0D0E0D0D0C2E8
:10080E00D3D2AD43E61032790102083379030208E0
:10081E0033790A020833791E0208337964020833E9
:10082E0079C80208337817E4D5E0FDD8FAD9F62254
:10083E007C05112EDCFC227A147B780208617A107A
:10084E007B8C0208617A0D7BB40208617A0B7BC83F
:10085E00020861AC257525017902B275E4C294D502
:0D086E00E0FDE5256002C295D5E0FDD295C4
:10087B00D5E0FDD294D5E0FDE525600A207502C2D6
:10088B0097307502C293E56FD5E0FD207502D297C4
:10089B00307502D2937496D5E0FDD9C1EAF8D5E054
:1008AB00FDD8FBDBB1C2948C2522C37C007D007587
:1008BB00F00005F0EA33FAEB33FB50F6EB13FBEAEF
:1008CB0013FAC3E9FFE8FEE89AF8E99BF95004EF45
:1008DB00F9EEF8B3EC33FCED33FDD5F0DFEDF9ECCD
:1008EB00F822E889F08A20D2D4F8A9F07B0030F7FF
:1008FB000B7BFFF42401F8E9F43400F9E88520F0D0
:10090B00A4ADF0F8E98520F0A4AFF0FEED2EF9745C
:10091B00003FFA7C04C3EA13FAE913F9E813F8DC95
:10092B00F48BF030F70AE8F42401F8E9F43400F919
:10093B00E889F0C2D4F8A9F0227882B60403020940
:10094B00A0C3E55994014003020969852224E4F50B
:10095B0040F541F542F543F544F5490209A078828B
:10096B00E6FC754901E522F523783879C7AA3CAB3B
:10097B003DC3EB13FBEA13FAEC146013C3EB13FB4D
:10098B00EA13FAEC14146007C3EB13FBEA13FA1126
:10099B00B58840894122E5496034C3E5409523F889
:1009AB00E5419400F9500CC3E89480E994FF40169C
:1009BB000209D5C3E8947FE9940050030209D57866
:1009CB007F79000209D5788079FF8845894622E531
:1009DB00496058E5452542F8E5463543F9854620FB
:1009EB00E4300701F43544FA30E709C3EA94F040E8
:1009FB0015020A17C3EA940F5003020A1778FF79FE
:100A0B00FF7A0F020A17780079007AF0C3E5249574
:100A1B005E5006E52460094130E54620E70D413084
:100A2B00E54630E706884289438A4422E54970034C
:100A3B00020A9A789FE6FAC3E54533F8E54633F99F
:100A4B0011EDE930E70BC3E89480E994FF401341C3
:100A5B0071C3E8947FE9940050024171787F79006B
:100A6B004171788079FFE820E715C3E52398F840BA
:100A7B0009C3E894014003020A987801020A98E836
:100A8B00F424012523F84003020A9878FF884722B3
:100A9B00E5497003020AFC78A0E6FAA843A94411C1
:100AAB00EDE930E70CC3E89401E994FF4016020A24
:100ABB00D3C3E894FFE994005003020AD378FF797B
:100ACB0000020AD3780179FFE920E715C3E54798BF
:100ADB00F84009C3E894014003020AFA7800020ABD
:100AEB00FAE8F424012547F84003020AFA78FF8854
:100AFB0024227883E6F52012105E75E890111575A7
:100B0B00E890E5E820ECFBA8BDA9BE121116756AAA
:100B1B0055756B00C3740013FD745513FC74552C81
:100B2B00FC74003DFDECFAEDFBC3E89AE99B401425
:100B3B00E56A2455F56AE56B3400F56BEA2CFAEBA4
:100B4B003DFB80E5AE6AAF6BC3E56B13F9E56A134A
:100B5B00F8C3E913F9E813F8E56A28F568E56B398A
:100B6B00F5697A03C3E913F9E813F8DAF7AA201A3F
:100B7B007009756A00756B00020B961AEA6008EE35
:100B8B0028FEEF39FFDAF88E6A8F6B2275E8902218
:100B9B007883E6FFE5E820ECF7A8BDA9BE056CC39A
:100BAB00E56C9408404B756C00E97007E56D601BB4
:100BBB00020BCAC3E8956D6010E56D5006600C140E
:100BCB00020BD60460F9020BD6E56DF56DC3946D7F
:100BDB00401B755EC0C394044013755E80C39404C0
:100BEB00400B755E40C394044003755E0075BB08F3
:100BFB0022EFC39401601BC3E894FFE994035012E6
:100C0B00C3E8956AE9956B5009E55E600C155E02C9
:100C1B000C24E55EF46002055EA85EC3E5249850E3
:100C2B0002A824C3E8955F400AA85FE55FF4600360
:100C3B00855F5E8825C3E56CB4070375BB10223056
:100C4B00610278323062027878E52C5406601FE836
:100C5B0079A287F0A4C5F0A2F733F8C3E8955E40FC
:0F0C6B0002A85E882288248825306102886022D2
:100C7A00788FE6FFC3EF94055018C3EF9404502011
:100C8A00C3EF94035028C3EF94025030C3EF94018A
:100C9A0050387533A075340F75353C75360581E0CB
:100CAA007533C075341275354075360681E0753373
:100CBA00707534177535D075360781E075334C7504
:100CCA00341D7535C475360981E0753328753423AA
:100CDA007535B875360B853350853451753C0075BA
:100CEA003D0822A850A951020CF8A84AA94B7591AF
:100CFA0000C3E498F594E499F595759104D2587572
:100D0A00C820A8CCA9CD75C824AA3AAB3B883A8991
:100D1A003BC3E89AF8E99BF9AA3CAB3DC3EB13FD48
:100D2A00EA13FCC3ED13FDEC13FCC3EA9CFAEB9D3A
:100D3A00FBEA28FAEB39FB8A3C8B3D400122753CE1
:100D4A00FF753DFF22759100C3E4954CF594E49537
:100D5A004DF595759104D258227F01789CE614606E
:100D6A00027F02305802A16DB14FDFF7227892E676
:100D7A00FF7E14A83DC3E8940440027804C3E83314
:100D8A00F8C3EE98FE3063047F037E00A93DA83CB9
:100D9A007A04C3E913F9E813F8DAF7C3E89EF8E925
:100DAA009400F94009C3E89402E9940050047802D7
:100DBA00E4F9E9FBE8FAC3E913FDE813FCC3EF948D
:100DCA0003602EEF20E00DE82CF8E93DF9ECFAED8E
:100DDA00FB020DE8E828F8E939F97A02E4FBC3EFE7
:100DEA009403400D8A4E8B4F884A894B8C4C8D4D0B
:100DFA0022884E894F8A4A8B4B8C4C8D4D22305813
:100E0A0002C108759100C3E4953CF594E4953DF55B
:100E1A0095759104D25822753F00752000020E3054
:100E2A00753F00752040D2AF053F20580122759DBD
:100E3A0000E53DC313C313F8086030306A06C313D4
:100E4A00C313F808C3E8940A4002780A306D08C34D
:100E5A00E8940440027804C3E53D9408400D759D6A
:100E6A0002C3E53D94104003759D03205803D2AF99
:100E7A00227918206D027908D2AF0000C2AF205A39
:100E8A000A7914206D0279073066E03063027978B6
:100E9A00C3E58B9940D5E59BF45440B52002C13097
:100EAA00D8C9D2AF22C25B789CE614600AE53F1427
:100EBA007005206302D25B30630B05382058107529
:100ECA003800020ED9205807158115810217E12230
:100EDA00759100C3E4954EF594E4954FF595759197
:100EEA0004D258220539205B03753900305B237818
:100EFA00A3E6FFBF0108D25CD297D295D293B14F35
:100F0A00305802E10ABF0208D25CD297D295D29336
:100F1A00D1DA305802E11C22C2AFC294206A03021D
:100F2A000F4190034730650F207502C29230750257
:100F3A00C2967406D5E0FDE525600A207502C297BF
:100F4A00307502C293740FD5E0FD207502D2973036
:100F5A007502D2937406D5E0FD207502D2963075DB
:100F6A0002D292759F10753E02021102C2AF206A28
:100F7A0003020F989002FE306517C294207502C2D0
:100F8A0092307502C2967406D5E0FD020F9B90015D
:100F9A00E1207502D293307502D297305A06E525C0
:100FAA006002C295207503759F13307503759F11F2
:100FBA00753E03021102C2AF207502C29630750255
:100FCA00C292206A03020FDF9002BD306507C29405
:100FDA007406D5E0FDE525600A207502C2933075D6
:100FEA0002C297740FD5E0FD207502D293307502C4
:100FFA00D2977406D5E0FD207502D292307502D2DE
:10100A0096207503759F11307503759F13753E04FD
:10101A00021102C2AF206A0302103F90027C3065BF
:10102A0017207502C296307502C292C2947406D510
:10103A00E0FD0210429001CFD295305A0EE52560AC
:10104A000A207502C297307502C293759F10753EC9
:10105A0005021102C2AF207502C292307502C29611
:0F106A00206A0302108590023330650F20750253
:10107900C296307502C2927406D5E0FDE52560027C
:10108900C295740FD5E0FDD2957406D5E0FDD294D2
:10109900207503759F13307503759F11753E060200
:1010A9001102C2AF206A030210D59003A030651F58
:1010B900207502C296307502C292207502C2923022
:1010C9007502C2967406D5E0FD0210D89001F3208E
:1010D9007502D297307502D293305A0EE525600A0F
:1010E900207502C293307502C297207503759F114E
:1010F900307503759F13753E01D2AF789CE6C39492
:10110900024007C3E53994035002C25C229001CD25
:10111900D297D295D293C296C294C292C25A22C38E
:10112900E5509535E55195365001227890E6FFC393
:10113900EF94055018C3EF9404501BC3EF94035068
:101149001EC3EF94025021C3EF94015024C3E5500C
:10115900943CF8021183C3E5509428F8021183C323
:10116900E550941AF8021183C3E5509412F802115C
:1011790083C3E550940AF8021183E5519400F98874
:1011890050895122305802218D22788076090876BB
:10119900090876040876010876030876FF08760AB6
:1011A900087601087601087601788C76000876FFC2
:1011B9000876FF0876010876050876FF08760308A1
:1011C90076060876FF0876020876030876FA087626
:1011D9001408761408760508760108760208760060
:1011E90008767D757400757600757700757800222C
:1011F9007893E6FF756609756701C3BF02067566D0
:1012090005756701C3BF0306756605756702C3BF28
:101219000406756605756703C3BF05067566097516
:101229006707C3BF06067566007567007887E6FF1E
:10123900C26CC3BF0302D26CC26BC3BF0402D26BC0
:10124900C26A7418552D6002D26AC2656002D265FD
:10125900D2666002C2667888E6C394036008C275E4
:10126900E630E102D275C2767889E630E102D276BB
:10127900C3EF94026008758E01D26D02128C758ECF
:1012890000C26D227880E61490008093789FF678EA
:1012990081E6149000809378A0F6311622789BE6B7
:1012A9001490008D9378A1F63116227886E6149071
:1012B900009A9378A2F6311622789CE6149000A73A
:1012C9009378A3F6311622227896E6FA7897E6FB08
:1012D9003077047A007BFFC3EB9AFCC394825002F7
:1012E9007C82756E00056EEC856EF0A4C3E5F09402
:1012F9008040F222E5EF20E6037520000520903FAB
:10130900FFE520146006901DFF146000930460033C
:1013190075EF12C2D353D9BF7581C043FF8012083C
:101329001575EF0243B203E5B324044002F5B33166
:10133900167580FF75A40075F1B275D4DF7590A993
:1013490075A5FC75F2FC75D50175A60175E241E438
:10135900F8F6D8FD319331F9518D51A651B451C2E6
:1013690051D051D17898866F311675885075890298
:1013790075C82475910475D840C2AF12082E120899
:101389004512081F12084C12081F12085312081F91
:1013990012085A12081F12083E12082E12082E129D
:1013A900082975A82275B80275E690759B80759D08
:1013B9000375D10E75BC5875BB0875BA1175E880EF
:1013C900120815D2AF120AFD43DA01C2D8C2691256
:1013D900082E753001757301D2597A05E5587002E6
:1013E9007A0512081AE559C3940240EEE52E541FF6
:1013F900855B5AF55BB55AE2DAE2C25953DACF2076
:10140900760343DA2030760343DA10C2D8C2691270
:10141900082912081A7802741F552E70027800C321
:10142900E5599840EDC2AF12084512081F12084548
:1014390012081F12084C12081F12084C12081FD25A
:10144900AF12082E757300754800C3E559954840D9
:1014590003855948120829C3E5599401400280EAD5
:0E146900C2AF12085A12081F12085A12081FAA
:1014770012085312081F12085312081FD2AF12087E
:101487002E753000E4F531F5320531E531F4703968
:101497000532789AE67819146012783214600D785C
:1014A7007D14600878FA146003753200C3E532983A
:1014B700401715327531B47899866FC2AF12085A42
:1014C700D2AF7898866F12082912081FE52870088E
:1014D700741F552E700261E1C3E559940640AA783E
:1014E70088E6C394036003120829E52870030213F2
:1014F700E1C2AF3116E4F522F523F524F525D2AF85
:1015070078858661F540F541F542F543F544F56C7C
:10151700F549F52BF52CF539120C7A756C0875BB66
:1015270010120815120B97E5E820ECFBA8BDA9BE21
:10153700E97001F8886D120B9B756C0875BB107804
:1015470095E630E00302158F7887E6FE760231F9DB
:101557007887EEF6D261C2AF755EFF120C4A85221C
:101567005E85225FD2AFC261752501855D647565B1
:1015770001D260D263753800115E11AB120CF41200
:101587000C7A120D770216B27887E6FE7603789307
:10159700E6FD760531F97887EEF67893EDF6D260B9
:1015A700D261D265115E11AB755EFF120C4A12084B
:1015B70015120F22120815120815120F7612081AA3
:1015C700120FC012081A12081A111D12081F115EF5
:1015D70012081A120815C261D262120B97120B9BDE
:1015E700120C4A756C0875BB1011AB120CED120D7D
:1015F700773128318D120F22120CED120D77312819
:10160700318D120F76120CED120D773128318D12B4
:101617000FC0120CED120D773128318D111D120CF0
:10162700ED120D773128318D115E120CED120D7709
:101637003128C3E5509535E5519536400C318DC3BA
:10164700E559940150940217E1318DC2627887E61B
:10165700FE760231F97887EEF685225E85605F8532
:101667006025855D64756501D263753800C2AF205A
:101677007502C296307502C292207502C292307509
:1016870002C296742DD5E0FDD2AF11AB120CF41245
:101697000D63120D77120E08756C0075BB080216E4
:1016A700B231F911AB756C0075BB08120E2A120E18
:1016B700AF120EDA120944120EEE120F22120CF4B8
:1016C700120D63120D77120E08120E21120EAF12B1
:1016D7000EDA1209A1120EEE120F76120CF4120D89
:1016E70063120D77120E08120E2A120EAF120EDABF
:1016F7001209DA120EEE120FC0120CF4120D631259
:101707000D77120E08120E21120EAF120EDA120A00
:1017170037120EEE111D120CF4120D63120D771213
:101727000E08120E2A120EAF120EDA120A9B120EB2
:10173700EE115E120CF4120D63120D77120E0812E1
:101747000E21120B97120EAF120EDA120B9B120E0E
:10175700EE11AB120CF4120D63120D77120E083056
:10176700634285605E85605F855D64756501796448
:101777007A147888E6B40304791E7A05C3E53899A4
:101787004015C263D2648A377888E6B40306755E6B
:10179700FF755FFF0217ABC3E559940140030216BB
:1017A700B20217E1306419E537147005C2640216F6
:1017B700A8F537C3E559940140030216B20217E1B1
:1017C700C3E55C94FA5013741F552E7004E5286026
:1017D70009C3E53D94F05002C1B2C2AF3116788714
:1017E700E6FE760231F97887EEF6E4F522F523F581
:1017F70024F525F561C260D2AF12081512111674CF
:0F1807001F552E7007E52870030213E102148BA2
:101A00000B02110909040103FF0A01010155AA0093
:101A1000FFFF0105FF0306FF0203FA14140501028C
:031A2000007DFF47
:101A400023536B7977616C6B6572323041232020B0
:101A500023424C48454C4923463333302320202031
:101A60006F72672E736B797075702E6573632E625B
:00000001FF
