:03000000021348A0
:03000B000200BA36
:03002B000203E7E6
:03005B0002054655
:0300730002053C47
:1000800002030406080C10182030406080020304AC
:1000900006080C101820304080FF0406080C1018C9
:1000A0002030406080A0C00002010D0D0405060252
:1000B0000D0505050D0604050302C2AFC0D0C0E062
:1000C000205A1030600A205C07302F02E47380FC55
:1000D0000203D3306306D297D295D29385258AC284
:1000E0005AE525F4700221C60563306013206A19B1
:1000F000758B00D0E0D0D0D297D295D293D2AF32C8
:10010000D297D295D2930201B6D265C266E56760F6
:100110001CC3E5631495674014C265D266C3E563EA
:10012000956650030201B67563000201B6206C1497
:10013000D297D295D2937406D5E0FDD296D294D2BE
:10014000920201B6D266D297D295D293E53E20E2D2
:100150003420E1127406D5E0FD207502D29230758C
:1001600002D2960201B620E0127406D5E0FD207599
:1001700002D292307502D2960201B67406D5E0FD25
:10018000D2940201B620E11F20E00A7406D5E0FDFA
:10019000D2940201B67406D5E0FD207502D29630E5
:1001A0007502D2920201B67406D5E0FD207502D226
:1001B00096307502D292758B00D0E0D0D0D297D213
:1001C00095D293D2AF32D0E0D0D0D2AF3261D3E566
:1001D00025600A207502C297307502C293D29561DC
:1001E000D3E5256002C295207502D293307502D204
:1001F0009761D3E525600A207502C293307502C26B
:1002000097207502D297307502D29361D320750280
:10021000C296307502C292E525600A207502C29727
:10022000307502C293207502C292307502C296D216
:100230009561D3207502C296307502C29220750274
:10024000C292307502C2967406D5E0FDE525600ABB
:10025000207502C297307502C293D29561D3207582
:1002600002C296307502C292E525600A207502C26C
:1002700097307502C293C294D29561D3207502C2A1
:1002800096307502C292C2947406D5E0FDE52560F1
:100290000A207502C297307502C293D29561D3C20B
:1002A00094E5256002C295207502C296307502C29F
:1002B00092207502D293307502D29761D3C29420F6
:1002C0007502C296307502C2927406D5E0FDE5252E
:1002D0006002C295207502D293307502D29761D325
:1002E000C294E5256002C295207502C29230750263
:1002F000C296207502D293307502D29761D3C29410
:10030000207502C292307502C2967406D5E0FDE5F2
:10031000256002C295207502D293307502D2976192
:10032000D3207502C292307502C296E525600A207C
:100330007502C293307502C297C294207502D2979B
:10034000307502D29361D3207502C292307502C219
:1003500096C2947406D5E0FDE525600A207502C2B8
:1003600093307502C297207502D297307502D293EE
:1003700061D3207502C292307502C296E525600AEB
:10038000207502C293307502C297207502C2963062
:100390007502C292207502D297307502D29361D352
:1003A000207502C292307502C296207502C2963044
:1003B0007502C2927406D5E0FDE525600A2075023B
:1003C000C293307502C297207502D297307502D25F
:1003D0009361D3E525F4F58A758B00756200D25AD6
:1003E000D0E0D0D0D2AF32C2AFC2AD53E6EFC0D072
:1003F000C0E0D2D3D2AFC2CEE528600A741F552E1A
:1004000060491528814B78007900E580307601F449
:1004100030E50278FF53DACF20760343DA203076D6
:100420000343DA10C2D8C269E580307601F430E5C2
:100430000279FFC3E89970CE305903752818741FEC
:10044000552E60037528188859D268E5296004156F
:1004500029815E741F552E600543DA01C2D82068D9
:100460000281E7E559F8C268741F552E603679821B
:0E047000B70431C3E894F0400374F0F8E8C418
:10047E00540F28F87984B7030281A4C313C31387DA
:10048E0021200802C313200A06C3C898F881A428A5
:10049E00F8500374FFF8E52C5406703D8822306343
:1004AE000AC3E522955E4003855E227882B6042952
:1004BE00C3E5229524401278A196400DE52426F539
:1004CE002450097524FF0204DA852224A824C3E5EA
:1004DE0024955E4002A85E882520CF0CD0E0D0D0B7
:1004EE00C2D343E610D2AD32C2CF7801E528600800
:1004FE00741F552E70021528C3E5599401400575D9
:10050E005C00A123755D00756400E55C2401F55C5B
:10051E005003755CFFE55F240A5005755FFFA1303F
:10052E00F55FD0E0D0D0C2D343E610D2AD32C2AF29
:10053E0053917FC258D2AF32C2AF53E6EFC2ADC0B5
:10054E00D0C0E0C0F0D2D3D2AFA8FBA9FCC2D83045
:10055E006902A1B353DACF20760343DA1030760363
:10056E0043DA20D269E580307601F420E502A185D8
:10057E008826892702084653DACF20760343DA20ED
:10058E0030760343DA10C2D8C269741F552E700339
:10059E0002082C7800E580307601F430E50302087D
:1005AE002C8859E18853DACF20760343DA2030764F
:1005BE000343DA10C269205902C16D53DACF207697
:1005CE000343DA1030760343DA20C2D8D269885456
:1005DE008955C3E89552F8E99553F9E4FB7AFAC3C5
:1005EE00E894C8E994005008E4D2E4FB7A0AC140CA
:1005FE00C3E89468E994015008E4D2E3FB7A0FC192
:10060E0040C3E894D0E994025008E4D2E2FB7A1E8B
:10061E00C140C3E894A0E994055008E4D2E1FB7A06
:10062E003CC140C3E89498E994085006E4D2E0FB3C
:10063E007A78C3E89556FCE99557FD30E708ECF457
:10064E002401FCEDF4FD7558007008C3EC9A5003BC
:10065E0075580188568957A854A95588528953C38D
:10066E00E89526F8E99527F9307402E16C307302AB
:10067E00E16C307202E165E9C313F9E813F83071E9
:10068E0002E165E9C313F9E813F8307002E165E998
:10069E00C313FDE813FC205918C3EC941CED94020F
:1006AE00400302082CED7009C3EC94C850030208F5
:1006BE002C740020770B7888E67896B40302789E27
:1006CE00E624FAFEE43400FFC3EC9EFCED9FFD929F
:1006DE00087888E6B40322A208500920751BC2AF21
:1006EE00D275C1F9307512C2AFC275D297D295D2FA
:1006FE0093C296C294C292D2AFA2085017E6B40328
:10070E000DECF42401FCEDF43400FD020722780018
:10071E007900E16C7888E6B40315EC33FCED33FD1B
:10072E00C3EC9405FCED9400FD50047C007D00C3E9
:10073E00EC94FFED9400400678FF7900E16CEC85B7
:10074E006EF0A4C5F0A2F733F879004003020788D3
:10075E0078FF7900020788E9C313F9E813F83074BB
:10076E000EE9600278FFC3E81338F8E43400F9C3E9
:10077E00E894FFE99400400278FFC3E894A0500586
:10078E00780002079578018875A873B8010778FF7D
:10079E008859020819A878B8102978FF8859057663
:1007AE00E57670020577C3E57794024013C3E576CC
:1007BE00948A400C78208878E4F576F5770208194B
:1007CE00020819A878B82029787F88590576E57629
:1007DE0070020577C3E57794294013C3E576940438
:1007EE00400C78008878E4F576F57702081902084F
:1007FE001978008859A830B80011A875B8010C787E
:10080E00108878E4F576F577020819E559F574D273
:10081E0068205902012C741FF4552E4BF52E7528A5
:10082E0018741F552E700375280A3059020146742C
:10083E001F552E600353DAFE752906741F552E7050
:10084E000375290AD0F0D0E0D0D0C2D3D2AD43E6A2
:10085E001032790102087E790302087E790A0208B5
:0D086E007E791E02087E796402087E79C83A
:10087B0002087E7817E4D5E0FDD8FAD9F6227C057C
:10088B001179DCFC227A147B780208AC7A107B8C11
:10089B000208AC7A0D7BB40208AC7A0B7BC8020859
:1008AB00ACAC257525017902B275E4C294D5E0FD97
:1008BB00E5256002C295D5E0FDD295D5E0FDD29439
:1008CB00D5E0FDE525600A207502C297307502C29E
:1008DB0093E56FD5E0FD207502D297307502D29368
:1008EB007496D5E0FDD9C1EAF8D5E0FDD8FBDBB1B4
:1008FB00C2948C2522C37C007D0075F00005F0EAC4
:10090B0033FAEB33FB50F6EB13FBEA13FAC3E9FFB5
:10091B00E8FEE89AF8E99BF95004EFF9EEF8B3EC2E
:10092B0033FCED33FDD5F0DFEDF9ECF822E889F07F
:10093B008A20D2D4F8A9F07B0030F70B7BFFF4248C
:10094B0001F8E9F43400F9E88520F0A4ADF0F8E9FA
:10095B008520F0A4AFF0FEED2EF974003FFA7C0475
:10096B00C3EA13FAE913F9E813F8DCF48BF030F768
:10097B000AE8F42401F8E9F43400F9E889F0C2D468
:10098B00F8A9F0227882B604030209EBC3E5599467
:10099B000140030209B4852224E4F540F541F542F8
:1009AB00F543F544F5490209EB7882E6FC754901FC
:1009BB00E522F523783879C7AA3CAB3DC3EB13FB93
:1009CB00EA13FAEC146013C3EB13FBEA13FAEC14FF
:1009DB00146007C3EB13FBEA13FA3100884089411B
:1009EB0022E5496034C3E5409523F8E5419400F9CD
:1009FB00500CC3E89480E994FF4016020A20C3E828
:100A0B00947FE994005003020A20787F7900020A50
:100A1B0020788079FF8845894622E5496058E5456D
:100A2B002542F8E5463543F9854620E4300701F4C5
:100A3B003544FA30E709C3EA94F04015020A62C361
:100A4B00EA940F5003020A6278FF79FF7A0F020AC9
:100A5B0062780079007AF0C3E524955E5006E524B0
:100A6B006009417BE54620E70D417BE54630E70613
:100A7B00884289438A4422E5497003020AE5789F3C
:100A8B00E6FAC3E54533F8E54633F93138E930E7A3
:100A9B000BC3E89480E994FF401341BCC3E8947FF7
:100AAB00E99400500241BC787F790041BC78807991
:100ABB00FFE820E715C3E52398F84009C3E8940144
:100ACB004003020AE37801020AE3E8F42401252338
:100ADB00F84003020AE378FF884722E549700302D6
:100AEB000B4778A0E6FAA843A9443138E930E70C64
:100AFB00C3E89401E994FF4016020B1EC3E894FF70
:100B0B00E994005003020B1E78FF7900020B1E784C
:100B1B000179FFE920E715C3E54798F84009C3E8D9
:100B2B0094014003020B457800020B45E8F42401C5
:100B3B002547F84003020B4578FF8824227883E68B
:100B4B00F5201210A975E890116075E890E5E82082
:100B5B00ECFBA8BDA9BE121161756A55756B00C37C
:100B6B00740013FD745513FC74552CFC74003DFD7F
:100B7B00ECFAEDFBC3E89AE99B4014E56A2455F5C2
:100B8B006AE56B3400F56BEA2CFAEB3DFB80E5AEC6
:100B9B006AAF6BC3E56B13F9E56A13F8C3E913F995
:100BAB00E813F8E56A28F568E56B39F5697A03C34C
:100BBB00E913F9E813F8DAF7AA201A7009756A0035
:100BCB00756B00020BE11AEA6008EE28FEEF39FFA5
:100BDB00DAF88E6A8F6B2275E890227883E6FFE550
:100BEB00E820ECF7A8BDA9BE056CC3E56C940840E2
:100BFB004B756C00E97007E56D601B020C15C3E8C3
:100C0B00956D6010E56D5006600C14020C210460AC
:100C1B00F9020C21E56DF56DC3946D401B755EC03B
:100C2B00C394044013755E80C39404400B755E40FF
:100C3B00C394044003755E0075BB0822EFC3940197
:100C4B00601BC3E894FFE994035012C3E8956AE96B
:100C5B00956B5009E55E600C155E020C6FE55EF45A
:0F0C6B006002055EA85EC3E524985002A824C36A
:100C7A00E8955F400AA85FE55FF46003855F5E88D8
:100C8A0025C3E56CB4070375BB10223061027832C4
:100C9A003062027878E52C5406601FE879A287F062
:100CAA00A4C5F0A2F733F8C3E8955E4002A85E88AF
:100CBA002288248825306102886022788FE6FFC363
:100CCA00EF94055018C3EF94045020C3EF940350D7
:100CDA0028C3EF94025030C3EF940150387533A003
:100CEA0075340F75353C753605A12B7533C07534CF
:100CFA0012753540753606A12B7533707534177524
:100D0A0035D0753607A12B75334C75341D7535C42E
:100D1A00753609A12B7533287534237535B87536A0
:100D2A000B853350853451753C00753D0822A85017
:100D3A00A951020D43A84AA94B759100C3E498F53D
:100D4A0094E499F595759104D25875C820A8CCA950
:100D5A00CD75C824AA3AAB3B883A893BC3E89AF8CE
:100D6A00E99BF9AA3CAB3DC3EB13FDEA13FCC3EDC7
:100D7A0013FDEC13FCC3EA9CFAEB9DFBEA28FAEBA1
:100D8A0039FB8A3C8B3D400122753CFF753DFF22B1
:100D9A00759100C3E4954CF594E4954DF5957591DC
:100DAA0004D258227F01789CE61460027F023058F0
:100DBA0002A1B8B19ADFF7227892E6FF7E14A83D25
:100DCA00C3E8940440027804C3E833F8C3EE98FEFB
:100DDA003063047F037E00A93DA83C7A04C3E9136B
:100DEA00F9E813F8DAF7C3E89EF8E99400F940093C
:100DFA00C3E89402E9940050047802E4F9E9FBE8B4
:100E0A00FAC3E913FDE813FCC3EF9403602EEF2045
:100E1A00E00DE82CF8E93DF9ECFAEDFB020E33E8B7
:100E2A0028F8E939F97A02E4FBC3EF9403400D8A02
:100E3A004E8B4F884A894B8C4C8D4D22884E894F58
:100E4A008A4A8B4B8C4C8D4D22305802C153759176
:100E5A0000C3E4953CF594E4953DF595759104D26B
:100E6A005822753F00752000020E7B753F007520E1
:100E7A0040D2AF053F20580122759D00E53DC313BE
:100E8A00C313F8086030306A06C313C313F808C3E3
:100E9A00E8940A4002780A306D08C3E894044002D4
:100EAA007804C3E53D9408400D759D02C3E53D9461
:100EBA00104003759D03205803D2AF227918206D84
:100ECA00027908D2AF0000C2AF205A0A7914206D05
:100EDA000279073066E03063027978C3E58B99407E
:100EEA00D5E59BF45440B52002C17BD8C9D2AF22C4
:100EFA00C25B789CE614600AE53F14700520630221
:100F0A00D25B30630B0538205810753800020F2465
:100F1A002058071581158102182A22759100C3E409
:100F2A00954EF594E4954FF595759104D25822059E
:100F3A0039205B03753900305B2378A3E6FFBF01D4
:100F4A0008D25CD297D295D293B19A305802E15521
:100F5A00BF0208D25CD297D295D293F125305802BB
:100F6A00E16722C2AFC294206A03020F8C90034742
:100F7A0030650F207502C292307502C2967406D58A
:100F8A00E0FDE525600A207502C297307502C2931A
:100F9A00740FD5E0FD207502D297307502D2937492
:100FAA0006D5E0FD207502D296307502D292759F61
:100FBA0010753E0202114DC2AF206A03020FE39080
:100FCA0002FE306517C294207502C292307502C2C1
:100FDA00967406D5E0FD020FE69001E1207502D273
:100FEA0093307502D297305A06E5256002C29520E1
:100FFA007503759F13307503759F11753E030211B2
:10100A004DC2AF207502C296307502C292206A03A1
:10101A0002102A9002BD306507C2947406D5E0FD1D
:10102A00E525600A207502C293307502C297740FD3
:10103A00D5E0FD207502D293307502D2977406D599
:10104A00E0FD207502D292307502D29620750375A2
:10105A009F11307503759F13753E0402114DC2AF7F
:0F106A00206A0302108A90027C306517207502FD
:10107900C296307502C292C2947406D5E0FD021080
:101089008D9001CFD295305A0EE525600A20750260
:10109900C297307502C293759F10753E0502114DB6
:1010A900C2AF207502C292307502C296206A03024D
:1010B90010D090023330650F207502C29630750248
:1010C900C2927406D5E0FDE5256002C295740FD57C
:1010D900E0FDD2957406D5E0FDD294207503759F85
:1010E90013307503759F11753E0602114DC2AF206D
:1010F9006A030211209003A030651F207502C29671
:10110900307502C292207502C292307502C296747D
:1011190006D5E0FD0211239001F3207502D2973024
:101129007502D293305A0EE525600A207502C293E2
:10113900307502C297207503759F11307503759F2D
:1011490013753E01D2AF789CE6C394024007C3E50C
:101159003994035002C25C229001CDD297D295D224
:1011690093C296C294C292C25A22C3E5509535E5FC
:101179005195365001227890E6FFC3EF9405501837
:10118900C3EF9404501BC3EF9403501EC3EF9402A2
:101199005021C3EF94015024C3E550943CF8021147
:1011A900CEC3E5509428F80211CEC3E550941AF83D
:1011B9000211CEC3E5509412F80211CEC3E5509442
:1011C9000AF80211CEE5519400F98850895122306C
:1011D900580221D822788076090876090876040809
:1011E90076010876030876FF08760A0876010876FC
:1011F90001087601788C76000876FF0876FF087674
:10120900010876050876FF0876030876060876FF52
:101219000876020876030876FA0876140876140820
:10122900760508760108760208760008767D7574D9
:1012390000757600757700757800227893E6FF755A
:101249006609756701C3BF0206756605756701C33F
:10125900BF0306756605756702C3BF040675660593
:10126900756703C3BF0506756609756707C3BF06BA
:10127900067566007567007887E6FFC26CC3BF0311
:1012890002D26CC26BC3BF0402D26BC26A74185516
:101299002D6002D26AC2656002D265D2666002C25E
:1012A900667888E6C394036008C275E630E102D225
:1012B90075C2767889E630E102D276C3EF9402608E
:1012C90008758E01D26D0212D7758E00C26D227813
:1012D90080E61490008093789FF67881E614900058
:1012E900809378A0F6316122789BE61490008D9363
:1012F90078A1F63161227886E61490009A9378A253
:10130900F6316122789CE6149000A79378A3F63110
:101319006122227896E6FA7897E6FB3077047A001C
:101329007BFFC3EB9AFCC3948250027C82756E00EA
:10133900056EEC856EF0A4C3E5F0948040F222E5D9
:10134900EF20E6037520000520903FFFE52014609B
:1013590006901DFF1460009304600375EF12C2D359
:1013690053D9BF7581C043FF8012086075EF0243EE
:10137900B203E5B324044002F5B331617580FF750A
:10138900A40075F1B275D4DF7590A975A5FC75F245
:10139900FC75D50175A60175E241E4F8F6D8FD3171
:1013A900DE514451D851F151FF710D711B711C78F7
:1013B90098866F316175885075890275C824759151
:1013C9000475D840C2AF12087912089012086A123F
:1013D900089712086A12089E12086A1208A51208CC
:1013E9006A12088912087912087912087475A822F4
:1013F90075B80275E690759B80759D0375D10E755C
:10140900BC5875BB0875BA1175E880120860D2AF6F
:10141900120B4843DA01C2D8C26912087975300142
:10142900757301D2597A05E55870027A0512086573
:10143900E559C3940240EEE52E541F855B5AF55BCE
:10144900B55AE2DAE2C25953DACF20760343DA20F9
:1014590030760343DA10C2D8C269120874120865DB
:0E1469007802741F552E70027800C3E5599862
:1014770040EDC2AF12089012086A12089012086A6B
:1014870012089712086A12089712086AD2AF120850
:1014970079757300754800C3E55995484003855928
:1014A70048120874C3E5599401400280EAC2AF129A
:1014B70008A512086A1208A512086A12089E1208DF
:1014C7006A12089E12086AD2AF120879753000E4D2
:1014D700F531F5320531E531F470390532789AE6A0
:1014E7007819146012783214600D787D14600878CA
:1014F700FA146003753200C3E53298401715327548
:1015070031B47899866FC2AF1208A5D2AF789886A2
:101517006F12087412086AE5287008741F552E7038
:1015270002812CC3E559940640AA7888E6C3940340
:101537006003120874E528700302142CC2AF3161EE
:10154700E4F522F523F524F525D2AF78858661F5F4
:1015570040F541F542F543F544F56CF549F52BF5B2
:101567002CF539120CC5756C0875BB101208601282
:101577000BE2E5E820ECFBA8BDA9BEE97001F888FD
:101587006D120BE6756C0875BB107895E630E003B5
:101597000215DA7887E6FE760251447887EEF6D2AE
:1015A70061C2AF755EFF120C9585225E85225FD200
:1015B700AFC261752501855D64756501D260D2632F
:1015C70075380011A911F6120D3F120CC5120DC284
:1015D7000216FB7887E6FE76037893E6FD760551DB
:1015E700447887EEF67893EDF6D260D261D2651132
:1015F700A911F6755EFF120C95120860120F6D1295
:101607000860120860120FC1120865110B120865F5
:10161700120865116812086A11A912086512086094
:10162700C261D262120BE2120BE6120C95756C08BE
:1016370075BB1011F6120D38120DC2317331D81265
:101647000F6D120D38120DC2317331D8120FC1123E
:101657000D38120DC2317331D8110B120D38120D1E
:10166700C2317331D81168120D38120DC23173317E
:10167700D811A9120D38120DC23173C3E550953533
:10168700E5519536400C31D8C3E559940150950280
:10169700182A31D8C2627887E6FE760251447887E5
:1016A700EEF685225E85605F856025855D647565DC
:1016B70001D263753800C2AF207502C29630750239
:1016C700C292207502C292307502C296742DD5E07F
:1016D700FDD2AF11F6120D3F120DAE120DC2120E52
:1016E70053756C0075BB080216FB514411F6756CF7
:1016F7000075BB08120E75120EFA120F2512098F0C
:10170700120F39120F6D120D3F120DAE120DC212CC
:101717000E53120E6C120EFA120F251209EC120F4D
:1017270039120FC1120D3F120DAE120DC2120E5318
:10173700120E75120EFA120F25120A25120F391101
:101747000B120D3F120DAE120DC2120E53120E6C7C
:10175700120EFA120F25120A82120F391168120D92
:101767003F120DAE120DC2120E53120E75120EFA63
:10177700120F25120AE6120F3911A9120D3F120D89
:10178700AE120DC2120E53120E6C120BE2120EFAAB
:10179700120F25120BE6120F3911F6120D3F120D1B
:1017A700AE120DC2120E5330634285605E85605FD4
:1017B700855D6475650179647A147888E6B40304F5
:1017C700791E7A05C3E538994015C263D2648A3712
:1017D7007888E6B40306755EFF755FFF0217F3C3EB
:1017E700E559940140030216FB02182A306419E5F3
:1017F70037147005C2640216F1F537C3E559940131
:1018070040030216FB02182AC3E55C94FA501474CD
:101817001F552E7004E528600AC3E53D94F0500378
:101827000216FBC2AF1211617887E6FE760212122A
:10183700447887EEF6E4F522F523F524F525F561DE
:10184700C260D2AF120860121161741F552E700763
:0A185700E528700302142C0214D6D9
:101A00000B02110909040103FF0A01010155AA0093
:101A1000FFFF0105FF0306FF0203FA14140501028C
:031A2000007DFF47
:101A400023536B7977616C6B6572323041232020B0
:101A500023424C48454C4923463333302320202031
:101A60006F72672E736B797075702E6573632E625B
:00000001FF
