:030000000212F3F6
:03000B000200BA36
:03002B000203E7E6
:03005B0002054655
:0300730002053C47
:1000800002030406080C10182030406080020304AC
:1000900006080C101820304080FF0406080C1018C9
:1000A0002030406080A0C00002010D0D0405060252
:1000B0000D0505050D0604050302C2AFC0D0C0E062
:1000C000205A1030600A205C07302F02E47380FC55
:1000D0000203D3306306D297D295D29385258AC284
:1000E0005AE525F4700221C60563306013206A19B1
:1000F000758B00D0E0D0D0D297D295D293D2AF32C8
:10010000D297D295D2930201B6D265C266E56760F6
:100110001CC3E5631495674014C265D266C3E563EA
:10012000956650030201B67563000201B6206C1497
:10013000D297D295D2937406D5E0FDD296D294D2BE
:10014000920201B6D266D297D295D293E53E20E2D2
:100150003420E1127406D5E0FD207502D29230758C
:1001600002D2960201B620E0127406D5E0FD207599
:1001700002D292307502D2960201B67406D5E0FD25
:10018000D2940201B620E11F20E00A7406D5E0FDFA
:10019000D2940201B67406D5E0FD207502D29630E5
:1001A0007502D2920201B67406D5E0FD207502D226
:1001B00096307502D292758B00D0E0D0D0D297D213
:1001C00095D293D2AF32D0E0D0D0D2AF3261D3E566
:1001D00025600A207502C297307502C293D29561DC
:1001E000D3E5256002C295207502D293307502D204
:1001F0009761D3E525600A207502C293307502C26B
:1002000097207502D297307502D29361D320750280
:10021000C296307502C292E525600A207502C29727
:10022000307502C293207502C292307502C296D216
:100230009561D3207502C296307502C29220750274
:10024000C292307502C2967406D5E0FDE525600ABB
:10025000207502C297307502C293D29561D3207582
:1002600002C296307502C292E525600A207502C26C
:1002700097307502C293C294D29561D3207502C2A1
:1002800096307502C292C2947406D5E0FDE52560F1
:100290000A207502C297307502C293D29561D3C20B
:1002A00094E5256002C295207502C296307502C29F
:1002B00092207502D293307502D29761D3C29420F6
:1002C0007502C296307502C2927406D5E0FDE5252E
:1002D0006002C295207502D293307502D29761D325
:1002E000C294E5256002C295207502C29230750263
:1002F000C296207502D293307502D29761D3C29410
:10030000207502C292307502C2967406D5E0FDE5F2
:10031000256002C295207502D293307502D2976192
:10032000D3207502C292307502C296E525600A207C
:100330007502C293307502C297C294207502D2979B
:10034000307502D29361D3207502C292307502C219
:1003500096C2947406D5E0FDE525600A207502C2B8
:1003600093307502C297207502D297307502D293EE
:1003700061D3207502C292307502C296E525600AEB
:10038000207502C293307502C297207502C2963062
:100390007502C292207502D297307502D29361D352
:1003A000207502C292307502C296207502C2963044
:1003B0007502C2927406D5E0FDE525600A2075023B
:1003C000C293307502C297207502D297307502D25F
:1003D0009361D3E525F4F58A758B00756200D25AD6
:1003E000D0E0D0D0D2AF32C2AFC2AD53E6EFC0D072
:1003F000C0E0D2D3D2AFC2CEE528600A741F552E1A
:1004000060491528814B78007900E580307601F449
:1004100030E50278FF53DACF20760343DA203076D6
:100420000343DA10C2D8C269E580307601F430E5C2
:100430000279FFC3E89970CE305903752818741FEC
:10044000552E60037528188859D268E5296004156F
:1004500029815E741F552E600543DA01C2D82068D9
:100460000281E7E559F8C268741F552E603679821B
:0E047000B70431C3E894F0400374F0F8E8C418
:10047E00540F28F87984B7030281A4C313C31387DA
:10048E0021200802C313200A06C3C898F881A428A5
:10049E00F8500374FFF8E52C5406703D8822306343
:1004AE000AC3E522955E4003855E227882B6042952
:1004BE00C3E5229524401278A196400DE52426F539
:1004CE002450097524FF0204DA852224A824C3E5EA
:1004DE0024955E4002A85E882520CF0CD0E0D0D0B7
:1004EE00C2D343E610D2AD32C2CF7801E528600800
:1004FE00741F552E70021528C3E5599401400575D9
:10050E005C00A123755D00756400E55C2401F55C5B
:10051E005003755CFFE55F240A5005755FFFA1303F
:10052E00F55FD0E0D0D0C2D343E610D2AD32C2AF29
:10053E0053917FC258D2AF32C2AF53E6EFC2ADC0B5
:10054E00D0C0E0C0F0D2D3D2AFA8FBA9FCC2D83045
:10055E006902A1B153DACF20760343DA1030760365
:10056E0043DA20D269E580307601F420E502A185D8
:10057E00882689270207F253DACF20760343DA2042
:10058E0030760343DA10C2D8C269741F552E70023A
:10059E00E1D87800E580307601F430E502E1D888C4
:1005AE0059E18653DACF20760343DA2030760343BF
:1005BE00DA10C269205902C16B53DACF2076034399
:1005CE00DA1030760343DA20C2D8D26988548955BE
:1005DE00C3E89552F8E99553F9E4FB7AFAC3E89427
:1005EE00C8E994005008E4D2E4FB7A0AC13EC3E89D
:1005FE009468E994015008E4D2E3FB7A0FC13EC33C
:10060E00E894D0E994025008E4D2E2FB7A1EC13E8F
:10061E00C3E894A0E994055008E4D2E1FB7A3CC10A
:10062E003EC3E89498E994085006E4D2E0FB7A7849
:10063E00C3E89556FCE99557FD30E708ECF4240124
:10064E00FCEDF4FD7558007008C3EC9A5003755814
:10065E000188568957A854A95588528953C3E895DD
:10066E0026F8E99527F9307402E16A307302E16ADF
:10067E00307202E163E9C313F9E813F8307102E155
:10068E0063E9C313F9E813F8307002E163E9C313A9
:10069E00FDE813FC205918C3EC941CED94024003A2
:1006AE000207D8ED7009C3EC94C850030207D87442
:1006BE000020770B7888E67896B40302789EE624BD
:1006CE00FAFEE43400FFC3EC9EFCED9FFD92087829
:1006DE0088E6B40322A208500920751BC2AFD2755A
:1006EE00C1F7307512C2AFC275D297D295D293C2EE
:1006FE0096C294C292D2AFA2085017E6B4030DEC84
:10070E00F42401FCEDF43400FD020720780079009A
:10071E00E16A7888E6B40315EC33FCED33FDC3ECE7
:10072E009405FCED9400FD50047C007D00C3EC9418
:10073E00FFED9400400678FF7900E16AEC856EF0DB
:10074E00A4C5F0A2F733F87900400302078678FFBC
:10075E007900020786E9C313F9E813F830740EE93D
:10076E00600278FFC3E81338F8E43400F9C3E89464
:10077E00FFE99400400278FFC3E530600588590216
:10078E0007C5C3E894A05005780002079D7801883C
:10079E0074A877B80F1A787F8859E5EE04C3F5EE82
:1007AE0094324013E4F5EEF502780088770207C51F
:1007BE00780188590207C5E559F573D268205902A8
:1007CE00E1D8741FF4552E4BF52E752818741F554D
:1007DE002E700375280A305902E1F2741F552E60EF
:1007EE000353DAFE752906741F552E700375290AF8
:1007FE00D0F0D0E0D0D0C2D3D2AD43E610327901E2
:10080E0002082A790302082A790A02082A791E02A6
:10081E00082A796402082A79C802082A7817E4D5CA
:10082E00E0FDD8FAD9F6227C051125DCFC227A14DB
:10083E007B780208587A107B8C0208587A0D7BB4AC
:10084E000208587A0B7BC8020858AC257525017929
:10085E0002B275E4C294D5E0FDE5256002C295D5DD
:0E086E00E0FDD295D5E0FDD294D5E0FDE52564
:10087C00600A207502C297307502C293E56FD5E00D
:10088C00FD207502D297307502D2937496D5E0FD97
:10089C00D9C1EAF8D5E0FDD8FBDBB1C2948C252296
:1008AC00C37C007D0075F00005F0EA33FAEB33FBF6
:1008BC0050F6EB13FBEA13FAC3E9FFE8FEE89AF8EB
:1008CC00E99BF95004EFF9EEF8B3EC33FCED33FD92
:1008DC00D5F0DFEDF9ECF822E889F08A20D2D4F8D3
:1008EC00A9F07B0030F70B7BFFF42401F8E9F4341A
:1008FC0000F9E88520F0A4ADF0F8E98520F0A4AF6C
:10090C00F0FEED2EF974003FFA7C04C3EA13FAE909
:10091C0013F9E813F8DCF48BF030F70AE8F424014F
:10092C00F8E9F43400F9E889F0C2D4F8A9F0227897
:10093C0082B60403020997C3E559940140030209E6
:10094C0060852224E4F540F541F542F543F544F584
:10095C00490209977882E6FC754901E522F523786E
:10096C003879C7AA3CAB3DC3EB13FBEA13FAEC1482
:10097C006013C3EB13FBEA13FAEC14146007C3EB1C
:10098C0013FBEA13FA11AC8840894122E549603423
:10099C00C3E5409523F8E5419400F9500CC3E89465
:1009AC0080E994FF40160209CCC3E8947FE99400D7
:1009BC0050030209CC787F79000209CC788079FF4A
:1009CC008845894622E5496058E5452542F8E546C3
:1009DC003543F9854620E4300701F43544FA30E715
:1009EC0009C3EA94F04015020A0EC3EA940F5003AF
:1009FC00020A0E78FF79FF7A0F020A0E780079004E
:100A0C007AF0C3E524955E5006E52460094127E59C
:100A1C004620E70D4127E54630E706884289438AA0
:100A2C004422E5497003020A91789FE6FAC3E54532
:100A3C0033F8E54633F911E4E930E70BC3E8948069
:100A4C00E994FF40134168C3E8947FE99400500295
:100A5C004168787F79004168788079FFE820E71554
:100A6C00C3E52398F84009C3E894014003020A8FB8
:100A7C007801020A8FE8F424012523F84003020AC6
:100A8C008F78FF884722E5497003020AF378A0E6C5
:100A9C00FAA843A94411E4E930E70CC3E89401E94E
:100AAC0094FF4016020ACAC3E894FFE9940050036D
:100ABC00020ACA78FF7900020ACA780179FFE92094
:100ACC00E715C3E54798F84009C3E89401400302D1
:100ADC000AF17800020AF1E8F424012547F84003F2
:100AEC00020AF178FF8824227883E6F5201210554B
:100AFC0075E890110C75E890E5E820ECFBA8BDA911
:100B0C00BE12110D756A55756B00C3740013FD741C
:100B1C005513FC74552CFC74003DFDECFAEDFBC335
:100B2C00E89AE99B4014E56A2455F56AE56B3400B4
:100B3C00F56BEA2CFAEB3DFB80E5AE6AAF6BC3E5D7
:100B4C006B13F9E56A13F8C3E913F9E813F8E56ACE
:100B5C0028F568E56B39F5697A03C3E913F9E813ED
:100B6C00F8DAF7AA201A7009756A00756B00020B87
:100B7C008D1AEA6008EE28FEEF39FFDAF88E6A8FDC
:100B8C006B2275E890227883E6FFE5E820ECF7A865
:100B9C00BDA9BE056CC3E56C9408404B756C00E9AF
:100BAC007007E56D601B020BC1C3E8956D6010E525
:100BBC006D5006600C14020BCD0460F9020BCDE5F0
:100BCC006DF56DC3946D401B755EC0C394044013EA
:100BDC00755E80C39404400B755E40C3940440035F
:100BEC00755E0075BB0822EFC39401601BC3E894CB
:100BFC00FFE994035012C3E8956AE9956B5009E537
:100C0C005E600C155E020C1BE55EF46002055EA8CE
:100C1C005EC3E524985002A824C3E8955F400AA857
:100C2C005FE55FF46003855F5E8825C3E56CB40700
:100C3C000375BB102230610278323062027878E59D
:100C4C002C5406601FE879A287F0A4C5F0A2F733F4
:100C5C00F8C3E8955E4002A85E8822882488253077
:0F0C6C006102886022788FE6FFC3EF940550186D
:100C7B00C3EF94045020C3EF94035028C3EF9402A6
:100C8B005030C3EF940150387533A075340F753560
:100C9B003C75360581D77533C07534127535407583
:100CAB00360681D77533707534177535D0753607A1
:100CBB0081D775334C75341D7535C475360981D79D
:100CCB007533287534237535B875360B85335085D8
:100CDB003451753C00753D0822A850A951020CEF08
:100CEB00A84AA94B759100C3E498F594E499F5953E
:100CFB00759104D25875C820A8CCA9CD75C824AA63
:100D0B003AAB3B883A893BC3E89AF8E99BF9AA3C92
:100D1B00AB3DC3EB13FDEA13FCC3ED13FDEC13FC6E
:100D2B00C3EA9CFAEB9DFBEA28FAEB39FB8A3C8B76
:100D3B003D400122753CFF753DFF22759100C3E4D8
:100D4B00954CF594E4954DF595759104D258227F09
:100D5B0001789CE61460027F02305802A164B14610
:100D6B00DFF7227892E6FF7E14A83DC3E894044097
:100D7B00027804C3E833F8C3EE98FE3063047F03B4
:100D8B007E00A93DA83C7A04C3E913F9E813F8DA0D
:100D9B00F7C3E89EF8E99400F94009C3E89402E927
:100DAB00940050047802E4F9E9FBE8FAC3E913FD77
:100DBB00E813FCC3EF9403602EEF20E00DE82CF852
:100DCB00E93DF9ECFAEDFB020DDFE828F8E939F91A
:100DDB007A02E4FBC3EF9403400D8A4E8B4F884A93
:100DEB00894B8C4C8D4D22884E894F8A4A8B4B8C6C
:100DFB004C8D4D22305802A1FF759100C3E4953CF8
:100E0B00F594E4953DF595759104D25822753F0004
:100E1B00752000020E27753F00752040D2AF053FAD
:100E2B0020580122759D00E53DC313C313F80860DC
:100E3B0030306A06C313C313F808C3E8940A4002A0
:100E4B00780A306D08C3E8940440027804C3E53D8A
:100E5B009408400D759D02C3E53D94104003759DAC
:100E6B0003205803D2AF227918206D027908D2AF34
:100E7B000000C2AF205A0A7914206D027907306640
:100E8B00E03063027978C3E58B9940D5E59BF45448
:100E9B0040B52002C127D8C9D2AF22C25B789CE6ED
:100EAB0014600AE53F147005206302D25B30630BBC
:100EBB000538205810753800020ED02058071581C0
:100ECB0015810217C522759100C3E4954EF594E484
:100EDB00954FF595759104D258220539205B037512
:100EEB003900305B2378A3E6FFBF0108D25CD297B1
:100EFB00D295D293B146305802E101BF0208D25CC1
:100F0B00D297D295D293D1D1305802E11322C2AFEE
:100F1B00C294206A03020F3890034730650F207587
:100F2B0002C292307502C2967406D5E0FDE52560CB
:100F3B000A207502C297307502C293740FD5E0FD7B
:100F4B00207502D297307502D2937406D5E0FD203E
:100F5B007502D296307502D292759F10753E0202C1
:100F6B0010F9C2AF206A03020F8F9002FE30651793
:100F7B00C294207502C292307502C2967406D5E0F7
:100F8B00FD020F929001E1207502D293307502D2CF
:100F9B0097305A06E5256002C295207503759F139D
:100FAB00307503759F11753E030210F9C2AF2075A2
:100FBB0002C296307502C292206A03020FD69002CB
:100FCB00BD306507C2947406D5E0FDE525600A20A7
:100FDB007502C293307502C297740FD5E0FD207570
:100FEB0002D293307502D2977406D5E0FD207502BC
:100FFB00D292307502D296207503759F113075030E
:10100B00759F13753E040210F9C2AF206A030210DC
:10101B003690027C306517207502C296307502C27D
:10102B0092C2947406D5E0FD0210399001CFD2958F
:10103B00305A0EE525600A207502C297307502C240
:10104B0093759F10753E050210F9C2AF207502C251
:10105B0092307502C296206A0302107C90023330E4
:0E106B00650F207502C296307502C29274069F
:10107900D5E0FDE5256002C295740FD5E0FDD29556
:101089007406D5E0FDD294207503759F133075035E
:10109900759F11753E060210F9C2AF206A0302104E
:1010A900CC9003A030651F207502C296307502C22C
:1010B90092207502C292307502C2967406D5E0FD7F
:1010C9000210CF9001F3207502D297307502D293A6
:1010D900305A0EE525600A207502C293307502C2A6
:1010E90097207503759F11307503759F13753E0120
:1010F900D2AF789CE6C394024007C3E53994035004
:1011090002C25C229001CDD297D295D293C296C2E7
:1011190094C292C25A22C3E5509535E5519536508D
:1011290001227890E6FFC3EF94055018C3EF9404A9
:10113900501BC3EF9403501EC3EF94025021C3EF19
:1011490094015024C3E550943CF802117AC3E55048
:101159009428F802117AC3E550941AF802117AC357
:10116900E5509412F802117AC3E550940AF8021175
:101179007AE5519400F98850895122305802218426
:1011890022788076090876090876040876010876B7
:10119900030876FF08760A087601087601087601C1
:1011A900788C76000876FF0876FF087601087605C0
:1011B9000876FF0876030876060876FF087602089F
:1011C90076030876FA087650087650087605087688
:1011D9000108760208760008767DE4F573F575F561
:1011E90076780F8877227893E6FF75660975670127
:1011F900C3BF0206756605756701C3BF0306756639
:1012090005756702C3BF0406756605756703C3BF25
:101219000506756609756707C3BF06067566007515
:1012290067007887E6FFC26CC3BF0302D26CC26B4A
:10123900C3BF0402D26BC26A7418552D6002D26A08
:10124900C2656002D265D2666002C2667888E6C36A
:1012590094036008C275E630E102D275C2767889D6
:10126900E630E102D276C3EF94026008758E01D2AE
:101279006D021282758E00C26D227880E61490008C
:101289008093789FF67881E6149000809378A0F691
:10129900310D22789BE61490008D9378A1F6310DDB
:1012A900227886E61490009A9378A2F6310D227876
:1012B9009CE6149000A79378A3F6310D2222789624
:1012C900E6FA7897E6FB3077047A007BFFC3EB9A5E
:1012D900FCC3948250027C82756E00056EEC856EAB
:1012E900F0A4C3E5F0948040F222E5EF20E603750F
:1012F90020000520903FFFE520146006901DFF1493
:1013090060009304600375EF12C2D353D9BF75818E
:10131900C043FF8012080C75EF0243B203E5B32402
:10132900044002F5B3310D7580FF75A40075F1B263
:1013390075D4DF7590A975A5FC75F2FC75D5017595
:10134900A60175E241E4F8F6D8FD318A31EF5183FF
:10135900519C51AA51B851C651C77898866F310D21
:1013690075885075890275C82475910475D840C26D
:10137900AF12082512083C12081B12084312081B59
:1013890012084A12081B12085112081B75A8227567
:10139900B80275E690759B80759D0375D10E75BC75
:1013A9005875BB0875BA1175E88012080CD2AF12CE
:1013B9000AF443DA01C2D8C269120825753001D28C
:1013C900597A05E55870027A05120811E559C3944E
:1013D9000240EEE52E541F855B5AF55BB55AE2DAF9
:1013E900E2C25953DACF20760343DA203076034339
:1013F900DA10C2D8C2691208201208117802741FC3
:10140900552E70027800C3E5599840EDC2AF120815
:101419003C12081B12083C12081B12084312081B35
:1014290012084312081BD2AF120825754800C3E5FC
:101439005995484003855948120820C3E559940134
:10144900400280EAC2AF12085112081B1208511259
:10145900081B12084A12081B12084A12081BD2AFAD
:0F146900120825753000E4F531F5320531E53113
:10147800F470390532789AE67819146012783214C3
:10148800600D787D14600878FA146003753200C323
:10149800E53298401715327531B47899866FC2AF26
:1014A800120851D2AF7898866F120820120816E5F4
:1014B800287008741F552E700261C8C3E559940638
:1014C80040AA7888E6C394036003120820E52870D0
:1014D800030213C8C2AF310DE4F522F523F524F554
:1014E80025D2AF78858661F540F541F542F543F59B
:1014F80044F56CF549F52BF52CF539120C71756C22
:101508000875BB1012080C120B8EE5E820ECFBA83E
:10151800BDA9BEE97001F8886D120B92756C08754B
:10152800BB107895E630E0030215737887E6FE76FF
:101538000231EF7887EEF6D261C2AF755EFF120C0A
:101548004185225E85225FD2AFC261752501855D26
:1015580064756501D260D263753800115511A21205
:101568000CEB120C71120D6E0216967887E6FE7659
:10157800037893E6FD760531EF7887EEF67893EDFC
:10158800F6D260D261D265115511A2755EFF120CB8
:101598004112080C120F1912080C12080C120F6DC8
:1015A800120811120FB7120811120811111412089B
:1015B80016115512081112080CC261D262120B8E54
:1015C800120B92120C41756C0875BB1011A2120C0B
:1015D800E4120D6E311F3184120F19120CE4120D32
:1015E8006E311F3184120F6D120CE4120D6E311F13
:1015F8003184120FB7120CE4120D6E311F318411B1
:1016080014120CE4120D6E311F31841155120CE4C2
:10161800120D6E311FC3E5509535E5519536400CD6
:101628003184C3E559940150940217C53184C262CC
:101638007887E6FE760231EF7887EEF685225E85BA
:10164800605F856025855D64756501D263753800C6
:10165800C2AF207502C296307502C292207502C2CE
:1016680092307502C296742DD5E0FDD2AF11A21248
:101678000CEB120D5A120D6E120DFF756C0075BB36
:101688000802169631EF11A2756C0075BB08120E90
:1016980021120EA6120ED112093B120EE5120F19D5
:1016A800120CEB120D5A120D6E120DFF120E1812BB
:1016B8000EA6120ED1120998120EE5120F6D120C19
:1016C800EB120D5A120D6E120DFF120E21120EA6FC
:1016D800120ED11209D1120EE5120FB7120CEB122D
:1016E8000D5A120D6E120DFF120E18120EA6120EC2
:1016F800D1120A2E120EE51114120CEB120D5A1209
:101708000D6E120DFF120E21120EA6120ED1120A24
:1017180092120EE51155120CEB120D5A120D6E12A3
:101728000DFF120E18120B8E120EA6120ED1120BEE
:1017380092120EE511A2120CEB120D5A120D6E1236
:101748000DFF30634285605E85605F855D64756509
:101758000179647A147888E6B40304791E7A05C39B
:10176800E538994015C263D2648A377888E6B403AD
:1017780006755EFF755FFF02178FC3E55994014038
:10178800030216960217C5306419E537147005C2AE
:101798006402168CF537C3E5599401400302169686
:1017A8000217C5C3E55C94FA5013741F552E7004D4
:1017B800E5286009C3E53D94F05002C196C2AF31F7
:1017C8000D7887E6FE760231EF7887EEF6E4F522AB
:1017D800F523F524F525F561C260D2AF12080C3166
:0F17E8000D741F552E7006E528700261C8816FC1
:101A00000B02110909040103FF0A01010155AA0093
:101A1000FFFF0105FF0306FF0203FA505005010214
:031A2000007DFF47
:101A400023536B7977616C6B6572323041232020B0
:101A500023424C48454C4923463333302320202031
:101A60006F72672E736B797075702E6573632E625B
:00000001FF
