:030000000212F2F7
:03000B000200BA36
:03002B000203E7E6
:03005B0002054655
:0300730002053C47
:1000800002030406080C10182030406080020304AC
:1000900006080C101820304080FF0406080C1018C9
:1000A0002030406080A0C00002010D0D0405060252
:1000B0000D0505050D0604050302C2AFC0D0C0E062
:1000C000205A1030600A205C07302F02E47380FC55
:1000D0000203D3306306C2B1C287C28185258AC2BA
:1000E0005AE525F4700221C60563306013206A19B1
:1000F000758B00D0E0D0D0C2B1C287C281D2AF32FE
:10010000C2B1C287C2810201B6D265C266E567602C
:100110001CC3E5631495674014C265D266C3E563EA
:10012000956650030201B67563000201B6206C1497
:10013000C2B1C287C2817406D5E0FDD282D286D216
:10014000800201B6D266C2B1C287C281E53E20E21A
:100150003420E1127406D5E0FD207502D28030759E
:1001600002D2820201B620E0127406D5E0FD2075AD
:1001700002D280307502D2820201B67406D5E0FD4B
:10018000D2860201B620E11F20E00A7406D5E0FD08
:10019000D2860201B67406D5E0FD207502D2823007
:1001A0007502D2800201B67406D5E0FD207502D238
:1001B00082307502D280758B00D0E0D0D0C2B1C23F
:1001C00087C281D2AF32D0E0D0D0D2AF3261D3E596
:1001D00025600A207502D2B1307502D281C28761D2
:1001E000D3E5256002D287207502C281307502C234
:1001F000B161D3E525600A207502D281307502D243
:10020000B1207502C2B1307502C28161D32075027E
:10021000C282307502C280E525600A207502D2B123
:10022000307502D281207502C280307502C282C24E
:100230008761D3207502C282307502C280207502A8
:10024000C280307502C2827406D5E0FDE525600AE1
:10025000207502D2B1307502D281C28761D3207578
:1002600002C282307502C280E525600A207502D282
:10027000B1307502D281C286C28761D3207502C2B5
:1002800082307502C280C2867406D5E0FDE5256025
:100290000A207502D2B1307502D281C28761D3C201
:1002A00086E5256002D287207502C282307502C2BF
:1002B00080207502C281307502C2B161D3C286202E
:1002C0007502C282307502C2807406D5E0FDE52554
:1002D0006002D287207502C281307502C2B161D33B
:1002E000C286E5256002D287207502C28030750281
:1002F000C282207502C281307502C2B161D3C2864A
:10030000207502C280307502C2827406D5E0FDE518
:10031000256002D287207502C281307502C2B161A8
:10032000D3207502C280307502C282E525600A20A2
:100330007502D281307502D2B1C286207502C2B177
:10034000307502C28161D3207502C280307502C24D
:1003500082C2867406D5E0FDE525600A207502D2CA
:1003600081307502D2B1207502C2B1307502C281EE
:1003700061D3207502C280307502C282E525600A11
:10038000207502D281307502D2B1207502C282304E
:100390007502C280207502C2B1307502C28161D37C
:1003A000207502C280307502C282207502C282307E
:1003B0007502C2807406D5E0FDE525600A2075024D
:1003C000D281307502D2B1207502C2B1307502C23D
:1003D0008161D3E525F4F58A758B00756200D25AE8
:1003E000D0E0D0D0D2AF32C2AFC2AD53E6EFC0D072
:1003F000C0E0D2D3D2AFC2CEE528600A741F552E1A
:1004000060491528814B78007900E580307601F449
:1004100030E50278FF53DACF20760343DA203076D6
:100420000343DA10C2D8C269E580307601F430E5C2
:100430000279FFC3E89970CE305903752818741FEC
:10044000552E60037528188859D268E5296004156F
:1004500029815E741F552E600543DA01C2D82068D9
:100460000281E7E559F8C268741F552E603679821B
:0E047000B70431C3E894F0400374F0F8E8C418
:10047E00540F28F87984B7030281A4C313C31387DA
:10048E0021200802C313200A06C3C898F881A428A5
:10049E00F8500374FFF8E52C5406703D8822306343
:1004AE000AC3E522955E4003855E227882B6042952
:1004BE00C3E5229524401278A196400DE52426F539
:1004CE002450097524FF0204DA852224A824C3E5EA
:1004DE0024955E4002A85E882520CF0CD0E0D0D0B7
:1004EE00C2D343E610D2AD32C2CF7801E528600800
:1004FE00741F552E70021528C3E5599401400575D9
:10050E005C00A123755D00756400E55C2401F55C5B
:10051E005003755CFFE55F240A5005755FFFA1303F
:10052E00F55FD0E0D0D0C2D343E610D2AD32C2AF29
:10053E0053917FC258D2AF32C2AF53E6EFC2ADC0B5
:10054E00D0C0E0C0F0D2D3D2AFA8FBA9FCC2D83045
:10055E006902A1B353DACF20760343DA1030760363
:10056E0043DA20D269E580307601F420E502A185D8
:10057E008826892702084653DACF20760343DA20ED
:10058E0030760343DA10C2D8C269741F552E700339
:10059E0002082C7800E580307601F430E50302087D
:1005AE002C8859E18853DACF20760343DA2030764F
:1005BE000343DA10C269205902C16D53DACF207697
:1005CE000343DA1030760343DA20C2D8D269885456
:1005DE008955C3E89552F8E99553F9E4FB7AFAC3C5
:1005EE00E894C8E994005008E4D2E4FB7A0AC140CA
:1005FE00C3E89468E994015008E4D2E3FB7A0FC192
:10060E0040C3E894D0E994025008E4D2E2FB7A1E8B
:10061E00C140C3E894A0E994055008E4D2E1FB7A06
:10062E003CC140C3E89498E994085006E4D2E0FB3C
:10063E007A78C3E89556FCE99557FD30E708ECF457
:10064E002401FCEDF4FD7558007008C3EC9A5003BC
:10065E0075580188568957A854A95588528953C38D
:10066E00E89526F8E99527F9307402E16C307302AB
:10067E00E16C307202E165E9C313F9E813F83071E9
:10068E0002E165E9C313F9E813F8307002E165E998
:10069E00C313FDE813FC205918C3EC941CED94020F
:1006AE00400302082CED7009C3EC94C850030208F5
:1006BE002C740020770B7888E67896B40302789E27
:1006CE00E624FAFEE43400FFC3EC9EFCED9FFD929F
:1006DE00087888E6B40322A208500920751BC2AF21
:1006EE00D275C1F9307512C2AFC275C2B1C287C21E
:1006FE0081C282C286C280D2AFA2085017E6B4036E
:10070E000DECF42401FCEDF43400FD020722780018
:10071E007900E16C7888E6B40315EC33FCED33FD1B
:10072E00C3EC9405FCED9400FD50047C007D00C3E9
:10073E00EC94FFED9400400678FF7900E16CEC85B7
:10074E006EF0A4C5F0A2F733F879004003020788D3
:10075E0078FF7900020788E9C313F9E813F83074BB
:10076E000EE9600278FFC3E81338F8E43400F9C3E9
:10077E00E894FFE99400400278FFC3E894A0500586
:10078E00780002079578018875A873B8010778FF7D
:10079E008859020819A878B8102978FF8859057663
:1007AE00E57670020577C3E57794024013C3E576CC
:1007BE00948A400C78208878E4F576F5770208194B
:1007CE00020819A878B82029787F88590576E57629
:1007DE0070020577C3E57794294013C3E576940438
:1007EE00400C78008878E4F576F57702081902084F
:1007FE001978008859A830B80011A875B8010C787E
:10080E00108878E4F576F577020819E559F574D273
:10081E0068205902012C741FF4552E4BF52E7528A5
:10082E0018741F552E700375280A3059020146742C
:10083E001F552E600353DAFE752906741F552E7050
:10084E000375290AD0F0D0E0D0D0C2D3D2AD43E6A2
:10085E001032790102087E790302087E790A0208B5
:0D086E007E791E02087E796402087E79C83A
:10087B0002087E7817E4D5E0FDD8FAD9F6227C057C
:10088B001179DCFC227A147B780208AC7A107B8C11
:10089B000208AC7A0D7BB40208AC7A0B7BC8020859
:1008AB00ACAC257525017902B275E4C286D5E0FDA5
:1008BB00E5256002D287D5E0FDC287D5E0FDD28663
:1008CB00D5E0FDE525600A207502D2B1307502D264
:1008DB0081E56FD5E0FD207502C2B1307502C28192
:1008EB007496D5E0FDD9C1EAF8D5E0FDD8FBDBB1B4
:1008FB00C2868C2522C37C007D0075F00005F0EAD2
:10090B0033FAEB33FB50F6EB13FBEA13FAC3E9FFB5
:10091B00E8FEE89AF8E99BF95004EFF9EEF8B3EC2E
:10092B0033FCED33FDD5F0DFEDF9ECF822E889F07F
:10093B008A20D2D4F8A9F07B0030F70B7BFFF4248C
:10094B0001F8E9F43400F9E88520F0A4ADF0F8E9FA
:10095B008520F0A4AFF0FEED2EF974003FFA7C0475
:10096B00C3EA13FAE913F9E813F8DCF48BF030F768
:10097B000AE8F42401F8E9F43400F9E889F0C2D468
:10098B00F8A9F0227882B604030209EBC3E5599467
:10099B000140030209B4852224E4F540F541F542F8
:1009AB00F543F544F5490209EB7882E6FC754901FC
:1009BB00E522F523783879C7AA3CAB3DC3EB13FB93
:1009CB00EA13FAEC146013C3EB13FBEA13FAEC14FF
:1009DB00146007C3EB13FBEA13FA3100884089411B
:1009EB0022E5496034C3E5409523F8E5419400F9CD
:1009FB00500CC3E89480E994FF4016020A20C3E828
:100A0B00947FE994005003020A20787F7900020A50
:100A1B0020788079FF8845894622E5496058E5456D
:100A2B002542F8E5463543F9854620E4300701F4C5
:100A3B003544FA30E709C3EA94F04015020A62C361
:100A4B00EA940F5003020A6278FF79FF7A0F020AC9
:100A5B0062780079007AF0C3E524955E5006E524B0
:100A6B006009417BE54620E70D417BE54630E70613
:100A7B00884289438A4422E5497003020AE5789F3C
:100A8B00E6FAC3E54533F8E54633F93138E930E7A3
:100A9B000BC3E89480E994FF401341BCC3E8947FF7
:100AAB00E99400500241BC787F790041BC78807991
:100ABB00FFE820E715C3E52398F84009C3E8940144
:100ACB004003020AE37801020AE3E8F42401252338
:100ADB00F84003020AE378FF884722E549700302D6
:100AEB000B4778A0E6FAA843A9443138E930E70C64
:100AFB00C3E89401E994FF4016020B1EC3E894FF70
:100B0B00E994005003020B1E78FF7900020B1E784C
:100B1B000179FFE920E715C3E54798F84009C3E8D9
:100B2B0094014003020B457800020B45E8F42401C5
:100B3B002547F84003020B4578FF8824227883E68B
:100B4B00F52012106575E890116075E890E5E820C6
:100B5B00ECFBA8BDA9BE12110B756A55756B00C3D2
:100B6B00740013FD745513FC74552CFC74003DFD7F
:100B7B00ECFAEDFBC3E89AE99B4014E56A2455F5C2
:100B8B006AE56B3400F56BEA2CFAEB3DFB80E5AEC6
:100B9B006AAF6BC3E56B13F9E56A13F8C3E913F995
:100BAB00E813F8E56A28F568E56B39F5697A03C34C
:100BBB00E913F9E813F8DAF7AA201A7009756A0035
:100BCB00756B00020BE11AEA6008EE28FEEF39FFA5
:100BDB00DAF88E6A8F6B2275E890227883E6FFE550
:100BEB00E820ECF7A8BDA9BE056CC3E56C940840E2
:100BFB004B756C00E97007E56D601B020C15C3E8C3
:100C0B00956D6010E56D5006600C14020C210460AC
:100C1B00F9020C21E56DF56DC394A8401B755EC000
:100C2B00C394054013755E80C39405400B755E40FD
:100C3B00C394054003755E0075BB0622EFC3940198
:100C4B00601BC3E894FFE994035012C3E8956AE96B
:100C5B00956B5009E55E600C155E020C6FE55EF45A
:0F0C6B006002055EA85EC3E524985002A824C36A
:100C7A00E8955F400AA85FE55FF46003855F5E88D8
:100C8A0025C3E56CB4070375BB1E223061027832B6
:100C9A003062027878E52C5406601FE879A287F062
:100CAA00A4C5F0A2F733F8C3E8955E4002A85E88AF
:100CBA002288248825306102886022788FE6FFC363
:100CCA00EF94055018C3EF94045020C3EF940350D7
:100CDA0028C3EF94025030C3EF940150387533A003
:100CEA0075340F75353C753605A12B7533C07534CF
:100CFA0012753540753606A12B7533707534177524
:100D0A0035D0753607A12B75334C75341D7535C42E
:100D1A00753609A12B7533287534237535B87536A0
:100D2A000B853350853451753C00753D0822A85017
:100D3A00A951020D43A84AA94B759100C3E498F53D
:100D4A0094E499F595759104D25875C820A8CCA950
:100D5A00CD75C824AA3AAB3B883A893BC3E89AF8CE
:100D6A00E99BF9AA3CAB3DC3EB13FDEA13FCC3EDC7
:100D7A0013FDEC13FCC3EA9CFAEB9DFBEA28FAEBA1
:100D8A0039FB8A3C8B3D400122753CFF753DFF22B1
:100D9A00759100C3E4954CF594E4954DF5957591DC
:100DAA0004D258227F01789CE61460027F023058F0
:100DBA0002A1B8B19ADFF7227892E6FF7E14A83D25
:100DCA00C3E8940440027804C3E833F8C3EE98FEFB
:100DDA003063047F037E00A93DA83C7A04C3E9136B
:100DEA00F9E813F8DAF7C3E89EF8E99400F940093C
:100DFA00C3E89402E9940050047802E4F9E9FBE8B4
:100E0A00FAC3E913FDE813FCC3EF9403602EEF2045
:100E1A00E00DE82CF8E93DF9ECFAEDFB020E33E8B7
:100E2A0028F8E939F97A02E4FBC3EF9403400D8A02
:100E3A004E8B4F884A894B8C4C8D4D22884E894F58
:100E4A008A4A8B4B8C4C8D4D22305802C153759176
:100E5A0000C3E4953CF594E4953DF595759104D26B
:100E6A005822753F00752000020E7B753F007520E1
:100E7A0040D2AF053F20580122759D00E53DC313BE
:100E8A00C313F8086030306A06C313C313F808C3E3
:100E9A00E8940A4002780A306D08C3E894044002D4
:100EAA007804C3E53D9408400D759D02C3E53D9461
:100EBA00104003759D03205803D2AF22791E206D7E
:100ECA0002790AD2AF0000C2AF205A0A791E206DF9
:100EDA0002790A3066E03063027978C3E58B99407B
:100EEA00D5E59BF45440B52002C17BD8C9D2AF22C4
:100EFA00C25B789CE614600AE53F14700520630221
:100F0A00D25B30630B0538205810753800020F2465
:100F1A00205807158115810217E822759100C3E44C
:100F2A00954EF594E4954FF595759104D25822059E
:100F3A0039205B03753900305B2378A3E6FFBF01D4
:100F4A0008D25CC2B1C287C281B19A305802E15557
:100F5A00BF0208D25CC2B1C287C281F125305802F1
:100F6A00E16722C2AFC286206A03020F8C90034750
:100F7A0030650F207502C280307502C2827406D5B0
:100F8A00E0FD207502D282307502D280759F02750B
:100F9A003E020210F7C2AF206A03020FC19002FE9E
:100FAA00306517C286207502C280307502C282740B
:100FBA0006D5E0FD020FC49001E1207502C281301E
:100FCA007502C2B1305A06E5256002D28720750340
:100FDA00759F03307503759F01753E030210F7C2B2
:100FEA00AF207502C282307502C280206A030210E5
:100FFA00089002BD306507C2867406D5E0FD2075EB
:10100A0002D280307502D282207503759F01307535
:10101A0003759F03753E040210F7C2AF206A0302EC
:10102A00104690027C306517207502C28230750224
:10103A00C280C2867406D5E0FD0210499001CFC273
:10104A0087305A0EE525600A207502D2B130750242
:10105A00D281759F02753E050210F7C2AF20750254
:0D106A00C280307502C282206A0302108C21
:1010770090023330650F207502C282307502C2803C
:101087007406D5E0FDD286207503759F033075037E
:10109700759F01753E060210F7C2AF206A03021062
:1010A700CA9003A030651F207502C282307502C244
:1010B70080207502C280307502C2827406D5E0FDB9
:1010C7000210CD9001F3207502C2B1307502C281C2
:1010D700305A0EE525600A207502D281307502D29A
:1010E700B1207503759F01307503759F03753E0128
:1010F700D2AF789CE6C394024007C3E53994035006
:1011070002C25C229001CDC2B1C287C281C282C233
:1011170086C280C25A22C3E5509535E551953650AF
:1011270001227890E6FFC3EF94055018C3EF9404AB
:10113700501BC3EF9403501EC3EF94025021C3EF1B
:1011470094015024C3E550943CF8021178C3E5504C
:101157009428F8021178C3E550941AF8021178C35D
:10116700E5509412F8021178C3E550940AF8021179
:1011770078E5519400F9885089512230580221822C
:1011870022788076090876090876040876010876B9
:10119700030876FF087609087601087601087601C4
:1011A700788C76000876FF0876FF087601087605C2
:1011B7000876FF0876030876060876FF08760208A1
:1011C70076030876FA087614087614087605087602
:1011D7000108760208760008767D7574007576003A
:1011E700757700757800227893E6FF75660975674D
:1011F70001C3BF0206756605756701C3BF030675A0
:101207006605756702C3BF0406756605756703C380
:10121700BF0506756609756707C3BF0606756600CD
:101227007567007887E6FFC26CC3BF0302D26CC242
:101237006BC3BF0402D26BC26A7418552D6002D209
:101247006AC2656002D265D2666002C2667888E6C5
:10125700C394036008C275E630E102D275C276789E
:1012670089E630E102D276C3EF94026008758E01F9
:10127700D26D021281758E00C26D227880E61490BD
:10128700008093789FF67881E6149000809378A089
:10129700F6310B22789BE61490008D9378A1F631F6
:1012A7000B227886E61490009A9378A2F6310B22E7
:1012B700789CE6149000A79378A3F6310B22227846
:1012C70096E6FA7897E6FB3077047A007BFFC3EB64
:1012D7009AFCC3948250027C82756E00056EEC8581
:1012E7006EF0A4C3E5F0948040F222E5EF20E60318
:1012F7007520000520903DFFE520146006901FFF34
:101307001460009304600375EF12C2D353D9BF75FD
:1013170081C043FF8012086075EF0243B203E5B353
:1013270024044002F5B3310B75803875A4C775F1F5
:10133700FF75D4DF7590FF75A50075F20075D500B0
:1013470075A0FF75A60075F30075D60075B0E47536
:10135700A71B75F4FF75E241E4F8F6D8FD31883133
:10136700EE5182519B51A951B751C551C678988604
:101377006F310B75885075890275C824759104758E
:10138700D840C2AF12087912089012086A1208975B
:1013970012086A12089E12086A1208A512086A1231
:1013A700088912087912087912087475A82275B885
:1013B7000275E690759B80759D0375D10E75BC58B7
:1013C70075BB0675BA1F75E880120860D2AF120B9D
:1013D7004843DA01C2D8C2691208797530017573BA
:1013E70001D2597A05E55870027A05120865E55960
:1013F700C3940240EEE52E541F855B5AF55BB55A40
:10140700E2DAE2C25953DACF20760343DA203076A4
:101417000343DA10C2D8C269120874120865780249
:10142700741F552E70027800C3E5599840EDC2AF7E
:1014370012089012086A12089012086A1208971286
:10144700086A12089712086AD2AF120879757300F2
:10145700754800C3E55995484003855948120874F3
:0E146700C3E5599401400280EAC2AF1208A505
:1014750012086A1208A512086A12089E12086A1252
:10148500089E12086AD2AF120879753000E4F5316A
:10149500F5320531E531F470390532789AE6781977
:1014A500146012783214600D787D14600878FA148F
:1014B5006003753200C3E53298401715327531B4B3
:1014C5007899866FC2AF1208A5D2AF7898866F1249
:1014D500087412086AE5287008741F552E70026199
:1014E500E8C3E559940640AA7888E6C394036003E7
:1014F500120874E52870030213E8C2AF310BE4F556
:1015050022F523F524F525D2AF78858661F540F5DA
:1015150041F542F543F544F56CF549F52BF52CF508
:1015250039120CC5756C0875BB1E120860120BE2EA
:10153500E5E820ECFBA8BDA9BEE97001F8886D12AD
:101545000BE6756C0875BB1E7895E630E003021551
:10155500967887E6FE760231EE7887EEF6D261C29E
:10156500AF755EFF120C9585225E85225FD2AFC2F4
:1015750061752501855D64756501D260D263753835
:1015850000116511A0120D3F120CC5120DC20216F5
:10159500B97887E6FE76037893E6FD760531EE7831
:1015A50087EEF67893EDF6D260D261D265116511BA
:1015B500A0755EFF120C95120860120F6D1208607F
:1015C500120860120F9F120865120FE912086512C2
:1015D5000865112412086A1165120865120860C2AF
:1015E50061D262120BE2120BE6120C95756C08754E
:1015F500BB1E11A0120D38120DC2311D3182120F02
:101605006D120D38120DC2311D3182120F9F120D50
:1016150038120DC2311D3182120FE9120D38120D2B
:10162500C2311D31821124120D38120DC2311D3106
:10163500821165120D38120DC2311DC3E550953565
:10164500E5519536400C3182C3E559940150940219
:1016550017E83182C2627887E6FE760231EE788736
:10166500EEF685225E85605F856025855D6475651E
:1016750001D263753800C2AF207502C2823075028F
:10168500C280207502C280307502C282742DD5E0F9
:10169500FDD2AF11A0120D3F120DAE120DC2120EEA
:1016A50053756C0075BB060216B931EE11A0756C49
:1016B5000075BB06120E75120EFA120F2512098F50
:1016C500120F39120F6D120D3F120DAE120DC2120F
:1016D5000E53120E6C120EFA120F251209EC120F90
:1016E50039120F9F120D3F120DAE120DC2120E537D
:1016F500120E75120EFA120F25120A25120F391243
:101705000FE9120D3F120DAE120DC2120E53120E3D
:101715006C120EFA120F25120A82120F39112412B9
:101725000D3F120DAE120DC2120E53120E75120E92
:10173500FA120F25120AE6120F391165120D3F1222
:101745000DAE120DC2120E53120E6C120BE2120EDA
:10175500FA120F25120BE6120F3911A0120D3F12C6
:101765000DAE120DC2120E5330634285605E856068
:101775005F855D6475650179647A147888E6B403DC
:1017850004791E7A05C3E538994015C263D2648A87
:10179500377888E6B40306755EFF755FFF0217B2FA
:1017A500C3E559940140030216B90217E8306419DC
:1017B500E537147005C2640216AFF537C3E55994D1
:1017C5000140030216B90217E8C3E55C94FA501309
:1017D500741F552E7004E5286009C3E53D94F0504B
:1017E50002C1B9C2AF310B7887E6FE760231EE78D9
:1017F50087EEF6E4F522F523F524F525F561C260BB
:10180500D2AF12086012110B741F552E7007E52810
:0818150070030213E8021492B3
:101A00000B02110909040103FF0901010155AA0094
:101A1000FFFF0105FF0306FF0203FA14140501028C
:031A2000007DFF47
:101A4000235475726E696779343041232020202039
:101A500023424C48454C4923463331302320202033
:101A60006F72672E736B797075702E6573632E625B
:00000001FF
